{
	"contracts/2_variables_modificadores.sol": {
		"variables_modifiers": {
			"abi": [
				{
					"inputs": [],
					"name": "booleano",
					"outputs": [
						{
							"internalType": "bool",
							"name": "",
							"type": "bool"
						}
					],
					"stateMutability": "view",
					"type": "function"
				},
				{
					"inputs": [],
					"name": "direccion1",
					"outputs": [
						{
							"internalType": "address",
							"name": "",
							"type": "address"
						}
					],
					"stateMutability": "view",
					"type": "function"
				},
				{
					"inputs": [],
					"name": "direccion2",
					"outputs": [
						{
							"internalType": "address",
							"name": "",
							"type": "address"
						}
					],
					"stateMutability": "view",
					"type": "function"
				},
				{
					"inputs": [],
					"name": "displayState",
					"outputs": [
						{
							"internalType": "enum variables_modifiers.options",
							"name": "",
							"type": "uint8"
						}
					],
					"stateMutability": "view",
					"type": "function"
				},
				{
					"inputs": [],
					"name": "entB",
					"outputs": [
						{
							"internalType": "uint256",
							"name": "",
							"type": "uint256"
						}
					],
					"stateMutability": "view",
					"type": "function"
				},
				{
					"inputs": [],
					"name": "g",
					"outputs": [
						{
							"internalType": "int8",
							"name": "",
							"type": "int8"
						}
					],
					"stateMutability": "view",
					"type": "function"
				},
				{
					"inputs": [],
					"name": "hashing",
					"outputs": [
						{
							"internalType": "bytes32",
							"name": "",
							"type": "bytes32"
						}
					],
					"stateMutability": "view",
					"type": "function"
				},
				{
					"inputs": [],
					"name": "letras",
					"outputs": [
						{
							"internalType": "string",
							"name": "",
							"type": "string"
						}
					],
					"stateMutability": "view",
					"type": "function"
				},
				{
					"inputs": [],
					"name": "turnOff",
					"outputs": [],
					"stateMutability": "nonpayable",
					"type": "function"
				},
				{
					"inputs": [],
					"name": "turnOn",
					"outputs": [],
					"stateMutability": "nonpayable",
					"type": "function"
				}
			],
			"devdoc": {
				"kind": "dev",
				"methods": {},
				"version": 1
			},
			"evm": {
				"assembly": "    /* \"contracts/2_variables_modificadores.sol\":61:1139  contract variables_modifiers {... */\n  mstore(0x40, 0x80)\n    /* \"contracts/2_variables_modificadores.sol\":177:178  5 */\n  0x05\n    /* \"contracts/2_variables_modificadores.sol\":158:178  uint public entB = 5 */\n  0x01\n  sstore\n    /* \"contracts/2_variables_modificadores.sol\":249:251  45 */\n  0x2d\n    /* \"contracts/2_variables_modificadores.sol\":233:251  int8 public g = 45 */\n  0x03\n  exp(0x0100, 0x00)\n  dup2\n  sload\n  dup2\n  0xff\n  mul\n  not\n  and\n  swap1\n  dup4\n  0x00\n  signextend\n  0xff\n  and\n  mul\n  or\n  swap1\n  sstore\n  pop\n    /* \"contracts/2_variables_modificadores.sol\":325:365  string public letras = \"esto es publico\" */\n  mload(0x40)\n  dup1\n  0x40\n  add\n  0x40\n  mstore\n  dup1\n  0x0f\n  dup2\n  mstore\n  0x20\n  add\n  0x6573746f206573207075626c69636f0000000000000000000000000000000000\n  dup2\n  mstore\n  pop\n  0x05\n  swap1\n  dup2\n  tag_1\n  swap2\n  swap1\n  tag_2\n  jump\t// in\ntag_1:\n  pop\n    /* \"contracts/2_variables_modificadores.sol\":414:418  true */\n  0x01\n    /* \"contracts/2_variables_modificadores.sol\":391:418  bool public booleano = true */\n  0x06\n  exp(0x0100, 0x00)\n  dup2\n  sload\n  dup2\n  0xff\n  mul\n  not\n  and\n  swap1\n  dup4\n  iszero\n  iszero\n  mul\n  or\n  swap1\n  sstore\n  pop\n    /* \"contracts/2_variables_modificadores.sol\":572:598  abi.encodePacked(\"Manolo\") */\n  add(0x20, mload(0x40))\n  tag_3\n  swap1\n  tag_4\n  jump\t// in\ntag_3:\n  mload(0x40)\n  0x20\n  dup2\n  dup4\n  sub\n  sub\n  dup2\n  mstore\n  swap1\n  0x40\n  mstore\n    /* \"contracts/2_variables_modificadores.sol\":562:599  keccak256(abi.encodePacked(\"Manolo\")) */\n  dup1\n  mload\n  swap1\n  0x20\n  add\n  keccak256\n    /* \"contracts/2_variables_modificadores.sol\":537:599  bytes32 public hashing = keccak256(abi.encodePacked(\"Manolo\")) */\n  0x09\n  sstore\n    /* \"contracts/2_variables_modificadores.sol\":688:730  0x4B20993Bc481177ec7E8f571ceCaE8A9e22C02db */\n  0x4b20993bc481177ec7e8f571cecae8a9e22c02db\n    /* \"contracts/2_variables_modificadores.sol\":660:730  address public direccion1 = 0x4B20993Bc481177ec7E8f571ceCaE8A9e22C02db */\n  0x0b\n  exp(0x0100, 0x00)\n  dup2\n  sload\n  dup2\n  0xffffffffffffffffffffffffffffffffffffffff\n  mul\n  not\n  and\n  swap1\n  dup4\n  0xffffffffffffffffffffffffffffffffffffffff\n  and\n  mul\n  or\n  swap1\n  sstore\n  pop\n    /* \"contracts/2_variables_modificadores.sol\":765:775  msg.sender */\n  caller\n    /* \"contracts/2_variables_modificadores.sol\":737:775  address public direccion2 = msg.sender */\n  0x0c\n  exp(0x0100, 0x00)\n  dup2\n  sload\n  dup2\n  0xffffffffffffffffffffffffffffffffffffffff\n  mul\n  not\n  and\n  swap1\n  dup4\n  0xffffffffffffffffffffffffffffffffffffffff\n  and\n  mul\n  or\n  swap1\n  sstore\n  pop\n    /* \"contracts/2_variables_modificadores.sol\":61:1139  contract variables_modifiers {... */\n  callvalue\n  dup1\n  iszero\n  tag_5\n  jumpi\n  0x00\n  dup1\n  revert\ntag_5:\n  pop\n  jump(tag_6)\n    /* \"#utility.yul\":7:106   */\ntag_7:\n    /* \"#utility.yul\":59:65   */\n  0x00\n    /* \"#utility.yul\":93:98   */\n  dup2\n    /* \"#utility.yul\":87:99   */\n  mload\n    /* \"#utility.yul\":77:99   */\n  swap1\n  pop\n    /* \"#utility.yul\":7:106   */\n  swap2\n  swap1\n  pop\n  jump\t// out\n    /* \"#utility.yul\":112:292   */\ntag_8:\n    /* \"#utility.yul\":160:237   */\n  0x4e487b7100000000000000000000000000000000000000000000000000000000\n    /* \"#utility.yul\":157:158   */\n  0x00\n    /* \"#utility.yul\":150:238   */\n  mstore\n    /* \"#utility.yul\":257:261   */\n  0x41\n    /* \"#utility.yul\":254:255   */\n  0x04\n    /* \"#utility.yul\":247:262   */\n  mstore\n    /* \"#utility.yul\":281:285   */\n  0x24\n    /* \"#utility.yul\":278:279   */\n  0x00\n    /* \"#utility.yul\":271:286   */\n  revert\n    /* \"#utility.yul\":298:478   */\ntag_9:\n    /* \"#utility.yul\":346:423   */\n  0x4e487b7100000000000000000000000000000000000000000000000000000000\n    /* \"#utility.yul\":343:344   */\n  0x00\n    /* \"#utility.yul\":336:424   */\n  mstore\n    /* \"#utility.yul\":443:447   */\n  0x22\n    /* \"#utility.yul\":440:441   */\n  0x04\n    /* \"#utility.yul\":433:448   */\n  mstore\n    /* \"#utility.yul\":467:471   */\n  0x24\n    /* \"#utility.yul\":464:465   */\n  0x00\n    /* \"#utility.yul\":457:472   */\n  revert\n    /* \"#utility.yul\":484:804   */\ntag_10:\n    /* \"#utility.yul\":528:534   */\n  0x00\n    /* \"#utility.yul\":565:566   */\n  0x02\n    /* \"#utility.yul\":559:563   */\n  dup3\n    /* \"#utility.yul\":555:567   */\n  div\n    /* \"#utility.yul\":545:567   */\n  swap1\n  pop\n    /* \"#utility.yul\":612:613   */\n  0x01\n    /* \"#utility.yul\":606:610   */\n  dup3\n    /* \"#utility.yul\":602:614   */\n  and\n    /* \"#utility.yul\":633:651   */\n  dup1\n    /* \"#utility.yul\":623:704   */\n  tag_35\n  jumpi\n    /* \"#utility.yul\":689:693   */\n  0x7f\n    /* \"#utility.yul\":681:687   */\n  dup3\n    /* \"#utility.yul\":677:694   */\n  and\n    /* \"#utility.yul\":667:694   */\n  swap2\n  pop\n    /* \"#utility.yul\":623:704   */\ntag_35:\n    /* \"#utility.yul\":751:753   */\n  0x20\n    /* \"#utility.yul\":743:749   */\n  dup3\n    /* \"#utility.yul\":740:754   */\n  lt\n    /* \"#utility.yul\":720:738   */\n  dup2\n    /* \"#utility.yul\":717:755   */\n  sub\n    /* \"#utility.yul\":714:798   */\n  tag_36\n  jumpi\n    /* \"#utility.yul\":770:788   */\n  tag_37\n  tag_9\n  jump\t// in\ntag_37:\n    /* \"#utility.yul\":714:798   */\ntag_36:\n    /* \"#utility.yul\":535:804   */\n  pop\n    /* \"#utility.yul\":484:804   */\n  swap2\n  swap1\n  pop\n  jump\t// out\n    /* \"#utility.yul\":810:951   */\ntag_11:\n    /* \"#utility.yul\":859:863   */\n  0x00\n    /* \"#utility.yul\":882:885   */\n  dup2\n    /* \"#utility.yul\":874:885   */\n  swap1\n  pop\n    /* \"#utility.yul\":905:908   */\n  dup2\n    /* \"#utility.yul\":902:903   */\n  0x00\n    /* \"#utility.yul\":895:909   */\n  mstore\n    /* \"#utility.yul\":939:943   */\n  0x20\n    /* \"#utility.yul\":936:937   */\n  0x00\n    /* \"#utility.yul\":926:944   */\n  keccak256\n    /* \"#utility.yul\":918:944   */\n  swap1\n  pop\n    /* \"#utility.yul\":810:951   */\n  swap2\n  swap1\n  pop\n  jump\t// out\n    /* \"#utility.yul\":957:1050   */\ntag_12:\n    /* \"#utility.yul\":994:1000   */\n  0x00\n    /* \"#utility.yul\":1041:1043   */\n  0x20\n    /* \"#utility.yul\":1036:1038   */\n  0x1f\n    /* \"#utility.yul\":1029:1034   */\n  dup4\n    /* \"#utility.yul\":1025:1039   */\n  add\n    /* \"#utility.yul\":1021:1044   */\n  div\n    /* \"#utility.yul\":1011:1044   */\n  swap1\n  pop\n    /* \"#utility.yul\":957:1050   */\n  swap2\n  swap1\n  pop\n  jump\t// out\n    /* \"#utility.yul\":1056:1163   */\ntag_13:\n    /* \"#utility.yul\":1100:1108   */\n  0x00\n    /* \"#utility.yul\":1150:1155   */\n  dup3\n    /* \"#utility.yul\":1144:1148   */\n  dup3\n    /* \"#utility.yul\":1140:1156   */\n  shl\n    /* \"#utility.yul\":1119:1156   */\n  swap1\n  pop\n    /* \"#utility.yul\":1056:1163   */\n  swap3\n  swap2\n  pop\n  pop\n  jump\t// out\n    /* \"#utility.yul\":1169:1562   */\ntag_14:\n    /* \"#utility.yul\":1238:1244   */\n  0x00\n    /* \"#utility.yul\":1288:1289   */\n  0x08\n    /* \"#utility.yul\":1276:1286   */\n  dup4\n    /* \"#utility.yul\":1272:1290   */\n  mul\n    /* \"#utility.yul\":1311:1408   */\n  tag_42\n    /* \"#utility.yul\":1341:1407   */\n  0xffffffffffffffffffffffffffffffffffffffffffffffffffffffffffffffff\n    /* \"#utility.yul\":1330:1339   */\n  dup3\n    /* \"#utility.yul\":1311:1408   */\n  tag_13\n  jump\t// in\ntag_42:\n    /* \"#utility.yul\":1429:1468   */\n  tag_43\n    /* \"#utility.yul\":1459:1467   */\n  dup7\n    /* \"#utility.yul\":1448:1457   */\n  dup4\n    /* \"#utility.yul\":1429:1468   */\n  tag_13\n  jump\t// in\ntag_43:\n    /* \"#utility.yul\":1417:1468   */\n  swap6\n  pop\n    /* \"#utility.yul\":1501:1505   */\n  dup1\n    /* \"#utility.yul\":1497:1506   */\n  not\n    /* \"#utility.yul\":1490:1495   */\n  dup5\n    /* \"#utility.yul\":1486:1507   */\n  and\n    /* \"#utility.yul\":1477:1507   */\n  swap4\n  pop\n    /* \"#utility.yul\":1550:1554   */\n  dup1\n    /* \"#utility.yul\":1540:1548   */\n  dup7\n    /* \"#utility.yul\":1536:1555   */\n  and\n    /* \"#utility.yul\":1529:1534   */\n  dup5\n    /* \"#utility.yul\":1526:1556   */\n  or\n    /* \"#utility.yul\":1516:1556   */\n  swap3\n  pop\n    /* \"#utility.yul\":1245:1562   */\n  pop\n  pop\n    /* \"#utility.yul\":1169:1562   */\n  swap4\n  swap3\n  pop\n  pop\n  pop\n  jump\t// out\n    /* \"#utility.yul\":1568:1645   */\ntag_15:\n    /* \"#utility.yul\":1605:1612   */\n  0x00\n    /* \"#utility.yul\":1634:1639   */\n  dup2\n    /* \"#utility.yul\":1623:1639   */\n  swap1\n  pop\n    /* \"#utility.yul\":1568:1645   */\n  swap2\n  swap1\n  pop\n  jump\t// out\n    /* \"#utility.yul\":1651:1711   */\ntag_16:\n    /* \"#utility.yul\":1679:1682   */\n  0x00\n    /* \"#utility.yul\":1700:1705   */\n  dup2\n    /* \"#utility.yul\":1693:1705   */\n  swap1\n  pop\n    /* \"#utility.yul\":1651:1711   */\n  swap2\n  swap1\n  pop\n  jump\t// out\n    /* \"#utility.yul\":1717:1859   */\ntag_17:\n    /* \"#utility.yul\":1767:1776   */\n  0x00\n    /* \"#utility.yul\":1800:1853   */\n  tag_47\n    /* \"#utility.yul\":1818:1852   */\n  tag_48\n    /* \"#utility.yul\":1827:1851   */\n  tag_49\n    /* \"#utility.yul\":1845:1850   */\n  dup5\n    /* \"#utility.yul\":1827:1851   */\n  tag_15\n  jump\t// in\ntag_49:\n    /* \"#utility.yul\":1818:1852   */\n  tag_16\n  jump\t// in\ntag_48:\n    /* \"#utility.yul\":1800:1853   */\n  tag_15\n  jump\t// in\ntag_47:\n    /* \"#utility.yul\":1787:1853   */\n  swap1\n  pop\n    /* \"#utility.yul\":1717:1859   */\n  swap2\n  swap1\n  pop\n  jump\t// out\n    /* \"#utility.yul\":1865:1940   */\ntag_18:\n    /* \"#utility.yul\":1908:1911   */\n  0x00\n    /* \"#utility.yul\":1929:1934   */\n  dup2\n    /* \"#utility.yul\":1922:1934   */\n  swap1\n  pop\n    /* \"#utility.yul\":1865:1940   */\n  swap2\n  swap1\n  pop\n  jump\t// out\n    /* \"#utility.yul\":1946:2215   */\ntag_19:\n    /* \"#utility.yul\":2056:2095   */\n  tag_52\n    /* \"#utility.yul\":2087:2094   */\n  dup4\n    /* \"#utility.yul\":2056:2095   */\n  tag_17\n  jump\t// in\ntag_52:\n    /* \"#utility.yul\":2117:2208   */\n  tag_53\n    /* \"#utility.yul\":2166:2207   */\n  tag_54\n    /* \"#utility.yul\":2190:2206   */\n  dup3\n    /* \"#utility.yul\":2166:2207   */\n  tag_18\n  jump\t// in\ntag_54:\n    /* \"#utility.yul\":2158:2164   */\n  dup5\n    /* \"#utility.yul\":2151:2155   */\n  dup5\n    /* \"#utility.yul\":2145:2156   */\n  sload\n    /* \"#utility.yul\":2117:2208   */\n  tag_14\n  jump\t// in\ntag_53:\n    /* \"#utility.yul\":2111:2115   */\n  dup3\n    /* \"#utility.yul\":2104:2209   */\n  sstore\n    /* \"#utility.yul\":2022:2215   */\n  pop\n    /* \"#utility.yul\":1946:2215   */\n  pop\n  pop\n  pop\n  jump\t// out\n    /* \"#utility.yul\":2221:2294   */\ntag_20:\n    /* \"#utility.yul\":2266:2269   */\n  0x00\n    /* \"#utility.yul\":2221:2294   */\n  swap1\n  jump\t// out\n    /* \"#utility.yul\":2300:2489   */\ntag_21:\n    /* \"#utility.yul\":2377:2409   */\n  tag_57\n  tag_20\n  jump\t// in\ntag_57:\n    /* \"#utility.yul\":2418:2483   */\n  tag_58\n    /* \"#utility.yul\":2476:2482   */\n  dup2\n    /* \"#utility.yul\":2468:2474   */\n  dup5\n    /* \"#utility.yul\":2462:2466   */\n  dup5\n    /* \"#utility.yul\":2418:2483   */\n  tag_19\n  jump\t// in\ntag_58:\n    /* \"#utility.yul\":2353:2489   */\n  pop\n    /* \"#utility.yul\":2300:2489   */\n  pop\n  pop\n  jump\t// out\n    /* \"#utility.yul\":2495:2681   */\ntag_22:\n    /* \"#utility.yul\":2555:2675   */\ntag_60:\n    /* \"#utility.yul\":2572:2575   */\n  dup2\n    /* \"#utility.yul\":2565:2570   */\n  dup2\n    /* \"#utility.yul\":2562:2576   */\n  lt\n    /* \"#utility.yul\":2555:2675   */\n  iszero\n  tag_62\n  jumpi\n    /* \"#utility.yul\":2626:2665   */\n  tag_63\n    /* \"#utility.yul\":2663:2664   */\n  0x00\n    /* \"#utility.yul\":2656:2661   */\n  dup3\n    /* \"#utility.yul\":2626:2665   */\n  tag_21\n  jump\t// in\ntag_63:\n    /* \"#utility.yul\":2599:2600   */\n  0x01\n    /* \"#utility.yul\":2592:2597   */\n  dup2\n    /* \"#utility.yul\":2588:2601   */\n  add\n    /* \"#utility.yul\":2579:2601   */\n  swap1\n  pop\n    /* \"#utility.yul\":2555:2675   */\n  jump(tag_60)\ntag_62:\n    /* \"#utility.yul\":2495:2681   */\n  pop\n  pop\n  jump\t// out\n    /* \"#utility.yul\":2687:3230   */\ntag_23:\n    /* \"#utility.yul\":2788:2790   */\n  0x1f\n    /* \"#utility.yul\":2783:2786   */\n  dup3\n    /* \"#utility.yul\":2780:2791   */\n  gt\n    /* \"#utility.yul\":2777:3223   */\n  iszero\n  tag_65\n  jumpi\n    /* \"#utility.yul\":2822:2860   */\n  tag_66\n    /* \"#utility.yul\":2854:2859   */\n  dup2\n    /* \"#utility.yul\":2822:2860   */\n  tag_11\n  jump\t// in\ntag_66:\n    /* \"#utility.yul\":2906:2935   */\n  tag_67\n    /* \"#utility.yul\":2924:2934   */\n  dup5\n    /* \"#utility.yul\":2906:2935   */\n  tag_12\n  jump\t// in\ntag_67:\n    /* \"#utility.yul\":2896:2904   */\n  dup2\n    /* \"#utility.yul\":2892:2936   */\n  add\n    /* \"#utility.yul\":3089:3091   */\n  0x20\n    /* \"#utility.yul\":3077:3087   */\n  dup6\n    /* \"#utility.yul\":3074:3092   */\n  lt\n    /* \"#utility.yul\":3071:3120   */\n  iszero\n  tag_68\n  jumpi\n    /* \"#utility.yul\":3110:3118   */\n  dup2\n    /* \"#utility.yul\":3095:3118   */\n  swap1\n  pop\n    /* \"#utility.yul\":3071:3120   */\ntag_68:\n    /* \"#utility.yul\":3133:3213   */\n  tag_69\n    /* \"#utility.yul\":3189:3211   */\n  tag_70\n    /* \"#utility.yul\":3207:3210   */\n  dup6\n    /* \"#utility.yul\":3189:3211   */\n  tag_12\n  jump\t// in\ntag_70:\n    /* \"#utility.yul\":3179:3187   */\n  dup4\n    /* \"#utility.yul\":3175:3212   */\n  add\n    /* \"#utility.yul\":3162:3173   */\n  dup3\n    /* \"#utility.yul\":3133:3213   */\n  tag_22\n  jump\t// in\ntag_69:\n    /* \"#utility.yul\":2792:3223   */\n  pop\n  pop\n    /* \"#utility.yul\":2777:3223   */\ntag_65:\n    /* \"#utility.yul\":2687:3230   */\n  pop\n  pop\n  pop\n  jump\t// out\n    /* \"#utility.yul\":3236:3353   */\ntag_24:\n    /* \"#utility.yul\":3290:3298   */\n  0x00\n    /* \"#utility.yul\":3340:3345   */\n  dup3\n    /* \"#utility.yul\":3334:3338   */\n  dup3\n    /* \"#utility.yul\":3330:3346   */\n  shr\n    /* \"#utility.yul\":3309:3346   */\n  swap1\n  pop\n    /* \"#utility.yul\":3236:3353   */\n  swap3\n  swap2\n  pop\n  pop\n  jump\t// out\n    /* \"#utility.yul\":3359:3528   */\ntag_25:\n    /* \"#utility.yul\":3403:3409   */\n  0x00\n    /* \"#utility.yul\":3436:3487   */\n  tag_73\n    /* \"#utility.yul\":3484:3485   */\n  0x00\n    /* \"#utility.yul\":3480:3486   */\n  not\n    /* \"#utility.yul\":3472:3477   */\n  dup5\n    /* \"#utility.yul\":3469:3470   */\n  0x08\n    /* \"#utility.yul\":3465:3478   */\n  mul\n    /* \"#utility.yul\":3436:3487   */\n  tag_24\n  jump\t// in\ntag_73:\n    /* \"#utility.yul\":3432:3488   */\n  not\n    /* \"#utility.yul\":3517:3521   */\n  dup1\n    /* \"#utility.yul\":3511:3515   */\n  dup4\n    /* \"#utility.yul\":3507:3522   */\n  and\n    /* \"#utility.yul\":3497:3522   */\n  swap2\n  pop\n    /* \"#utility.yul\":3410:3528   */\n  pop\n    /* \"#utility.yul\":3359:3528   */\n  swap3\n  swap2\n  pop\n  pop\n  jump\t// out\n    /* \"#utility.yul\":3533:3828   */\ntag_26:\n    /* \"#utility.yul\":3609:3613   */\n  0x00\n    /* \"#utility.yul\":3755:3784   */\n  tag_75\n    /* \"#utility.yul\":3780:3783   */\n  dup4\n    /* \"#utility.yul\":3774:3778   */\n  dup4\n    /* \"#utility.yul\":3755:3784   */\n  tag_25\n  jump\t// in\ntag_75:\n    /* \"#utility.yul\":3747:3784   */\n  swap2\n  pop\n    /* \"#utility.yul\":3817:3820   */\n  dup3\n    /* \"#utility.yul\":3814:3815   */\n  0x02\n    /* \"#utility.yul\":3810:3821   */\n  mul\n    /* \"#utility.yul\":3804:3808   */\n  dup3\n    /* \"#utility.yul\":3801:3822   */\n  or\n    /* \"#utility.yul\":3793:3822   */\n  swap1\n  pop\n    /* \"#utility.yul\":3533:3828   */\n  swap3\n  swap2\n  pop\n  pop\n  jump\t// out\n    /* \"#utility.yul\":3833:5228   */\ntag_2:\n    /* \"#utility.yul\":3950:3987   */\n  tag_77\n    /* \"#utility.yul\":3983:3986   */\n  dup3\n    /* \"#utility.yul\":3950:3987   */\n  tag_7\n  jump\t// in\ntag_77:\n    /* \"#utility.yul\":4052:4070   */\n  0xffffffffffffffff\n    /* \"#utility.yul\":4044:4050   */\n  dup2\n    /* \"#utility.yul\":4041:4071   */\n  gt\n    /* \"#utility.yul\":4038:4094   */\n  iszero\n  tag_78\n  jumpi\n    /* \"#utility.yul\":4074:4092   */\n  tag_79\n  tag_8\n  jump\t// in\ntag_79:\n    /* \"#utility.yul\":4038:4094   */\ntag_78:\n    /* \"#utility.yul\":4118:4156   */\n  tag_80\n    /* \"#utility.yul\":4150:4154   */\n  dup3\n    /* \"#utility.yul\":4144:4155   */\n  sload\n    /* \"#utility.yul\":4118:4156   */\n  tag_10\n  jump\t// in\ntag_80:\n    /* \"#utility.yul\":4203:4270   */\n  tag_81\n    /* \"#utility.yul\":4263:4269   */\n  dup3\n    /* \"#utility.yul\":4255:4261   */\n  dup3\n    /* \"#utility.yul\":4249:4253   */\n  dup6\n    /* \"#utility.yul\":4203:4270   */\n  tag_23\n  jump\t// in\ntag_81:\n    /* \"#utility.yul\":4297:4298   */\n  0x00\n    /* \"#utility.yul\":4321:4325   */\n  0x20\n    /* \"#utility.yul\":4308:4325   */\n  swap1\n  pop\n    /* \"#utility.yul\":4353:4355   */\n  0x1f\n    /* \"#utility.yul\":4345:4351   */\n  dup4\n    /* \"#utility.yul\":4342:4356   */\n  gt\n    /* \"#utility.yul\":4370:4371   */\n  0x01\n    /* \"#utility.yul\":4365:4983   */\n  dup2\n  eq\n  tag_83\n  jumpi\n    /* \"#utility.yul\":5027:5028   */\n  0x00\n    /* \"#utility.yul\":5044:5050   */\n  dup5\n    /* \"#utility.yul\":5041:5118   */\n  iszero\n  tag_84\n  jumpi\n    /* \"#utility.yul\":5093:5102   */\n  dup3\n    /* \"#utility.yul\":5088:5091   */\n  dup8\n    /* \"#utility.yul\":5084:5103   */\n  add\n    /* \"#utility.yul\":5078:5104   */\n  mload\n    /* \"#utility.yul\":5069:5104   */\n  swap1\n  pop\n    /* \"#utility.yul\":5041:5118   */\ntag_84:\n    /* \"#utility.yul\":5144:5211   */\n  tag_85\n    /* \"#utility.yul\":5204:5210   */\n  dup6\n    /* \"#utility.yul\":5197:5202   */\n  dup3\n    /* \"#utility.yul\":5144:5211   */\n  tag_26\n  jump\t// in\ntag_85:\n    /* \"#utility.yul\":5138:5142   */\n  dup7\n    /* \"#utility.yul\":5131:5212   */\n  sstore\n    /* \"#utility.yul\":5000:5222   */\n  pop\n    /* \"#utility.yul\":4335:5222   */\n  jump(tag_82)\n    /* \"#utility.yul\":4365:4983   */\ntag_83:\n    /* \"#utility.yul\":4417:4421   */\n  0x1f\n    /* \"#utility.yul\":4413:4422   */\n  not\n    /* \"#utility.yul\":4405:4411   */\n  dup5\n    /* \"#utility.yul\":4401:4423   */\n  and\n    /* \"#utility.yul\":4451:4488   */\n  tag_86\n    /* \"#utility.yul\":4483:4487   */\n  dup7\n    /* \"#utility.yul\":4451:4488   */\n  tag_11\n  jump\t// in\ntag_86:\n    /* \"#utility.yul\":4510:4511   */\n  0x00\n    /* \"#utility.yul\":4524:4732   */\ntag_87:\n    /* \"#utility.yul\":4538:4545   */\n  dup3\n    /* \"#utility.yul\":4535:4536   */\n  dup2\n    /* \"#utility.yul\":4532:4546   */\n  lt\n    /* \"#utility.yul\":4524:4732   */\n  iszero\n  tag_89\n  jumpi\n    /* \"#utility.yul\":4617:4626   */\n  dup5\n    /* \"#utility.yul\":4612:4615   */\n  dup10\n    /* \"#utility.yul\":4608:4627   */\n  add\n    /* \"#utility.yul\":4602:4628   */\n  mload\n    /* \"#utility.yul\":4594:4600   */\n  dup3\n    /* \"#utility.yul\":4587:4629   */\n  sstore\n    /* \"#utility.yul\":4668:4669   */\n  0x01\n    /* \"#utility.yul\":4660:4666   */\n  dup3\n    /* \"#utility.yul\":4656:4670   */\n  add\n    /* \"#utility.yul\":4646:4670   */\n  swap2\n  pop\n    /* \"#utility.yul\":4715:4717   */\n  0x20\n    /* \"#utility.yul\":4704:4713   */\n  dup6\n    /* \"#utility.yul\":4700:4718   */\n  add\n    /* \"#utility.yul\":4687:4718   */\n  swap5\n  pop\n    /* \"#utility.yul\":4561:4565   */\n  0x20\n    /* \"#utility.yul\":4558:4559   */\n  dup2\n    /* \"#utility.yul\":4554:4566   */\n  add\n    /* \"#utility.yul\":4549:4566   */\n  swap1\n  pop\n    /* \"#utility.yul\":4524:4732   */\n  jump(tag_87)\ntag_89:\n    /* \"#utility.yul\":4760:4766   */\n  dup7\n    /* \"#utility.yul\":4751:4758   */\n  dup4\n    /* \"#utility.yul\":4748:4767   */\n  lt\n    /* \"#utility.yul\":4745:4924   */\n  iszero\n  tag_90\n  jumpi\n    /* \"#utility.yul\":4818:4827   */\n  dup5\n    /* \"#utility.yul\":4813:4816   */\n  dup10\n    /* \"#utility.yul\":4809:4828   */\n  add\n    /* \"#utility.yul\":4803:4829   */\n  mload\n    /* \"#utility.yul\":4861:4909   */\n  tag_91\n    /* \"#utility.yul\":4903:4907   */\n  0x1f\n    /* \"#utility.yul\":4895:4901   */\n  dup10\n    /* \"#utility.yul\":4891:4908   */\n  and\n    /* \"#utility.yul\":4880:4889   */\n  dup3\n    /* \"#utility.yul\":4861:4909   */\n  tag_25\n  jump\t// in\ntag_91:\n    /* \"#utility.yul\":4853:4859   */\n  dup4\n    /* \"#utility.yul\":4846:4910   */\n  sstore\n    /* \"#utility.yul\":4768:4924   */\n  pop\n    /* \"#utility.yul\":4745:4924   */\ntag_90:\n    /* \"#utility.yul\":4970:4971   */\n  0x01\n    /* \"#utility.yul\":4966:4967   */\n  0x02\n    /* \"#utility.yul\":4958:4964   */\n  dup9\n    /* \"#utility.yul\":4954:4968   */\n  mul\n    /* \"#utility.yul\":4950:4972   */\n  add\n    /* \"#utility.yul\":4944:4948   */\n  dup9\n    /* \"#utility.yul\":4937:4973   */\n  sstore\n    /* \"#utility.yul\":4372:4983   */\n  pop\n  pop\n  pop\n    /* \"#utility.yul\":4335:5222   */\ntag_82:\n  pop\n    /* \"#utility.yul\":3925:5228   */\n  pop\n  pop\n  pop\n    /* \"#utility.yul\":3833:5228   */\n  pop\n  pop\n  jump\t// out\n    /* \"#utility.yul\":5234:5382   */\ntag_27:\n    /* \"#utility.yul\":5336:5347   */\n  0x00\n    /* \"#utility.yul\":5373:5376   */\n  dup2\n    /* \"#utility.yul\":5358:5376   */\n  swap1\n  pop\n    /* \"#utility.yul\":5234:5382   */\n  swap3\n  swap2\n  pop\n  pop\n  jump\t// out\n    /* \"#utility.yul\":5388:5544   */\ntag_28:\n    /* \"#utility.yul\":5528:5536   */\n  0x4d616e6f6c6f0000000000000000000000000000000000000000000000000000\n    /* \"#utility.yul\":5524:5525   */\n  0x00\n    /* \"#utility.yul\":5516:5522   */\n  dup3\n    /* \"#utility.yul\":5512:5526   */\n  add\n    /* \"#utility.yul\":5505:5537   */\n  mstore\n    /* \"#utility.yul\":5388:5544   */\n  pop\n  jump\t// out\n    /* \"#utility.yul\":5550:5950   */\ntag_29:\n    /* \"#utility.yul\":5710:5713   */\n  0x00\n    /* \"#utility.yul\":5731:5815   */\n  tag_95\n    /* \"#utility.yul\":5813:5814   */\n  0x06\n    /* \"#utility.yul\":5808:5811   */\n  dup4\n    /* \"#utility.yul\":5731:5815   */\n  tag_27\n  jump\t// in\ntag_95:\n    /* \"#utility.yul\":5724:5815   */\n  swap2\n  pop\n    /* \"#utility.yul\":5824:5917   */\n  tag_96\n    /* \"#utility.yul\":5913:5916   */\n  dup3\n    /* \"#utility.yul\":5824:5917   */\n  tag_28\n  jump\t// in\ntag_96:\n    /* \"#utility.yul\":5942:5943   */\n  0x06\n    /* \"#utility.yul\":5937:5940   */\n  dup3\n    /* \"#utility.yul\":5933:5944   */\n  add\n    /* \"#utility.yul\":5926:5944   */\n  swap1\n  pop\n    /* \"#utility.yul\":5550:5950   */\n  swap2\n  swap1\n  pop\n  jump\t// out\n    /* \"#utility.yul\":5956:6337   */\ntag_4:\n    /* \"#utility.yul\":6141:6144   */\n  0x00\n    /* \"#utility.yul\":6163:6311   */\n  tag_98\n    /* \"#utility.yul\":6307:6310   */\n  dup3\n    /* \"#utility.yul\":6163:6311   */\n  tag_29\n  jump\t// in\ntag_98:\n    /* \"#utility.yul\":6156:6311   */\n  swap2\n  pop\n    /* \"#utility.yul\":6328:6331   */\n  dup2\n    /* \"#utility.yul\":6321:6331   */\n  swap1\n  pop\n    /* \"#utility.yul\":5956:6337   */\n  swap2\n  swap1\n  pop\n  jump\t// out\n    /* \"contracts/2_variables_modificadores.sol\":61:1139  contract variables_modifiers {... */\ntag_6:\n  dataSize(sub_0)\n  dup1\n  dataOffset(sub_0)\n  0x00\n  codecopy\n  0x00\n  return\nstop\n\nsub_0: assembly {\n        /* \"contracts/2_variables_modificadores.sol\":61:1139  contract variables_modifiers {... */\n      mstore(0x40, 0x80)\n      callvalue\n      dup1\n      iszero\n      tag_1\n      jumpi\n      0x00\n      dup1\n      revert\n    tag_1:\n      pop\n      jumpi(tag_2, lt(calldatasize, 0x04))\n      shr(0xe0, calldataload(0x00))\n      dup1\n      0x9340e345\n      gt\n      tag_13\n      jumpi\n      dup1\n      0x9340e345\n      eq\n      tag_8\n      jumpi\n      dup1\n      0xaf10c810\n      eq\n      tag_9\n      jumpi\n      dup1\n      0xba33ed7d\n      eq\n      tag_10\n      jumpi\n      dup1\n      0xcd97d84e\n      eq\n      tag_11\n      jumpi\n      dup1\n      0xe2179b8e\n      eq\n      tag_12\n      jumpi\n      jump(tag_2)\n    tag_13:\n      dup1\n      0x0a6cda6a\n      eq\n      tag_3\n      jumpi\n      dup1\n      0x2f52a82f\n      eq\n      tag_4\n      jumpi\n      dup1\n      0x574f93e2\n      eq\n      tag_5\n      jumpi\n      dup1\n      0x7272eea1\n      eq\n      tag_6\n      jumpi\n      dup1\n      0x74b9c0dc\n      eq\n      tag_7\n      jumpi\n    tag_2:\n      0x00\n      dup1\n      revert\n        /* \"contracts/2_variables_modificadores.sol\":391:418  bool public booleano = true */\n    tag_3:\n      tag_14\n      tag_15\n      jump\t// in\n    tag_14:\n      mload(0x40)\n      tag_16\n      swap2\n      swap1\n      tag_17\n      jump\t// in\n    tag_16:\n      mload(0x40)\n      dup1\n      swap2\n      sub\n      swap1\n      return\n        /* \"contracts/2_variables_modificadores.sol\":158:178  uint public entB = 5 */\n    tag_4:\n      tag_18\n      tag_19\n      jump\t// in\n    tag_18:\n      mload(0x40)\n      tag_20\n      swap2\n      swap1\n      tag_21\n      jump\t// in\n    tag_20:\n      mload(0x40)\n      dup1\n      swap2\n      sub\n      swap1\n      return\n        /* \"contracts/2_variables_modificadores.sol\":660:730  address public direccion1 = 0x4B20993Bc481177ec7E8f571ceCaE8A9e22C02db */\n    tag_5:\n      tag_22\n      tag_23\n      jump\t// in\n    tag_22:\n      mload(0x40)\n      tag_24\n      swap2\n      swap1\n      tag_25\n      jump\t// in\n    tag_24:\n      mload(0x40)\n      dup1\n      swap2\n      sub\n      swap1\n      return\n        /* \"contracts/2_variables_modificadores.sol\":1051:1136  function displayState() public view returns (options) {... */\n    tag_6:\n      tag_26\n      tag_27\n      jump\t// in\n    tag_26:\n      mload(0x40)\n      tag_28\n      swap2\n      swap1\n      tag_29\n      jump\t// in\n    tag_28:\n      mload(0x40)\n      dup1\n      swap2\n      sub\n      swap1\n      return\n        /* \"contracts/2_variables_modificadores.sol\":737:775  address public direccion2 = msg.sender */\n    tag_7:\n      tag_30\n      tag_31\n      jump\t// in\n    tag_30:\n      mload(0x40)\n      tag_32\n      swap2\n      swap1\n      tag_25\n      jump\t// in\n    tag_32:\n      mload(0x40)\n      dup1\n      swap2\n      sub\n      swap1\n      return\n        /* \"contracts/2_variables_modificadores.sol\":325:365  string public letras = \"esto es publico\" */\n    tag_8:\n      tag_33\n      tag_34\n      jump\t// in\n    tag_33:\n      mload(0x40)\n      tag_35\n      swap2\n      swap1\n      tag_36\n      jump\t// in\n    tag_35:\n      mload(0x40)\n      dup1\n      swap2\n      sub\n      swap1\n      return\n        /* \"contracts/2_variables_modificadores.sol\":979:1043  function turnOff() public {... */\n    tag_9:\n      tag_37\n      tag_38\n      jump\t// in\n    tag_37:\n      stop\n        /* \"contracts/2_variables_modificadores.sol\":909:971  function turnOn() public {... */\n    tag_10:\n      tag_39\n      tag_40\n      jump\t// in\n    tag_39:\n      stop\n        /* \"contracts/2_variables_modificadores.sol\":537:599  bytes32 public hashing = keccak256(abi.encodePacked(\"Manolo\")) */\n    tag_11:\n      tag_41\n      tag_42\n      jump\t// in\n    tag_41:\n      mload(0x40)\n      tag_43\n      swap2\n      swap1\n      tag_44\n      jump\t// in\n    tag_43:\n      mload(0x40)\n      dup1\n      swap2\n      sub\n      swap1\n      return\n        /* \"contracts/2_variables_modificadores.sol\":233:251  int8 public g = 45 */\n    tag_12:\n      tag_45\n      tag_46\n      jump\t// in\n    tag_45:\n      mload(0x40)\n      tag_47\n      swap2\n      swap1\n      tag_48\n      jump\t// in\n    tag_47:\n      mload(0x40)\n      dup1\n      swap2\n      sub\n      swap1\n      return\n        /* \"contracts/2_variables_modificadores.sol\":391:418  bool public booleano = true */\n    tag_15:\n      0x06\n      0x00\n      swap1\n      sload\n      swap1\n      0x0100\n      exp\n      swap1\n      div\n      0xff\n      and\n      dup2\n      jump\t// out\n        /* \"contracts/2_variables_modificadores.sol\":158:178  uint public entB = 5 */\n    tag_19:\n      sload(0x01)\n      dup2\n      jump\t// out\n        /* \"contracts/2_variables_modificadores.sol\":660:730  address public direccion1 = 0x4B20993Bc481177ec7E8f571ceCaE8A9e22C02db */\n    tag_23:\n      0x0b\n      0x00\n      swap1\n      sload\n      swap1\n      0x0100\n      exp\n      swap1\n      div\n      0xffffffffffffffffffffffffffffffffffffffff\n      and\n      dup2\n      jump\t// out\n        /* \"contracts/2_variables_modificadores.sol\":1051:1136  function displayState() public view returns (options) {... */\n    tag_27:\n        /* \"contracts/2_variables_modificadores.sol\":1096:1103  options */\n      0x00\n        /* \"contracts/2_variables_modificadores.sol\":1123:1128  state */\n      0x0c\n      0x14\n      swap1\n      sload\n      swap1\n      0x0100\n      exp\n      swap1\n      div\n      0xff\n      and\n        /* \"contracts/2_variables_modificadores.sol\":1116:1128  return state */\n      swap1\n      pop\n        /* \"contracts/2_variables_modificadores.sol\":1051:1136  function displayState() public view returns (options) {... */\n      swap1\n      jump\t// out\n        /* \"contracts/2_variables_modificadores.sol\":737:775  address public direccion2 = msg.sender */\n    tag_31:\n      0x0c\n      0x00\n      swap1\n      sload\n      swap1\n      0x0100\n      exp\n      swap1\n      div\n      0xffffffffffffffffffffffffffffffffffffffff\n      and\n      dup2\n      jump\t// out\n        /* \"contracts/2_variables_modificadores.sol\":325:365  string public letras = \"esto es publico\" */\n    tag_34:\n      0x05\n      dup1\n      sload\n      tag_50\n      swap1\n      tag_51\n      jump\t// in\n    tag_50:\n      dup1\n      0x1f\n      add\n      0x20\n      dup1\n      swap2\n      div\n      mul\n      0x20\n      add\n      mload(0x40)\n      swap1\n      dup2\n      add\n      0x40\n      mstore\n      dup1\n      swap3\n      swap2\n      swap1\n      dup2\n      dup2\n      mstore\n      0x20\n      add\n      dup3\n      dup1\n      sload\n      tag_52\n      swap1\n      tag_51\n      jump\t// in\n    tag_52:\n      dup1\n      iszero\n      tag_53\n      jumpi\n      dup1\n      0x1f\n      lt\n      tag_54\n      jumpi\n      0x0100\n      dup1\n      dup4\n      sload\n      div\n      mul\n      dup4\n      mstore\n      swap2\n      0x20\n      add\n      swap2\n      jump(tag_53)\n    tag_54:\n      dup3\n      add\n      swap2\n      swap1\n      0x00\n      mstore\n      keccak256(0x00, 0x20)\n      swap1\n    tag_55:\n      dup2\n      sload\n      dup2\n      mstore\n      swap1\n      0x01\n      add\n      swap1\n      0x20\n      add\n      dup1\n      dup4\n      gt\n      tag_55\n      jumpi\n      dup3\n      swap1\n      sub\n      0x1f\n      and\n      dup3\n      add\n      swap2\n    tag_53:\n      pop\n      pop\n      pop\n      pop\n      pop\n      dup2\n      jump\t// out\n        /* \"contracts/2_variables_modificadores.sol\":979:1043  function turnOff() public {... */\n    tag_38:\n        /* \"contracts/2_variables_modificadores.sol\":1024:1035  options.OFF */\n      0x01\n        /* \"contracts/2_variables_modificadores.sol\":1016:1021  state */\n      0x0c\n      0x14\n        /* \"contracts/2_variables_modificadores.sol\":1016:1035  state = options.OFF */\n      0x0100\n      exp\n      dup2\n      sload\n      dup2\n      0xff\n      mul\n      not\n      and\n      swap1\n      dup4\n      0x01\n      dup2\n      gt\n      iszero\n      tag_57\n      jumpi\n      tag_58\n      tag_59\n      jump\t// in\n    tag_58:\n    tag_57:\n      mul\n      or\n      swap1\n      sstore\n      pop\n        /* \"contracts/2_variables_modificadores.sol\":979:1043  function turnOff() public {... */\n      jump\t// out\n        /* \"contracts/2_variables_modificadores.sol\":909:971  function turnOn() public {... */\n    tag_40:\n        /* \"contracts/2_variables_modificadores.sol\":953:963  options.ON */\n      0x00\n        /* \"contracts/2_variables_modificadores.sol\":945:950  state */\n      0x0c\n      0x14\n        /* \"contracts/2_variables_modificadores.sol\":945:963  state = options.ON */\n      0x0100\n      exp\n      dup2\n      sload\n      dup2\n      0xff\n      mul\n      not\n      and\n      swap1\n      dup4\n      0x01\n      dup2\n      gt\n      iszero\n      tag_61\n      jumpi\n      tag_62\n      tag_59\n      jump\t// in\n    tag_62:\n    tag_61:\n      mul\n      or\n      swap1\n      sstore\n      pop\n        /* \"contracts/2_variables_modificadores.sol\":909:971  function turnOn() public {... */\n      jump\t// out\n        /* \"contracts/2_variables_modificadores.sol\":537:599  bytes32 public hashing = keccak256(abi.encodePacked(\"Manolo\")) */\n    tag_42:\n      sload(0x09)\n      dup2\n      jump\t// out\n        /* \"contracts/2_variables_modificadores.sol\":233:251  int8 public g = 45 */\n    tag_46:\n      0x03\n      0x00\n      swap1\n      sload\n      swap1\n      0x0100\n      exp\n      swap1\n      div\n      0x00\n      signextend\n      dup2\n      jump\t// out\n        /* \"#utility.yul\":7:97   */\n    tag_63:\n        /* \"#utility.yul\":41:48   */\n      0x00\n        /* \"#utility.yul\":84:89   */\n      dup2\n        /* \"#utility.yul\":77:90   */\n      iszero\n        /* \"#utility.yul\":70:91   */\n      iszero\n        /* \"#utility.yul\":59:91   */\n      swap1\n      pop\n        /* \"#utility.yul\":7:97   */\n      swap2\n      swap1\n      pop\n      jump\t// out\n        /* \"#utility.yul\":103:212   */\n    tag_64:\n        /* \"#utility.yul\":184:205   */\n      tag_87\n        /* \"#utility.yul\":199:204   */\n      dup2\n        /* \"#utility.yul\":184:205   */\n      tag_63\n      jump\t// in\n    tag_87:\n        /* \"#utility.yul\":179:182   */\n      dup3\n        /* \"#utility.yul\":172:206   */\n      mstore\n        /* \"#utility.yul\":103:212   */\n      pop\n      pop\n      jump\t// out\n        /* \"#utility.yul\":218:428   */\n    tag_17:\n        /* \"#utility.yul\":305:309   */\n      0x00\n        /* \"#utility.yul\":343:345   */\n      0x20\n        /* \"#utility.yul\":332:341   */\n      dup3\n        /* \"#utility.yul\":328:346   */\n      add\n        /* \"#utility.yul\":320:346   */\n      swap1\n      pop\n        /* \"#utility.yul\":356:421   */\n      tag_89\n        /* \"#utility.yul\":418:419   */\n      0x00\n        /* \"#utility.yul\":407:416   */\n      dup4\n        /* \"#utility.yul\":403:420   */\n      add\n        /* \"#utility.yul\":394:400   */\n      dup5\n        /* \"#utility.yul\":356:421   */\n      tag_64\n      jump\t// in\n    tag_89:\n        /* \"#utility.yul\":218:428   */\n      swap3\n      swap2\n      pop\n      pop\n      jump\t// out\n        /* \"#utility.yul\":434:511   */\n    tag_65:\n        /* \"#utility.yul\":471:478   */\n      0x00\n        /* \"#utility.yul\":500:505   */\n      dup2\n        /* \"#utility.yul\":489:505   */\n      swap1\n      pop\n        /* \"#utility.yul\":434:511   */\n      swap2\n      swap1\n      pop\n      jump\t// out\n        /* \"#utility.yul\":517:635   */\n    tag_66:\n        /* \"#utility.yul\":604:628   */\n      tag_92\n        /* \"#utility.yul\":622:627   */\n      dup2\n        /* \"#utility.yul\":604:628   */\n      tag_65\n      jump\t// in\n    tag_92:\n        /* \"#utility.yul\":599:602   */\n      dup3\n        /* \"#utility.yul\":592:629   */\n      mstore\n        /* \"#utility.yul\":517:635   */\n      pop\n      pop\n      jump\t// out\n        /* \"#utility.yul\":641:863   */\n    tag_21:\n        /* \"#utility.yul\":734:738   */\n      0x00\n        /* \"#utility.yul\":772:774   */\n      0x20\n        /* \"#utility.yul\":761:770   */\n      dup3\n        /* \"#utility.yul\":757:775   */\n      add\n        /* \"#utility.yul\":749:775   */\n      swap1\n      pop\n        /* \"#utility.yul\":785:856   */\n      tag_94\n        /* \"#utility.yul\":853:854   */\n      0x00\n        /* \"#utility.yul\":842:851   */\n      dup4\n        /* \"#utility.yul\":838:855   */\n      add\n        /* \"#utility.yul\":829:835   */\n      dup5\n        /* \"#utility.yul\":785:856   */\n      tag_66\n      jump\t// in\n    tag_94:\n        /* \"#utility.yul\":641:863   */\n      swap3\n      swap2\n      pop\n      pop\n      jump\t// out\n        /* \"#utility.yul\":869:995   */\n    tag_67:\n        /* \"#utility.yul\":906:913   */\n      0x00\n        /* \"#utility.yul\":946:988   */\n      0xffffffffffffffffffffffffffffffffffffffff\n        /* \"#utility.yul\":939:944   */\n      dup3\n        /* \"#utility.yul\":935:989   */\n      and\n        /* \"#utility.yul\":924:989   */\n      swap1\n      pop\n        /* \"#utility.yul\":869:995   */\n      swap2\n      swap1\n      pop\n      jump\t// out\n        /* \"#utility.yul\":1001:1097   */\n    tag_68:\n        /* \"#utility.yul\":1038:1045   */\n      0x00\n        /* \"#utility.yul\":1067:1091   */\n      tag_97\n        /* \"#utility.yul\":1085:1090   */\n      dup3\n        /* \"#utility.yul\":1067:1091   */\n      tag_67\n      jump\t// in\n    tag_97:\n        /* \"#utility.yul\":1056:1091   */\n      swap1\n      pop\n        /* \"#utility.yul\":1001:1097   */\n      swap2\n      swap1\n      pop\n      jump\t// out\n        /* \"#utility.yul\":1103:1221   */\n    tag_69:\n        /* \"#utility.yul\":1190:1214   */\n      tag_99\n        /* \"#utility.yul\":1208:1213   */\n      dup2\n        /* \"#utility.yul\":1190:1214   */\n      tag_68\n      jump\t// in\n    tag_99:\n        /* \"#utility.yul\":1185:1188   */\n      dup3\n        /* \"#utility.yul\":1178:1215   */\n      mstore\n        /* \"#utility.yul\":1103:1221   */\n      pop\n      pop\n      jump\t// out\n        /* \"#utility.yul\":1227:1449   */\n    tag_25:\n        /* \"#utility.yul\":1320:1324   */\n      0x00\n        /* \"#utility.yul\":1358:1360   */\n      0x20\n        /* \"#utility.yul\":1347:1356   */\n      dup3\n        /* \"#utility.yul\":1343:1361   */\n      add\n        /* \"#utility.yul\":1335:1361   */\n      swap1\n      pop\n        /* \"#utility.yul\":1371:1442   */\n      tag_101\n        /* \"#utility.yul\":1439:1440   */\n      0x00\n        /* \"#utility.yul\":1428:1437   */\n      dup4\n        /* \"#utility.yul\":1424:1441   */\n      add\n        /* \"#utility.yul\":1415:1421   */\n      dup5\n        /* \"#utility.yul\":1371:1442   */\n      tag_69\n      jump\t// in\n    tag_101:\n        /* \"#utility.yul\":1227:1449   */\n      swap3\n      swap2\n      pop\n      pop\n      jump\t// out\n        /* \"#utility.yul\":1455:1635   */\n    tag_59:\n        /* \"#utility.yul\":1503:1580   */\n      0x4e487b7100000000000000000000000000000000000000000000000000000000\n        /* \"#utility.yul\":1500:1501   */\n      0x00\n        /* \"#utility.yul\":1493:1581   */\n      mstore\n        /* \"#utility.yul\":1600:1604   */\n      0x21\n        /* \"#utility.yul\":1597:1598   */\n      0x04\n        /* \"#utility.yul\":1590:1605   */\n      mstore\n        /* \"#utility.yul\":1624:1628   */\n      0x24\n        /* \"#utility.yul\":1621:1622   */\n      0x00\n        /* \"#utility.yul\":1614:1629   */\n      revert\n        /* \"#utility.yul\":1641:1756   */\n    tag_70:\n        /* \"#utility.yul\":1724:1725   */\n      0x02\n        /* \"#utility.yul\":1717:1722   */\n      dup2\n        /* \"#utility.yul\":1714:1726   */\n      lt\n        /* \"#utility.yul\":1704:1750   */\n      tag_104\n      jumpi\n        /* \"#utility.yul\":1730:1748   */\n      tag_105\n      tag_59\n      jump\t// in\n    tag_105:\n        /* \"#utility.yul\":1704:1750   */\n    tag_104:\n        /* \"#utility.yul\":1641:1756   */\n      pop\n      jump\t// out\n        /* \"#utility.yul\":1762:1893   */\n    tag_71:\n        /* \"#utility.yul\":1809:1816   */\n      0x00\n        /* \"#utility.yul\":1838:1843   */\n      dup2\n        /* \"#utility.yul\":1827:1843   */\n      swap1\n      pop\n        /* \"#utility.yul\":1844:1887   */\n      tag_107\n        /* \"#utility.yul\":1881:1886   */\n      dup3\n        /* \"#utility.yul\":1844:1887   */\n      tag_70\n      jump\t// in\n    tag_107:\n        /* \"#utility.yul\":1762:1893   */\n      swap2\n      swap1\n      pop\n      jump\t// out\n        /* \"#utility.yul\":1899:2030   */\n    tag_72:\n        /* \"#utility.yul\":1957:1966   */\n      0x00\n        /* \"#utility.yul\":1990:2024   */\n      tag_109\n        /* \"#utility.yul\":2018:2023   */\n      dup3\n        /* \"#utility.yul\":1990:2024   */\n      tag_71\n      jump\t// in\n    tag_109:\n        /* \"#utility.yul\":1977:2024   */\n      swap1\n      pop\n        /* \"#utility.yul\":1899:2030   */\n      swap2\n      swap1\n      pop\n      jump\t// out\n        /* \"#utility.yul\":2036:2183   */\n    tag_73:\n        /* \"#utility.yul\":2131:2176   */\n      tag_111\n        /* \"#utility.yul\":2170:2175   */\n      dup2\n        /* \"#utility.yul\":2131:2176   */\n      tag_72\n      jump\t// in\n    tag_111:\n        /* \"#utility.yul\":2126:2129   */\n      dup3\n        /* \"#utility.yul\":2119:2177   */\n      mstore\n        /* \"#utility.yul\":2036:2183   */\n      pop\n      pop\n      jump\t// out\n        /* \"#utility.yul\":2189:2427   */\n    tag_29:\n        /* \"#utility.yul\":2290:2294   */\n      0x00\n        /* \"#utility.yul\":2328:2330   */\n      0x20\n        /* \"#utility.yul\":2317:2326   */\n      dup3\n        /* \"#utility.yul\":2313:2331   */\n      add\n        /* \"#utility.yul\":2305:2331   */\n      swap1\n      pop\n        /* \"#utility.yul\":2341:2420   */\n      tag_113\n        /* \"#utility.yul\":2417:2418   */\n      0x00\n        /* \"#utility.yul\":2406:2415   */\n      dup4\n        /* \"#utility.yul\":2402:2419   */\n      add\n        /* \"#utility.yul\":2393:2399   */\n      dup5\n        /* \"#utility.yul\":2341:2420   */\n      tag_73\n      jump\t// in\n    tag_113:\n        /* \"#utility.yul\":2189:2427   */\n      swap3\n      swap2\n      pop\n      pop\n      jump\t// out\n        /* \"#utility.yul\":2433:2532   */\n    tag_74:\n        /* \"#utility.yul\":2485:2491   */\n      0x00\n        /* \"#utility.yul\":2519:2524   */\n      dup2\n        /* \"#utility.yul\":2513:2525   */\n      mload\n        /* \"#utility.yul\":2503:2525   */\n      swap1\n      pop\n        /* \"#utility.yul\":2433:2532   */\n      swap2\n      swap1\n      pop\n      jump\t// out\n        /* \"#utility.yul\":2538:2707   */\n    tag_75:\n        /* \"#utility.yul\":2622:2633   */\n      0x00\n        /* \"#utility.yul\":2656:2662   */\n      dup3\n        /* \"#utility.yul\":2651:2654   */\n      dup3\n        /* \"#utility.yul\":2644:2663   */\n      mstore\n        /* \"#utility.yul\":2696:2700   */\n      0x20\n        /* \"#utility.yul\":2691:2694   */\n      dup3\n        /* \"#utility.yul\":2687:2701   */\n      add\n        /* \"#utility.yul\":2672:2701   */\n      swap1\n      pop\n        /* \"#utility.yul\":2538:2707   */\n      swap3\n      swap2\n      pop\n      pop\n      jump\t// out\n        /* \"#utility.yul\":2713:2852   */\n    tag_76:\n        /* \"#utility.yul\":2802:2808   */\n      dup3\n        /* \"#utility.yul\":2797:2800   */\n      dup2\n        /* \"#utility.yul\":2792:2795   */\n      dup4\n        /* \"#utility.yul\":2786:2809   */\n      mcopy\n        /* \"#utility.yul\":2843:2844   */\n      0x00\n        /* \"#utility.yul\":2834:2840   */\n      dup4\n        /* \"#utility.yul\":2829:2832   */\n      dup4\n        /* \"#utility.yul\":2825:2841   */\n      add\n        /* \"#utility.yul\":2818:2845   */\n      mstore\n        /* \"#utility.yul\":2713:2852   */\n      pop\n      pop\n      pop\n      jump\t// out\n        /* \"#utility.yul\":2858:2960   */\n    tag_77:\n        /* \"#utility.yul\":2899:2905   */\n      0x00\n        /* \"#utility.yul\":2950:2952   */\n      0x1f\n        /* \"#utility.yul\":2946:2953   */\n      not\n        /* \"#utility.yul\":2941:2943   */\n      0x1f\n        /* \"#utility.yul\":2934:2939   */\n      dup4\n        /* \"#utility.yul\":2930:2944   */\n      add\n        /* \"#utility.yul\":2926:2954   */\n      and\n        /* \"#utility.yul\":2916:2954   */\n      swap1\n      pop\n        /* \"#utility.yul\":2858:2960   */\n      swap2\n      swap1\n      pop\n      jump\t// out\n        /* \"#utility.yul\":2966:3343   */\n    tag_78:\n        /* \"#utility.yul\":3054:3057   */\n      0x00\n        /* \"#utility.yul\":3082:3121   */\n      tag_119\n        /* \"#utility.yul\":3115:3120   */\n      dup3\n        /* \"#utility.yul\":3082:3121   */\n      tag_74\n      jump\t// in\n    tag_119:\n        /* \"#utility.yul\":3137:3208   */\n      tag_120\n        /* \"#utility.yul\":3201:3207   */\n      dup2\n        /* \"#utility.yul\":3196:3199   */\n      dup6\n        /* \"#utility.yul\":3137:3208   */\n      tag_75\n      jump\t// in\n    tag_120:\n        /* \"#utility.yul\":3130:3208   */\n      swap4\n      pop\n        /* \"#utility.yul\":3217:3282   */\n      tag_121\n        /* \"#utility.yul\":3275:3281   */\n      dup2\n        /* \"#utility.yul\":3270:3273   */\n      dup6\n        /* \"#utility.yul\":3263:3267   */\n      0x20\n        /* \"#utility.yul\":3256:3261   */\n      dup7\n        /* \"#utility.yul\":3252:3268   */\n      add\n        /* \"#utility.yul\":3217:3282   */\n      tag_76\n      jump\t// in\n    tag_121:\n        /* \"#utility.yul\":3307:3336   */\n      tag_122\n        /* \"#utility.yul\":3329:3335   */\n      dup2\n        /* \"#utility.yul\":3307:3336   */\n      tag_77\n      jump\t// in\n    tag_122:\n        /* \"#utility.yul\":3302:3305   */\n      dup5\n        /* \"#utility.yul\":3298:3337   */\n      add\n        /* \"#utility.yul\":3291:3337   */\n      swap2\n      pop\n        /* \"#utility.yul\":3058:3343   */\n      pop\n        /* \"#utility.yul\":2966:3343   */\n      swap3\n      swap2\n      pop\n      pop\n      jump\t// out\n        /* \"#utility.yul\":3349:3662   */\n    tag_36:\n        /* \"#utility.yul\":3462:3466   */\n      0x00\n        /* \"#utility.yul\":3500:3502   */\n      0x20\n        /* \"#utility.yul\":3489:3498   */\n      dup3\n        /* \"#utility.yul\":3485:3503   */\n      add\n        /* \"#utility.yul\":3477:3503   */\n      swap1\n      pop\n        /* \"#utility.yul\":3549:3558   */\n      dup2\n        /* \"#utility.yul\":3543:3547   */\n      dup2\n        /* \"#utility.yul\":3539:3559   */\n      sub\n        /* \"#utility.yul\":3535:3536   */\n      0x00\n        /* \"#utility.yul\":3524:3533   */\n      dup4\n        /* \"#utility.yul\":3520:3537   */\n      add\n        /* \"#utility.yul\":3513:3560   */\n      mstore\n        /* \"#utility.yul\":3577:3655   */\n      tag_124\n        /* \"#utility.yul\":3650:3654   */\n      dup2\n        /* \"#utility.yul\":3641:3647   */\n      dup5\n        /* \"#utility.yul\":3577:3655   */\n      tag_78\n      jump\t// in\n    tag_124:\n        /* \"#utility.yul\":3569:3655   */\n      swap1\n      pop\n        /* \"#utility.yul\":3349:3662   */\n      swap3\n      swap2\n      pop\n      pop\n      jump\t// out\n        /* \"#utility.yul\":3668:3745   */\n    tag_79:\n        /* \"#utility.yul\":3705:3712   */\n      0x00\n        /* \"#utility.yul\":3734:3739   */\n      dup2\n        /* \"#utility.yul\":3723:3739   */\n      swap1\n      pop\n        /* \"#utility.yul\":3668:3745   */\n      swap2\n      swap1\n      pop\n      jump\t// out\n        /* \"#utility.yul\":3751:3869   */\n    tag_80:\n        /* \"#utility.yul\":3838:3862   */\n      tag_127\n        /* \"#utility.yul\":3856:3861   */\n      dup2\n        /* \"#utility.yul\":3838:3862   */\n      tag_79\n      jump\t// in\n    tag_127:\n        /* \"#utility.yul\":3833:3836   */\n      dup3\n        /* \"#utility.yul\":3826:3863   */\n      mstore\n        /* \"#utility.yul\":3751:3869   */\n      pop\n      pop\n      jump\t// out\n        /* \"#utility.yul\":3875:4097   */\n    tag_44:\n        /* \"#utility.yul\":3968:3972   */\n      0x00\n        /* \"#utility.yul\":4006:4008   */\n      0x20\n        /* \"#utility.yul\":3995:4004   */\n      dup3\n        /* \"#utility.yul\":3991:4009   */\n      add\n        /* \"#utility.yul\":3983:4009   */\n      swap1\n      pop\n        /* \"#utility.yul\":4019:4090   */\n      tag_129\n        /* \"#utility.yul\":4087:4088   */\n      0x00\n        /* \"#utility.yul\":4076:4085   */\n      dup4\n        /* \"#utility.yul\":4072:4089   */\n      add\n        /* \"#utility.yul\":4063:4069   */\n      dup5\n        /* \"#utility.yul\":4019:4090   */\n      tag_80\n      jump\t// in\n    tag_129:\n        /* \"#utility.yul\":3875:4097   */\n      swap3\n      swap2\n      pop\n      pop\n      jump\t// out\n        /* \"#utility.yul\":4103:4192   */\n    tag_81:\n        /* \"#utility.yul\":4137:4144   */\n      0x00\n        /* \"#utility.yul\":4180:4185   */\n      dup2\n        /* \"#utility.yul\":4177:4178   */\n      0x00\n        /* \"#utility.yul\":4166:4186   */\n      signextend\n        /* \"#utility.yul\":4155:4186   */\n      swap1\n      pop\n        /* \"#utility.yul\":4103:4192   */\n      swap2\n      swap1\n      pop\n      jump\t// out\n        /* \"#utility.yul\":4198:4307   */\n    tag_82:\n        /* \"#utility.yul\":4279:4300   */\n      tag_132\n        /* \"#utility.yul\":4294:4299   */\n      dup2\n        /* \"#utility.yul\":4279:4300   */\n      tag_81\n      jump\t// in\n    tag_132:\n        /* \"#utility.yul\":4274:4277   */\n      dup3\n        /* \"#utility.yul\":4267:4301   */\n      mstore\n        /* \"#utility.yul\":4198:4307   */\n      pop\n      pop\n      jump\t// out\n        /* \"#utility.yul\":4313:4523   */\n    tag_48:\n        /* \"#utility.yul\":4400:4404   */\n      0x00\n        /* \"#utility.yul\":4438:4440   */\n      0x20\n        /* \"#utility.yul\":4427:4436   */\n      dup3\n        /* \"#utility.yul\":4423:4441   */\n      add\n        /* \"#utility.yul\":4415:4441   */\n      swap1\n      pop\n        /* \"#utility.yul\":4451:4516   */\n      tag_134\n        /* \"#utility.yul\":4513:4514   */\n      0x00\n        /* \"#utility.yul\":4502:4511   */\n      dup4\n        /* \"#utility.yul\":4498:4515   */\n      add\n        /* \"#utility.yul\":4489:4495   */\n      dup5\n        /* \"#utility.yul\":4451:4516   */\n      tag_82\n      jump\t// in\n    tag_134:\n        /* \"#utility.yul\":4313:4523   */\n      swap3\n      swap2\n      pop\n      pop\n      jump\t// out\n        /* \"#utility.yul\":4529:4709   */\n    tag_83:\n        /* \"#utility.yul\":4577:4654   */\n      0x4e487b7100000000000000000000000000000000000000000000000000000000\n        /* \"#utility.yul\":4574:4575   */\n      0x00\n        /* \"#utility.yul\":4567:4655   */\n      mstore\n        /* \"#utility.yul\":4674:4678   */\n      0x22\n        /* \"#utility.yul\":4671:4672   */\n      0x04\n        /* \"#utility.yul\":4664:4679   */\n      mstore\n        /* \"#utility.yul\":4698:4702   */\n      0x24\n        /* \"#utility.yul\":4695:4696   */\n      0x00\n        /* \"#utility.yul\":4688:4703   */\n      revert\n        /* \"#utility.yul\":4715:5035   */\n    tag_51:\n        /* \"#utility.yul\":4759:4765   */\n      0x00\n        /* \"#utility.yul\":4796:4797   */\n      0x02\n        /* \"#utility.yul\":4790:4794   */\n      dup3\n        /* \"#utility.yul\":4786:4798   */\n      div\n        /* \"#utility.yul\":4776:4798   */\n      swap1\n      pop\n        /* \"#utility.yul\":4843:4844   */\n      0x01\n        /* \"#utility.yul\":4837:4841   */\n      dup3\n        /* \"#utility.yul\":4833:4845   */\n      and\n        /* \"#utility.yul\":4864:4882   */\n      dup1\n        /* \"#utility.yul\":4854:4935   */\n      tag_137\n      jumpi\n        /* \"#utility.yul\":4920:4924   */\n      0x7f\n        /* \"#utility.yul\":4912:4918   */\n      dup3\n        /* \"#utility.yul\":4908:4925   */\n      and\n        /* \"#utility.yul\":4898:4925   */\n      swap2\n      pop\n        /* \"#utility.yul\":4854:4935   */\n    tag_137:\n        /* \"#utility.yul\":4982:4984   */\n      0x20\n        /* \"#utility.yul\":4974:4980   */\n      dup3\n        /* \"#utility.yul\":4971:4985   */\n      lt\n        /* \"#utility.yul\":4951:4969   */\n      dup2\n        /* \"#utility.yul\":4948:4986   */\n      sub\n        /* \"#utility.yul\":4945:5029   */\n      tag_138\n      jumpi\n        /* \"#utility.yul\":5001:5019   */\n      tag_139\n      tag_83\n      jump\t// in\n    tag_139:\n        /* \"#utility.yul\":4945:5029   */\n    tag_138:\n        /* \"#utility.yul\":4766:5035   */\n      pop\n        /* \"#utility.yul\":4715:5035   */\n      swap2\n      swap1\n      pop\n      jump\t// out\n\n    auxdata: 0xa2646970667358221220aa8ff37cb0b6853e72ba884100d99a2ca407590965a033dd42df93052f52c93264736f6c634300081a0033\n}\n",
				"bytecode": {
					"linkReferences": {},
					"object": "60806040526005600155602d60035f6101000a81548160ff02191690835f0b60ff1602179055506040518060400160405280600f81526020017f6573746f206573207075626c69636f00000000000000000000000000000000008152506005908161006a919061038c565b50600160065f6101000a81548160ff021916908315150217905550604051602001610094906104af565b60405160208183030381529060405280519060200120600955734b20993bc481177ec7e8f571cecae8a9e22c02db600b5f6101000a81548173ffffffffffffffffffffffffffffffffffffffff021916908373ffffffffffffffffffffffffffffffffffffffff16021790555033600c5f6101000a81548173ffffffffffffffffffffffffffffffffffffffff021916908373ffffffffffffffffffffffffffffffffffffffff16021790555034801561014c575f80fd5b506104c3565b5f81519050919050565b7f4e487b71000000000000000000000000000000000000000000000000000000005f52604160045260245ffd5b7f4e487b71000000000000000000000000000000000000000000000000000000005f52602260045260245ffd5b5f60028204905060018216806101cd57607f821691505b6020821081036101e0576101df610189565b5b50919050565b5f819050815f5260205f209050919050565b5f6020601f8301049050919050565b5f82821b905092915050565b5f600883026102427fffffffffffffffffffffffffffffffffffffffffffffffffffffffffffffffff82610207565b61024c8683610207565b95508019841693508086168417925050509392505050565b5f819050919050565b5f819050919050565b5f61029061028b61028684610264565b61026d565b610264565b9050919050565b5f819050919050565b6102a983610276565b6102bd6102b582610297565b848454610213565b825550505050565b5f90565b6102d16102c5565b6102dc8184846102a0565b505050565b5b818110156102ff576102f45f826102c9565b6001810190506102e2565b5050565b601f82111561034457610315816101e6565b61031e846101f8565b8101602085101561032d578190505b610341610339856101f8565b8301826102e1565b50505b505050565b5f82821c905092915050565b5f6103645f1984600802610349565b1980831691505092915050565b5f61037c8383610355565b9150826002028217905092915050565b61039582610152565b67ffffffffffffffff8111156103ae576103ad61015c565b5b6103b882546101b6565b6103c3828285610303565b5f60209050601f8311600181146103f4575f84156103e2578287015190505b6103ec8582610371565b865550610453565b601f198416610402866101e6565b5f5b8281101561042957848901518255600182019150602085019450602081019050610404565b868310156104465784890151610442601f891682610355565b8355505b6001600288020188555050505b505050505050565b5f81905092915050565b7f4d616e6f6c6f00000000000000000000000000000000000000000000000000005f82015250565b5f61049960068361045b565b91506104a482610465565b600682019050919050565b5f6104b98261048d565b9150819050919050565b6105e7806104d05f395ff3fe608060405234801561000f575f80fd5b506004361061009c575f3560e01c80639340e345116100645780639340e34514610136578063af10c81014610154578063ba33ed7d1461015e578063cd97d84e14610168578063e2179b8e146101865761009c565b80630a6cda6a146100a05780632f52a82f146100be578063574f93e2146100dc5780637272eea1146100fa57806374b9c0dc14610118575b5f80fd5b6100a86101a4565b6040516100b59190610332565b60405180910390f35b6100c66101b6565b6040516100d39190610363565b60405180910390f35b6100e46101bc565b6040516100f191906103bb565b60405180910390f35b6101026101e1565b60405161010f9190610447565b60405180910390f35b6101206101f7565b60405161012d91906103bb565b60405180910390f35b61013e61021c565b60405161014b91906104d0565b60405180910390f35b61015c6102a8565b005b6101666102d5565b005b610170610301565b60405161017d9190610508565b60405180910390f35b61018e610307565b60405161019b919061053b565b60405180910390f35b60065f9054906101000a900460ff1681565b60015481565b600b5f9054906101000a900473ffffffffffffffffffffffffffffffffffffffff1681565b5f600c60149054906101000a900460ff16905090565b600c5f9054906101000a900473ffffffffffffffffffffffffffffffffffffffff1681565b6005805461022990610581565b80601f016020809104026020016040519081016040528092919081815260200182805461025590610581565b80156102a05780601f10610277576101008083540402835291602001916102a0565b820191905f5260205f20905b81548152906001019060200180831161028357829003601f168201915b505050505081565b6001600c60146101000a81548160ff021916908360018111156102ce576102cd6103d4565b5b0217905550565b5f600c60146101000a81548160ff021916908360018111156102fa576102f96103d4565b5b0217905550565b60095481565b60035f9054906101000a90045f0b81565b5f8115159050919050565b61032c81610318565b82525050565b5f6020820190506103455f830184610323565b92915050565b5f819050919050565b61035d8161034b565b82525050565b5f6020820190506103765f830184610354565b92915050565b5f73ffffffffffffffffffffffffffffffffffffffff82169050919050565b5f6103a58261037c565b9050919050565b6103b58161039b565b82525050565b5f6020820190506103ce5f8301846103ac565b92915050565b7f4e487b71000000000000000000000000000000000000000000000000000000005f52602160045260245ffd5b60028110610412576104116103d4565b5b50565b5f81905061042282610401565b919050565b5f61043182610415565b9050919050565b61044181610427565b82525050565b5f60208201905061045a5f830184610438565b92915050565b5f81519050919050565b5f82825260208201905092915050565b8281835e5f83830152505050565b5f601f19601f8301169050919050565b5f6104a282610460565b6104ac818561046a565b93506104bc81856020860161047a565b6104c581610488565b840191505092915050565b5f6020820190508181035f8301526104e88184610498565b905092915050565b5f819050919050565b610502816104f0565b82525050565b5f60208201905061051b5f8301846104f9565b92915050565b5f815f0b9050919050565b61053581610521565b82525050565b5f60208201905061054e5f83018461052c565b92915050565b7f4e487b71000000000000000000000000000000000000000000000000000000005f52602260045260245ffd5b5f600282049050600182168061059857607f821691505b6020821081036105ab576105aa610554565b5b5091905056fea2646970667358221220aa8ff37cb0b6853e72ba884100d99a2ca407590965a033dd42df93052f52c93264736f6c634300081a0033",
					"opcodes": "PUSH1 0x80 PUSH1 0x40 MSTORE PUSH1 0x5 PUSH1 0x1 SSTORE PUSH1 0x2D PUSH1 0x3 PUSH0 PUSH2 0x100 EXP DUP2 SLOAD DUP2 PUSH1 0xFF MUL NOT AND SWAP1 DUP4 PUSH0 SIGNEXTEND PUSH1 0xFF AND MUL OR SWAP1 SSTORE POP PUSH1 0x40 MLOAD DUP1 PUSH1 0x40 ADD PUSH1 0x40 MSTORE DUP1 PUSH1 0xF DUP2 MSTORE PUSH1 0x20 ADD PUSH32 0x6573746F206573207075626C69636F0000000000000000000000000000000000 DUP2 MSTORE POP PUSH1 0x5 SWAP1 DUP2 PUSH2 0x6A SWAP2 SWAP1 PUSH2 0x38C JUMP JUMPDEST POP PUSH1 0x1 PUSH1 0x6 PUSH0 PUSH2 0x100 EXP DUP2 SLOAD DUP2 PUSH1 0xFF MUL NOT AND SWAP1 DUP4 ISZERO ISZERO MUL OR SWAP1 SSTORE POP PUSH1 0x40 MLOAD PUSH1 0x20 ADD PUSH2 0x94 SWAP1 PUSH2 0x4AF JUMP JUMPDEST PUSH1 0x40 MLOAD PUSH1 0x20 DUP2 DUP4 SUB SUB DUP2 MSTORE SWAP1 PUSH1 0x40 MSTORE DUP1 MLOAD SWAP1 PUSH1 0x20 ADD KECCAK256 PUSH1 0x9 SSTORE PUSH20 0x4B20993BC481177EC7E8F571CECAE8A9E22C02DB PUSH1 0xB PUSH0 PUSH2 0x100 EXP DUP2 SLOAD DUP2 PUSH20 0xFFFFFFFFFFFFFFFFFFFFFFFFFFFFFFFFFFFFFFFF MUL NOT AND SWAP1 DUP4 PUSH20 0xFFFFFFFFFFFFFFFFFFFFFFFFFFFFFFFFFFFFFFFF AND MUL OR SWAP1 SSTORE POP CALLER PUSH1 0xC PUSH0 PUSH2 0x100 EXP DUP2 SLOAD DUP2 PUSH20 0xFFFFFFFFFFFFFFFFFFFFFFFFFFFFFFFFFFFFFFFF MUL NOT AND SWAP1 DUP4 PUSH20 0xFFFFFFFFFFFFFFFFFFFFFFFFFFFFFFFFFFFFFFFF AND MUL OR SWAP1 SSTORE POP CALLVALUE DUP1 ISZERO PUSH2 0x14C JUMPI PUSH0 DUP1 REVERT JUMPDEST POP PUSH2 0x4C3 JUMP JUMPDEST PUSH0 DUP2 MLOAD SWAP1 POP SWAP2 SWAP1 POP JUMP JUMPDEST PUSH32 0x4E487B7100000000000000000000000000000000000000000000000000000000 PUSH0 MSTORE PUSH1 0x41 PUSH1 0x4 MSTORE PUSH1 0x24 PUSH0 REVERT JUMPDEST PUSH32 0x4E487B7100000000000000000000000000000000000000000000000000000000 PUSH0 MSTORE PUSH1 0x22 PUSH1 0x4 MSTORE PUSH1 0x24 PUSH0 REVERT JUMPDEST PUSH0 PUSH1 0x2 DUP3 DIV SWAP1 POP PUSH1 0x1 DUP3 AND DUP1 PUSH2 0x1CD JUMPI PUSH1 0x7F DUP3 AND SWAP2 POP JUMPDEST PUSH1 0x20 DUP3 LT DUP2 SUB PUSH2 0x1E0 JUMPI PUSH2 0x1DF PUSH2 0x189 JUMP JUMPDEST JUMPDEST POP SWAP2 SWAP1 POP JUMP JUMPDEST PUSH0 DUP2 SWAP1 POP DUP2 PUSH0 MSTORE PUSH1 0x20 PUSH0 KECCAK256 SWAP1 POP SWAP2 SWAP1 POP JUMP JUMPDEST PUSH0 PUSH1 0x20 PUSH1 0x1F DUP4 ADD DIV SWAP1 POP SWAP2 SWAP1 POP JUMP JUMPDEST PUSH0 DUP3 DUP3 SHL SWAP1 POP SWAP3 SWAP2 POP POP JUMP JUMPDEST PUSH0 PUSH1 0x8 DUP4 MUL PUSH2 0x242 PUSH32 0xFFFFFFFFFFFFFFFFFFFFFFFFFFFFFFFFFFFFFFFFFFFFFFFFFFFFFFFFFFFFFFFF DUP3 PUSH2 0x207 JUMP JUMPDEST PUSH2 0x24C DUP7 DUP4 PUSH2 0x207 JUMP JUMPDEST SWAP6 POP DUP1 NOT DUP5 AND SWAP4 POP DUP1 DUP7 AND DUP5 OR SWAP3 POP POP POP SWAP4 SWAP3 POP POP POP JUMP JUMPDEST PUSH0 DUP2 SWAP1 POP SWAP2 SWAP1 POP JUMP JUMPDEST PUSH0 DUP2 SWAP1 POP SWAP2 SWAP1 POP JUMP JUMPDEST PUSH0 PUSH2 0x290 PUSH2 0x28B PUSH2 0x286 DUP5 PUSH2 0x264 JUMP JUMPDEST PUSH2 0x26D JUMP JUMPDEST PUSH2 0x264 JUMP JUMPDEST SWAP1 POP SWAP2 SWAP1 POP JUMP JUMPDEST PUSH0 DUP2 SWAP1 POP SWAP2 SWAP1 POP JUMP JUMPDEST PUSH2 0x2A9 DUP4 PUSH2 0x276 JUMP JUMPDEST PUSH2 0x2BD PUSH2 0x2B5 DUP3 PUSH2 0x297 JUMP JUMPDEST DUP5 DUP5 SLOAD PUSH2 0x213 JUMP JUMPDEST DUP3 SSTORE POP POP POP POP JUMP JUMPDEST PUSH0 SWAP1 JUMP JUMPDEST PUSH2 0x2D1 PUSH2 0x2C5 JUMP JUMPDEST PUSH2 0x2DC DUP2 DUP5 DUP5 PUSH2 0x2A0 JUMP JUMPDEST POP POP POP JUMP JUMPDEST JUMPDEST DUP2 DUP2 LT ISZERO PUSH2 0x2FF JUMPI PUSH2 0x2F4 PUSH0 DUP3 PUSH2 0x2C9 JUMP JUMPDEST PUSH1 0x1 DUP2 ADD SWAP1 POP PUSH2 0x2E2 JUMP JUMPDEST POP POP JUMP JUMPDEST PUSH1 0x1F DUP3 GT ISZERO PUSH2 0x344 JUMPI PUSH2 0x315 DUP2 PUSH2 0x1E6 JUMP JUMPDEST PUSH2 0x31E DUP5 PUSH2 0x1F8 JUMP JUMPDEST DUP2 ADD PUSH1 0x20 DUP6 LT ISZERO PUSH2 0x32D JUMPI DUP2 SWAP1 POP JUMPDEST PUSH2 0x341 PUSH2 0x339 DUP6 PUSH2 0x1F8 JUMP JUMPDEST DUP4 ADD DUP3 PUSH2 0x2E1 JUMP JUMPDEST POP POP JUMPDEST POP POP POP JUMP JUMPDEST PUSH0 DUP3 DUP3 SHR SWAP1 POP SWAP3 SWAP2 POP POP JUMP JUMPDEST PUSH0 PUSH2 0x364 PUSH0 NOT DUP5 PUSH1 0x8 MUL PUSH2 0x349 JUMP JUMPDEST NOT DUP1 DUP4 AND SWAP2 POP POP SWAP3 SWAP2 POP POP JUMP JUMPDEST PUSH0 PUSH2 0x37C DUP4 DUP4 PUSH2 0x355 JUMP JUMPDEST SWAP2 POP DUP3 PUSH1 0x2 MUL DUP3 OR SWAP1 POP SWAP3 SWAP2 POP POP JUMP JUMPDEST PUSH2 0x395 DUP3 PUSH2 0x152 JUMP JUMPDEST PUSH8 0xFFFFFFFFFFFFFFFF DUP2 GT ISZERO PUSH2 0x3AE JUMPI PUSH2 0x3AD PUSH2 0x15C JUMP JUMPDEST JUMPDEST PUSH2 0x3B8 DUP3 SLOAD PUSH2 0x1B6 JUMP JUMPDEST PUSH2 0x3C3 DUP3 DUP3 DUP6 PUSH2 0x303 JUMP JUMPDEST PUSH0 PUSH1 0x20 SWAP1 POP PUSH1 0x1F DUP4 GT PUSH1 0x1 DUP2 EQ PUSH2 0x3F4 JUMPI PUSH0 DUP5 ISZERO PUSH2 0x3E2 JUMPI DUP3 DUP8 ADD MLOAD SWAP1 POP JUMPDEST PUSH2 0x3EC DUP6 DUP3 PUSH2 0x371 JUMP JUMPDEST DUP7 SSTORE POP PUSH2 0x453 JUMP JUMPDEST PUSH1 0x1F NOT DUP5 AND PUSH2 0x402 DUP7 PUSH2 0x1E6 JUMP JUMPDEST PUSH0 JUMPDEST DUP3 DUP2 LT ISZERO PUSH2 0x429 JUMPI DUP5 DUP10 ADD MLOAD DUP3 SSTORE PUSH1 0x1 DUP3 ADD SWAP2 POP PUSH1 0x20 DUP6 ADD SWAP5 POP PUSH1 0x20 DUP2 ADD SWAP1 POP PUSH2 0x404 JUMP JUMPDEST DUP7 DUP4 LT ISZERO PUSH2 0x446 JUMPI DUP5 DUP10 ADD MLOAD PUSH2 0x442 PUSH1 0x1F DUP10 AND DUP3 PUSH2 0x355 JUMP JUMPDEST DUP4 SSTORE POP JUMPDEST PUSH1 0x1 PUSH1 0x2 DUP9 MUL ADD DUP9 SSTORE POP POP POP JUMPDEST POP POP POP POP POP POP JUMP JUMPDEST PUSH0 DUP2 SWAP1 POP SWAP3 SWAP2 POP POP JUMP JUMPDEST PUSH32 0x4D616E6F6C6F0000000000000000000000000000000000000000000000000000 PUSH0 DUP3 ADD MSTORE POP JUMP JUMPDEST PUSH0 PUSH2 0x499 PUSH1 0x6 DUP4 PUSH2 0x45B JUMP JUMPDEST SWAP2 POP PUSH2 0x4A4 DUP3 PUSH2 0x465 JUMP JUMPDEST PUSH1 0x6 DUP3 ADD SWAP1 POP SWAP2 SWAP1 POP JUMP JUMPDEST PUSH0 PUSH2 0x4B9 DUP3 PUSH2 0x48D JUMP JUMPDEST SWAP2 POP DUP2 SWAP1 POP SWAP2 SWAP1 POP JUMP JUMPDEST PUSH2 0x5E7 DUP1 PUSH2 0x4D0 PUSH0 CODECOPY PUSH0 RETURN INVALID PUSH1 0x80 PUSH1 0x40 MSTORE CALLVALUE DUP1 ISZERO PUSH2 0xF JUMPI PUSH0 DUP1 REVERT JUMPDEST POP PUSH1 0x4 CALLDATASIZE LT PUSH2 0x9C JUMPI PUSH0 CALLDATALOAD PUSH1 0xE0 SHR DUP1 PUSH4 0x9340E345 GT PUSH2 0x64 JUMPI DUP1 PUSH4 0x9340E345 EQ PUSH2 0x136 JUMPI DUP1 PUSH4 0xAF10C810 EQ PUSH2 0x154 JUMPI DUP1 PUSH4 0xBA33ED7D EQ PUSH2 0x15E JUMPI DUP1 PUSH4 0xCD97D84E EQ PUSH2 0x168 JUMPI DUP1 PUSH4 0xE2179B8E EQ PUSH2 0x186 JUMPI PUSH2 0x9C JUMP JUMPDEST DUP1 PUSH4 0xA6CDA6A EQ PUSH2 0xA0 JUMPI DUP1 PUSH4 0x2F52A82F EQ PUSH2 0xBE JUMPI DUP1 PUSH4 0x574F93E2 EQ PUSH2 0xDC JUMPI DUP1 PUSH4 0x7272EEA1 EQ PUSH2 0xFA JUMPI DUP1 PUSH4 0x74B9C0DC EQ PUSH2 0x118 JUMPI JUMPDEST PUSH0 DUP1 REVERT JUMPDEST PUSH2 0xA8 PUSH2 0x1A4 JUMP JUMPDEST PUSH1 0x40 MLOAD PUSH2 0xB5 SWAP2 SWAP1 PUSH2 0x332 JUMP JUMPDEST PUSH1 0x40 MLOAD DUP1 SWAP2 SUB SWAP1 RETURN JUMPDEST PUSH2 0xC6 PUSH2 0x1B6 JUMP JUMPDEST PUSH1 0x40 MLOAD PUSH2 0xD3 SWAP2 SWAP1 PUSH2 0x363 JUMP JUMPDEST PUSH1 0x40 MLOAD DUP1 SWAP2 SUB SWAP1 RETURN JUMPDEST PUSH2 0xE4 PUSH2 0x1BC JUMP JUMPDEST PUSH1 0x40 MLOAD PUSH2 0xF1 SWAP2 SWAP1 PUSH2 0x3BB JUMP JUMPDEST PUSH1 0x40 MLOAD DUP1 SWAP2 SUB SWAP1 RETURN JUMPDEST PUSH2 0x102 PUSH2 0x1E1 JUMP JUMPDEST PUSH1 0x40 MLOAD PUSH2 0x10F SWAP2 SWAP1 PUSH2 0x447 JUMP JUMPDEST PUSH1 0x40 MLOAD DUP1 SWAP2 SUB SWAP1 RETURN JUMPDEST PUSH2 0x120 PUSH2 0x1F7 JUMP JUMPDEST PUSH1 0x40 MLOAD PUSH2 0x12D SWAP2 SWAP1 PUSH2 0x3BB JUMP JUMPDEST PUSH1 0x40 MLOAD DUP1 SWAP2 SUB SWAP1 RETURN JUMPDEST PUSH2 0x13E PUSH2 0x21C JUMP JUMPDEST PUSH1 0x40 MLOAD PUSH2 0x14B SWAP2 SWAP1 PUSH2 0x4D0 JUMP JUMPDEST PUSH1 0x40 MLOAD DUP1 SWAP2 SUB SWAP1 RETURN JUMPDEST PUSH2 0x15C PUSH2 0x2A8 JUMP JUMPDEST STOP JUMPDEST PUSH2 0x166 PUSH2 0x2D5 JUMP JUMPDEST STOP JUMPDEST PUSH2 0x170 PUSH2 0x301 JUMP JUMPDEST PUSH1 0x40 MLOAD PUSH2 0x17D SWAP2 SWAP1 PUSH2 0x508 JUMP JUMPDEST PUSH1 0x40 MLOAD DUP1 SWAP2 SUB SWAP1 RETURN JUMPDEST PUSH2 0x18E PUSH2 0x307 JUMP JUMPDEST PUSH1 0x40 MLOAD PUSH2 0x19B SWAP2 SWAP1 PUSH2 0x53B JUMP JUMPDEST PUSH1 0x40 MLOAD DUP1 SWAP2 SUB SWAP1 RETURN JUMPDEST PUSH1 0x6 PUSH0 SWAP1 SLOAD SWAP1 PUSH2 0x100 EXP SWAP1 DIV PUSH1 0xFF AND DUP2 JUMP JUMPDEST PUSH1 0x1 SLOAD DUP2 JUMP JUMPDEST PUSH1 0xB PUSH0 SWAP1 SLOAD SWAP1 PUSH2 0x100 EXP SWAP1 DIV PUSH20 0xFFFFFFFFFFFFFFFFFFFFFFFFFFFFFFFFFFFFFFFF AND DUP2 JUMP JUMPDEST PUSH0 PUSH1 0xC PUSH1 0x14 SWAP1 SLOAD SWAP1 PUSH2 0x100 EXP SWAP1 DIV PUSH1 0xFF AND SWAP1 POP SWAP1 JUMP JUMPDEST PUSH1 0xC PUSH0 SWAP1 SLOAD SWAP1 PUSH2 0x100 EXP SWAP1 DIV PUSH20 0xFFFFFFFFFFFFFFFFFFFFFFFFFFFFFFFFFFFFFFFF AND DUP2 JUMP JUMPDEST PUSH1 0x5 DUP1 SLOAD PUSH2 0x229 SWAP1 PUSH2 0x581 JUMP JUMPDEST DUP1 PUSH1 0x1F ADD PUSH1 0x20 DUP1 SWAP2 DIV MUL PUSH1 0x20 ADD PUSH1 0x40 MLOAD SWAP1 DUP2 ADD PUSH1 0x40 MSTORE DUP1 SWAP3 SWAP2 SWAP1 DUP2 DUP2 MSTORE PUSH1 0x20 ADD DUP3 DUP1 SLOAD PUSH2 0x255 SWAP1 PUSH2 0x581 JUMP JUMPDEST DUP1 ISZERO PUSH2 0x2A0 JUMPI DUP1 PUSH1 0x1F LT PUSH2 0x277 JUMPI PUSH2 0x100 DUP1 DUP4 SLOAD DIV MUL DUP4 MSTORE SWAP2 PUSH1 0x20 ADD SWAP2 PUSH2 0x2A0 JUMP JUMPDEST DUP3 ADD SWAP2 SWAP1 PUSH0 MSTORE PUSH1 0x20 PUSH0 KECCAK256 SWAP1 JUMPDEST DUP2 SLOAD DUP2 MSTORE SWAP1 PUSH1 0x1 ADD SWAP1 PUSH1 0x20 ADD DUP1 DUP4 GT PUSH2 0x283 JUMPI DUP3 SWAP1 SUB PUSH1 0x1F AND DUP3 ADD SWAP2 JUMPDEST POP POP POP POP POP DUP2 JUMP JUMPDEST PUSH1 0x1 PUSH1 0xC PUSH1 0x14 PUSH2 0x100 EXP DUP2 SLOAD DUP2 PUSH1 0xFF MUL NOT AND SWAP1 DUP4 PUSH1 0x1 DUP2 GT ISZERO PUSH2 0x2CE JUMPI PUSH2 0x2CD PUSH2 0x3D4 JUMP JUMPDEST JUMPDEST MUL OR SWAP1 SSTORE POP JUMP JUMPDEST PUSH0 PUSH1 0xC PUSH1 0x14 PUSH2 0x100 EXP DUP2 SLOAD DUP2 PUSH1 0xFF MUL NOT AND SWAP1 DUP4 PUSH1 0x1 DUP2 GT ISZERO PUSH2 0x2FA JUMPI PUSH2 0x2F9 PUSH2 0x3D4 JUMP JUMPDEST JUMPDEST MUL OR SWAP1 SSTORE POP JUMP JUMPDEST PUSH1 0x9 SLOAD DUP2 JUMP JUMPDEST PUSH1 0x3 PUSH0 SWAP1 SLOAD SWAP1 PUSH2 0x100 EXP SWAP1 DIV PUSH0 SIGNEXTEND DUP2 JUMP JUMPDEST PUSH0 DUP2 ISZERO ISZERO SWAP1 POP SWAP2 SWAP1 POP JUMP JUMPDEST PUSH2 0x32C DUP2 PUSH2 0x318 JUMP JUMPDEST DUP3 MSTORE POP POP JUMP JUMPDEST PUSH0 PUSH1 0x20 DUP3 ADD SWAP1 POP PUSH2 0x345 PUSH0 DUP4 ADD DUP5 PUSH2 0x323 JUMP JUMPDEST SWAP3 SWAP2 POP POP JUMP JUMPDEST PUSH0 DUP2 SWAP1 POP SWAP2 SWAP1 POP JUMP JUMPDEST PUSH2 0x35D DUP2 PUSH2 0x34B JUMP JUMPDEST DUP3 MSTORE POP POP JUMP JUMPDEST PUSH0 PUSH1 0x20 DUP3 ADD SWAP1 POP PUSH2 0x376 PUSH0 DUP4 ADD DUP5 PUSH2 0x354 JUMP JUMPDEST SWAP3 SWAP2 POP POP JUMP JUMPDEST PUSH0 PUSH20 0xFFFFFFFFFFFFFFFFFFFFFFFFFFFFFFFFFFFFFFFF DUP3 AND SWAP1 POP SWAP2 SWAP1 POP JUMP JUMPDEST PUSH0 PUSH2 0x3A5 DUP3 PUSH2 0x37C JUMP JUMPDEST SWAP1 POP SWAP2 SWAP1 POP JUMP JUMPDEST PUSH2 0x3B5 DUP2 PUSH2 0x39B JUMP JUMPDEST DUP3 MSTORE POP POP JUMP JUMPDEST PUSH0 PUSH1 0x20 DUP3 ADD SWAP1 POP PUSH2 0x3CE PUSH0 DUP4 ADD DUP5 PUSH2 0x3AC JUMP JUMPDEST SWAP3 SWAP2 POP POP JUMP JUMPDEST PUSH32 0x4E487B7100000000000000000000000000000000000000000000000000000000 PUSH0 MSTORE PUSH1 0x21 PUSH1 0x4 MSTORE PUSH1 0x24 PUSH0 REVERT JUMPDEST PUSH1 0x2 DUP2 LT PUSH2 0x412 JUMPI PUSH2 0x411 PUSH2 0x3D4 JUMP JUMPDEST JUMPDEST POP JUMP JUMPDEST PUSH0 DUP2 SWAP1 POP PUSH2 0x422 DUP3 PUSH2 0x401 JUMP JUMPDEST SWAP2 SWAP1 POP JUMP JUMPDEST PUSH0 PUSH2 0x431 DUP3 PUSH2 0x415 JUMP JUMPDEST SWAP1 POP SWAP2 SWAP1 POP JUMP JUMPDEST PUSH2 0x441 DUP2 PUSH2 0x427 JUMP JUMPDEST DUP3 MSTORE POP POP JUMP JUMPDEST PUSH0 PUSH1 0x20 DUP3 ADD SWAP1 POP PUSH2 0x45A PUSH0 DUP4 ADD DUP5 PUSH2 0x438 JUMP JUMPDEST SWAP3 SWAP2 POP POP JUMP JUMPDEST PUSH0 DUP2 MLOAD SWAP1 POP SWAP2 SWAP1 POP JUMP JUMPDEST PUSH0 DUP3 DUP3 MSTORE PUSH1 0x20 DUP3 ADD SWAP1 POP SWAP3 SWAP2 POP POP JUMP JUMPDEST DUP3 DUP2 DUP4 MCOPY PUSH0 DUP4 DUP4 ADD MSTORE POP POP POP JUMP JUMPDEST PUSH0 PUSH1 0x1F NOT PUSH1 0x1F DUP4 ADD AND SWAP1 POP SWAP2 SWAP1 POP JUMP JUMPDEST PUSH0 PUSH2 0x4A2 DUP3 PUSH2 0x460 JUMP JUMPDEST PUSH2 0x4AC DUP2 DUP6 PUSH2 0x46A JUMP JUMPDEST SWAP4 POP PUSH2 0x4BC DUP2 DUP6 PUSH1 0x20 DUP7 ADD PUSH2 0x47A JUMP JUMPDEST PUSH2 0x4C5 DUP2 PUSH2 0x488 JUMP JUMPDEST DUP5 ADD SWAP2 POP POP SWAP3 SWAP2 POP POP JUMP JUMPDEST PUSH0 PUSH1 0x20 DUP3 ADD SWAP1 POP DUP2 DUP2 SUB PUSH0 DUP4 ADD MSTORE PUSH2 0x4E8 DUP2 DUP5 PUSH2 0x498 JUMP JUMPDEST SWAP1 POP SWAP3 SWAP2 POP POP JUMP JUMPDEST PUSH0 DUP2 SWAP1 POP SWAP2 SWAP1 POP JUMP JUMPDEST PUSH2 0x502 DUP2 PUSH2 0x4F0 JUMP JUMPDEST DUP3 MSTORE POP POP JUMP JUMPDEST PUSH0 PUSH1 0x20 DUP3 ADD SWAP1 POP PUSH2 0x51B PUSH0 DUP4 ADD DUP5 PUSH2 0x4F9 JUMP JUMPDEST SWAP3 SWAP2 POP POP JUMP JUMPDEST PUSH0 DUP2 PUSH0 SIGNEXTEND SWAP1 POP SWAP2 SWAP1 POP JUMP JUMPDEST PUSH2 0x535 DUP2 PUSH2 0x521 JUMP JUMPDEST DUP3 MSTORE POP POP JUMP JUMPDEST PUSH0 PUSH1 0x20 DUP3 ADD SWAP1 POP PUSH2 0x54E PUSH0 DUP4 ADD DUP5 PUSH2 0x52C JUMP JUMPDEST SWAP3 SWAP2 POP POP JUMP JUMPDEST PUSH32 0x4E487B7100000000000000000000000000000000000000000000000000000000 PUSH0 MSTORE PUSH1 0x22 PUSH1 0x4 MSTORE PUSH1 0x24 PUSH0 REVERT JUMPDEST PUSH0 PUSH1 0x2 DUP3 DIV SWAP1 POP PUSH1 0x1 DUP3 AND DUP1 PUSH2 0x598 JUMPI PUSH1 0x7F DUP3 AND SWAP2 POP JUMPDEST PUSH1 0x20 DUP3 LT DUP2 SUB PUSH2 0x5AB JUMPI PUSH2 0x5AA PUSH2 0x554 JUMP JUMPDEST JUMPDEST POP SWAP2 SWAP1 POP JUMP INVALID LOG2 PUSH5 0x6970667358 0x22 SLT KECCAK256 0xAA DUP16 RETURN PUSH29 0xB0B6853E72BA884100D99A2CA407590965A033DD42DF93052F52C93264 PUSH20 0x6F6C634300081A00330000000000000000000000 "
				},
				"gasEstimates": {
					"creation": {
						"codeDepositCost": "302200",
						"executionCost": "infinite",
						"totalCost": "infinite"
					},
					"external": {
						"booleano()": "2467",
						"direccion1()": "2553",
						"direccion2()": "2597",
						"displayState()": "2679",
						"entB()": "2448",
						"g()": "2556",
						"hashing()": "2491",
						"letras()": "infinite",
						"turnOff()": "24502",
						"turnOn()": "24523"
					}
				},
				"methodIdentifiers": {
					"booleano()": "0a6cda6a",
					"direccion1()": "574f93e2",
					"direccion2()": "74b9c0dc",
					"displayState()": "7272eea1",
					"entB()": "2f52a82f",
					"g()": "e2179b8e",
					"hashing()": "cd97d84e",
					"letras()": "9340e345",
					"turnOff()": "af10c810",
					"turnOn()": "ba33ed7d"
				}
			},
			"storageLayout": {
				"storage": [
					{
						"astId": 3,
						"contract": "contracts/2_variables_modificadores.sol:variables_modifiers",
						"label": "entero",
						"offset": 0,
						"slot": "0",
						"type": "t_uint256"
					},
					{
						"astId": 6,
						"contract": "contracts/2_variables_modificadores.sol:variables_modifiers",
						"label": "entB",
						"offset": 0,
						"slot": "1",
						"type": "t_uint256"
					},
					{
						"astId": 8,
						"contract": "contracts/2_variables_modificadores.sol:variables_modifiers",
						"label": "a",
						"offset": 0,
						"slot": "2",
						"type": "t_int256"
					},
					{
						"astId": 11,
						"contract": "contracts/2_variables_modificadores.sol:variables_modifiers",
						"label": "g",
						"offset": 0,
						"slot": "3",
						"type": "t_int8"
					},
					{
						"astId": 13,
						"contract": "contracts/2_variables_modificadores.sol:variables_modifiers",
						"label": "str",
						"offset": 0,
						"slot": "4",
						"type": "t_string_storage"
					},
					{
						"astId": 16,
						"contract": "contracts/2_variables_modificadores.sol:variables_modifiers",
						"label": "letras",
						"offset": 0,
						"slot": "5",
						"type": "t_string_storage"
					},
					{
						"astId": 19,
						"contract": "contracts/2_variables_modificadores.sol:variables_modifiers",
						"label": "booleano",
						"offset": 0,
						"slot": "6",
						"type": "t_bool"
					},
					{
						"astId": 21,
						"contract": "contracts/2_variables_modificadores.sol:variables_modifiers",
						"label": "byte1",
						"offset": 0,
						"slot": "7",
						"type": "t_bytes32"
					},
					{
						"astId": 23,
						"contract": "contracts/2_variables_modificadores.sol:variables_modifiers",
						"label": "byte2",
						"offset": 0,
						"slot": "8",
						"type": "t_bytes4"
					},
					{
						"astId": 25,
						"contract": "contracts/2_variables_modificadores.sol:variables_modifiers",
						"label": "byte3",
						"offset": 4,
						"slot": "8",
						"type": "t_bytes1"
					},
					{
						"astId": 33,
						"contract": "contracts/2_variables_modificadores.sol:variables_modifiers",
						"label": "hashing",
						"offset": 0,
						"slot": "9",
						"type": "t_bytes32"
					},
					{
						"astId": 35,
						"contract": "contracts/2_variables_modificadores.sol:variables_modifiers",
						"label": "mi_direccion",
						"offset": 0,
						"slot": "10",
						"type": "t_address"
					},
					{
						"astId": 38,
						"contract": "contracts/2_variables_modificadores.sol:variables_modifiers",
						"label": "direccion1",
						"offset": 0,
						"slot": "11",
						"type": "t_address"
					},
					{
						"astId": 42,
						"contract": "contracts/2_variables_modificadores.sol:variables_modifiers",
						"label": "direccion2",
						"offset": 0,
						"slot": "12",
						"type": "t_address"
					},
					{
						"astId": 48,
						"contract": "contracts/2_variables_modificadores.sol:variables_modifiers",
						"label": "state",
						"offset": 20,
						"slot": "12",
						"type": "t_enum(options)45"
					}
				],
				"types": {
					"t_address": {
						"encoding": "inplace",
						"label": "address",
						"numberOfBytes": "20"
					},
					"t_bool": {
						"encoding": "inplace",
						"label": "bool",
						"numberOfBytes": "1"
					},
					"t_bytes1": {
						"encoding": "inplace",
						"label": "bytes1",
						"numberOfBytes": "1"
					},
					"t_bytes32": {
						"encoding": "inplace",
						"label": "bytes32",
						"numberOfBytes": "32"
					},
					"t_bytes4": {
						"encoding": "inplace",
						"label": "bytes4",
						"numberOfBytes": "4"
					},
					"t_enum(options)45": {
						"encoding": "inplace",
						"label": "enum variables_modifiers.options",
						"numberOfBytes": "1"
					},
					"t_int256": {
						"encoding": "inplace",
						"label": "int256",
						"numberOfBytes": "32"
					},
					"t_int8": {
						"encoding": "inplace",
						"label": "int8",
						"numberOfBytes": "1"
					},
					"t_string_storage": {
						"encoding": "bytes",
						"label": "string",
						"numberOfBytes": "32"
					},
					"t_uint256": {
						"encoding": "inplace",
						"label": "uint256",
						"numberOfBytes": "32"
					}
				}
			},
			"userdoc": {
				"kind": "user",
				"methods": {},
				"version": 1
			}
		}
	}
}