{
	"contracts/3_estructuras_de_datos.sol": {
		"data_structures": {
			"abi": [
				{
					"inputs": [
						{
							"internalType": "address",
							"name": "",
							"type": "address"
						}
					],
					"name": "address_dataStructure",
					"outputs": [
						{
							"internalType": "uint256",
							"name": "id",
							"type": "uint256"
						},
						{
							"internalType": "string",
							"name": "name",
							"type": "string"
						},
						{
							"internalType": "string",
							"name": "email",
							"type": "string"
						}
					],
					"stateMutability": "view",
					"type": "function"
				},
				{
					"inputs": [
						{
							"internalType": "address",
							"name": "",
							"type": "address"
						}
					],
					"name": "address_uint256",
					"outputs": [
						{
							"internalType": "uint256",
							"name": "",
							"type": "uint256"
						}
					],
					"stateMutability": "view",
					"type": "function"
				},
				{
					"inputs": [
						{
							"internalType": "uint256",
							"name": "_id",
							"type": "uint256"
						},
						{
							"internalType": "string",
							"name": "_name",
							"type": "string"
						},
						{
							"internalType": "string",
							"name": "_email",
							"type": "string"
						}
					],
					"name": "assignDataStructure",
					"outputs": [],
					"stateMutability": "nonpayable",
					"type": "function"
				},
				{
					"inputs": [
						{
							"internalType": "string",
							"name": "_name",
							"type": "string"
						},
						{
							"internalType": "uint256",
							"name": "_number",
							"type": "uint256"
						}
					],
					"name": "assignList",
					"outputs": [],
					"stateMutability": "nonpayable",
					"type": "function"
				},
				{
					"inputs": [
						{
							"internalType": "uint256",
							"name": "_number",
							"type": "uint256"
						}
					],
					"name": "assignNumber",
					"outputs": [],
					"stateMutability": "nonpayable",
					"type": "function"
				},
				{
					"inputs": [
						{
							"internalType": "uint256",
							"name": "",
							"type": "uint256"
						}
					],
					"name": "listCustomers",
					"outputs": [
						{
							"internalType": "uint256",
							"name": "id",
							"type": "uint256"
						},
						{
							"internalType": "string",
							"name": "name",
							"type": "string"
						},
						{
							"internalType": "string",
							"name": "email",
							"type": "string"
						}
					],
					"stateMutability": "view",
					"type": "function"
				},
				{
					"inputs": [
						{
							"internalType": "uint256",
							"name": "_id",
							"type": "uint256"
						},
						{
							"internalType": "string",
							"name": "_name",
							"type": "string"
						},
						{
							"internalType": "string",
							"name": "_email",
							"type": "string"
						}
					],
					"name": "setCustomer",
					"outputs": [],
					"stateMutability": "nonpayable",
					"type": "function"
				},
				{
					"inputs": [
						{
							"internalType": "string",
							"name": "",
							"type": "string"
						},
						{
							"internalType": "uint256",
							"name": "",
							"type": "uint256"
						}
					],
					"name": "string_listUints",
					"outputs": [
						{
							"internalType": "uint256",
							"name": "",
							"type": "uint256"
						}
					],
					"stateMutability": "view",
					"type": "function"
				},
				{
					"inputs": [
						{
							"internalType": "uint256",
							"name": "",
							"type": "uint256"
						}
					],
					"name": "uints",
					"outputs": [
						{
							"internalType": "uint256",
							"name": "",
							"type": "uint256"
						}
					],
					"stateMutability": "view",
					"type": "function"
				}
			],
			"devdoc": {
				"kind": "dev",
				"methods": {},
				"version": 1
			},
			"evm": {
				"assembly": "    /* \"contracts/3_estructuras_de_datos.sol\":63:1526  contract data_structures {... */\n  mstore(0x40, 0x80)\n    /* \"contracts/3_estructuras_de_datos.sol\":291:332  Customer(1, \"Manolo\", \"manolo@gmail.com\") */\n  mload(0x40)\n  dup1\n  0x60\n  add\n  0x40\n  mstore\n  dup1\n    /* \"contracts/3_estructuras_de_datos.sol\":300:301  1 */\n  0x01\n    /* \"contracts/3_estructuras_de_datos.sol\":291:332  Customer(1, \"Manolo\", \"manolo@gmail.com\") */\n  dup2\n  mstore\n  0x20\n  add\n  mload(0x40)\n  dup1\n  0x40\n  add\n  0x40\n  mstore\n  dup1\n  0x06\n  dup2\n  mstore\n  0x20\n  add\n  0x4d616e6f6c6f0000000000000000000000000000000000000000000000000000\n  dup2\n  mstore\n  pop\n  dup2\n  mstore\n  0x20\n  add\n  mload(0x40)\n  dup1\n  0x40\n  add\n  0x40\n  mstore\n  dup1\n  0x10\n  dup2\n  mstore\n  0x20\n  add\n  0x6d616e6f6c6f40676d61696c2e636f6d00000000000000000000000000000000\n  dup2\n  mstore\n  pop\n  dup2\n  mstore\n  pop\n    /* \"contracts/3_estructuras_de_datos.sol\":270:332  Customer customer1 = Customer(1, \"Manolo\", \"manolo@gmail.com\") */\n  0x00\n  dup1\n  dup3\n  add\n  mload\n  dup2\n  0x00\n  add\n  sstore\n  0x20\n  dup3\n  add\n  mload\n  dup2\n  0x01\n  add\n  swap1\n  dup2\n  tag_1\n  swap2\n  swap1\n  tag_2\n  jump\t// in\ntag_1:\n  pop\n  0x40\n  dup3\n  add\n  mload\n  dup2\n  0x02\n  add\n  swap1\n  dup2\n  tag_3\n  swap2\n  swap1\n  tag_2\n  jump\t// in\ntag_3:\n  pop\n  pop\n  pop\n    /* \"contracts/3_estructuras_de_datos.sol\":381:423  uint256 [5] public uints = [1, 2, 3, 4, 5] */\n  mload(0x40)\n  dup1\n  0xa0\n  add\n  0x40\n  mstore\n  dup1\n    /* \"contracts/3_estructuras_de_datos.sol\":409:410  1 */\n  0x01\n    /* \"contracts/3_estructuras_de_datos.sol\":381:423  uint256 [5] public uints = [1, 2, 3, 4, 5] */\n  0xff\n  and\n  dup2\n  mstore\n  0x20\n  add\n    /* \"contracts/3_estructuras_de_datos.sol\":412:413  2 */\n  0x02\n    /* \"contracts/3_estructuras_de_datos.sol\":381:423  uint256 [5] public uints = [1, 2, 3, 4, 5] */\n  0xff\n  and\n  dup2\n  mstore\n  0x20\n  add\n    /* \"contracts/3_estructuras_de_datos.sol\":415:416  3 */\n  0x03\n    /* \"contracts/3_estructuras_de_datos.sol\":381:423  uint256 [5] public uints = [1, 2, 3, 4, 5] */\n  0xff\n  and\n  dup2\n  mstore\n  0x20\n  add\n    /* \"contracts/3_estructuras_de_datos.sol\":418:419  4 */\n  0x04\n    /* \"contracts/3_estructuras_de_datos.sol\":381:423  uint256 [5] public uints = [1, 2, 3, 4, 5] */\n  0xff\n  and\n  dup2\n  mstore\n  0x20\n  add\n    /* \"contracts/3_estructuras_de_datos.sol\":421:422  5 */\n  0x05\n    /* \"contracts/3_estructuras_de_datos.sol\":381:423  uint256 [5] public uints = [1, 2, 3, 4, 5] */\n  0xff\n  and\n  dup2\n  mstore\n  pop\n  0x03\n  swap1\n  0x05\n  tag_4\n  swap3\n  swap2\n  swap1\n  tag_5\n  jump\t// in\ntag_4:\n  pop\n    /* \"contracts/3_estructuras_de_datos.sol\":63:1526  contract data_structures {... */\n  callvalue\n  dup1\n  iszero\n  tag_6\n  jumpi\n  0x00\n  dup1\n  revert\ntag_6:\n  pop\n  jump(tag_7)\ntag_5:\n  dup3\n  0x05\n  dup2\n  add\n  swap3\n  dup3\n  iszero\n  tag_8\n  jumpi\n  swap2\n  0x20\n  mul\n  dup3\n  add\ntag_9:\n  dup3\n  dup2\n  gt\n  iszero\n  tag_10\n  jumpi\n  dup3\n  mload\n  dup3\n  swap1\n  0xff\n  and\n  swap1\n  sstore\n  swap2\n  0x20\n  add\n  swap2\n  swap1\n  0x01\n  add\n  swap1\n  jump(tag_9)\ntag_10:\ntag_8:\n  pop\n  swap1\n  pop\n  tag_11\n  swap2\n  swap1\n  tag_12\n  jump\t// in\ntag_11:\n  pop\n  swap1\n  jump\t// out\ntag_12:\ntag_13:\n  dup1\n  dup3\n  gt\n  iszero\n  tag_14\n  jumpi\n  0x00\n  dup2\n  0x00\n  swap1\n  sstore\n  pop\n  0x01\n  add\n  jump(tag_13)\ntag_14:\n  pop\n  swap1\n  jump\t// out\n    /* \"#utility.yul\":7:106   */\ntag_15:\n    /* \"#utility.yul\":59:65   */\n  0x00\n    /* \"#utility.yul\":93:98   */\n  dup2\n    /* \"#utility.yul\":87:99   */\n  mload\n    /* \"#utility.yul\":77:99   */\n  swap1\n  pop\n    /* \"#utility.yul\":7:106   */\n  swap2\n  swap1\n  pop\n  jump\t// out\n    /* \"#utility.yul\":112:292   */\ntag_16:\n    /* \"#utility.yul\":160:237   */\n  0x4e487b7100000000000000000000000000000000000000000000000000000000\n    /* \"#utility.yul\":157:158   */\n  0x00\n    /* \"#utility.yul\":150:238   */\n  mstore\n    /* \"#utility.yul\":257:261   */\n  0x41\n    /* \"#utility.yul\":254:255   */\n  0x04\n    /* \"#utility.yul\":247:262   */\n  mstore\n    /* \"#utility.yul\":281:285   */\n  0x24\n    /* \"#utility.yul\":278:279   */\n  0x00\n    /* \"#utility.yul\":271:286   */\n  revert\n    /* \"#utility.yul\":298:478   */\ntag_17:\n    /* \"#utility.yul\":346:423   */\n  0x4e487b7100000000000000000000000000000000000000000000000000000000\n    /* \"#utility.yul\":343:344   */\n  0x00\n    /* \"#utility.yul\":336:424   */\n  mstore\n    /* \"#utility.yul\":443:447   */\n  0x22\n    /* \"#utility.yul\":440:441   */\n  0x04\n    /* \"#utility.yul\":433:448   */\n  mstore\n    /* \"#utility.yul\":467:471   */\n  0x24\n    /* \"#utility.yul\":464:465   */\n  0x00\n    /* \"#utility.yul\":457:472   */\n  revert\n    /* \"#utility.yul\":484:804   */\ntag_18:\n    /* \"#utility.yul\":528:534   */\n  0x00\n    /* \"#utility.yul\":565:566   */\n  0x02\n    /* \"#utility.yul\":559:563   */\n  dup3\n    /* \"#utility.yul\":555:567   */\n  div\n    /* \"#utility.yul\":545:567   */\n  swap1\n  pop\n    /* \"#utility.yul\":612:613   */\n  0x01\n    /* \"#utility.yul\":606:610   */\n  dup3\n    /* \"#utility.yul\":602:614   */\n  and\n    /* \"#utility.yul\":633:651   */\n  dup1\n    /* \"#utility.yul\":623:704   */\n  tag_40\n  jumpi\n    /* \"#utility.yul\":689:693   */\n  0x7f\n    /* \"#utility.yul\":681:687   */\n  dup3\n    /* \"#utility.yul\":677:694   */\n  and\n    /* \"#utility.yul\":667:694   */\n  swap2\n  pop\n    /* \"#utility.yul\":623:704   */\ntag_40:\n    /* \"#utility.yul\":751:753   */\n  0x20\n    /* \"#utility.yul\":743:749   */\n  dup3\n    /* \"#utility.yul\":740:754   */\n  lt\n    /* \"#utility.yul\":720:738   */\n  dup2\n    /* \"#utility.yul\":717:755   */\n  sub\n    /* \"#utility.yul\":714:798   */\n  tag_41\n  jumpi\n    /* \"#utility.yul\":770:788   */\n  tag_42\n  tag_17\n  jump\t// in\ntag_42:\n    /* \"#utility.yul\":714:798   */\ntag_41:\n    /* \"#utility.yul\":535:804   */\n  pop\n    /* \"#utility.yul\":484:804   */\n  swap2\n  swap1\n  pop\n  jump\t// out\n    /* \"#utility.yul\":810:951   */\ntag_19:\n    /* \"#utility.yul\":859:863   */\n  0x00\n    /* \"#utility.yul\":882:885   */\n  dup2\n    /* \"#utility.yul\":874:885   */\n  swap1\n  pop\n    /* \"#utility.yul\":905:908   */\n  dup2\n    /* \"#utility.yul\":902:903   */\n  0x00\n    /* \"#utility.yul\":895:909   */\n  mstore\n    /* \"#utility.yul\":939:943   */\n  0x20\n    /* \"#utility.yul\":936:937   */\n  0x00\n    /* \"#utility.yul\":926:944   */\n  keccak256\n    /* \"#utility.yul\":918:944   */\n  swap1\n  pop\n    /* \"#utility.yul\":810:951   */\n  swap2\n  swap1\n  pop\n  jump\t// out\n    /* \"#utility.yul\":957:1050   */\ntag_20:\n    /* \"#utility.yul\":994:1000   */\n  0x00\n    /* \"#utility.yul\":1041:1043   */\n  0x20\n    /* \"#utility.yul\":1036:1038   */\n  0x1f\n    /* \"#utility.yul\":1029:1034   */\n  dup4\n    /* \"#utility.yul\":1025:1039   */\n  add\n    /* \"#utility.yul\":1021:1044   */\n  div\n    /* \"#utility.yul\":1011:1044   */\n  swap1\n  pop\n    /* \"#utility.yul\":957:1050   */\n  swap2\n  swap1\n  pop\n  jump\t// out\n    /* \"#utility.yul\":1056:1163   */\ntag_21:\n    /* \"#utility.yul\":1100:1108   */\n  0x00\n    /* \"#utility.yul\":1150:1155   */\n  dup3\n    /* \"#utility.yul\":1144:1148   */\n  dup3\n    /* \"#utility.yul\":1140:1156   */\n  shl\n    /* \"#utility.yul\":1119:1156   */\n  swap1\n  pop\n    /* \"#utility.yul\":1056:1163   */\n  swap3\n  swap2\n  pop\n  pop\n  jump\t// out\n    /* \"#utility.yul\":1169:1562   */\ntag_22:\n    /* \"#utility.yul\":1238:1244   */\n  0x00\n    /* \"#utility.yul\":1288:1289   */\n  0x08\n    /* \"#utility.yul\":1276:1286   */\n  dup4\n    /* \"#utility.yul\":1272:1290   */\n  mul\n    /* \"#utility.yul\":1311:1408   */\n  tag_47\n    /* \"#utility.yul\":1341:1407   */\n  0xffffffffffffffffffffffffffffffffffffffffffffffffffffffffffffffff\n    /* \"#utility.yul\":1330:1339   */\n  dup3\n    /* \"#utility.yul\":1311:1408   */\n  tag_21\n  jump\t// in\ntag_47:\n    /* \"#utility.yul\":1429:1468   */\n  tag_48\n    /* \"#utility.yul\":1459:1467   */\n  dup7\n    /* \"#utility.yul\":1448:1457   */\n  dup4\n    /* \"#utility.yul\":1429:1468   */\n  tag_21\n  jump\t// in\ntag_48:\n    /* \"#utility.yul\":1417:1468   */\n  swap6\n  pop\n    /* \"#utility.yul\":1501:1505   */\n  dup1\n    /* \"#utility.yul\":1497:1506   */\n  not\n    /* \"#utility.yul\":1490:1495   */\n  dup5\n    /* \"#utility.yul\":1486:1507   */\n  and\n    /* \"#utility.yul\":1477:1507   */\n  swap4\n  pop\n    /* \"#utility.yul\":1550:1554   */\n  dup1\n    /* \"#utility.yul\":1540:1548   */\n  dup7\n    /* \"#utility.yul\":1536:1555   */\n  and\n    /* \"#utility.yul\":1529:1534   */\n  dup5\n    /* \"#utility.yul\":1526:1556   */\n  or\n    /* \"#utility.yul\":1516:1556   */\n  swap3\n  pop\n    /* \"#utility.yul\":1245:1562   */\n  pop\n  pop\n    /* \"#utility.yul\":1169:1562   */\n  swap4\n  swap3\n  pop\n  pop\n  pop\n  jump\t// out\n    /* \"#utility.yul\":1568:1645   */\ntag_23:\n    /* \"#utility.yul\":1605:1612   */\n  0x00\n    /* \"#utility.yul\":1634:1639   */\n  dup2\n    /* \"#utility.yul\":1623:1639   */\n  swap1\n  pop\n    /* \"#utility.yul\":1568:1645   */\n  swap2\n  swap1\n  pop\n  jump\t// out\n    /* \"#utility.yul\":1651:1711   */\ntag_24:\n    /* \"#utility.yul\":1679:1682   */\n  0x00\n    /* \"#utility.yul\":1700:1705   */\n  dup2\n    /* \"#utility.yul\":1693:1705   */\n  swap1\n  pop\n    /* \"#utility.yul\":1651:1711   */\n  swap2\n  swap1\n  pop\n  jump\t// out\n    /* \"#utility.yul\":1717:1859   */\ntag_25:\n    /* \"#utility.yul\":1767:1776   */\n  0x00\n    /* \"#utility.yul\":1800:1853   */\n  tag_52\n    /* \"#utility.yul\":1818:1852   */\n  tag_53\n    /* \"#utility.yul\":1827:1851   */\n  tag_54\n    /* \"#utility.yul\":1845:1850   */\n  dup5\n    /* \"#utility.yul\":1827:1851   */\n  tag_23\n  jump\t// in\ntag_54:\n    /* \"#utility.yul\":1818:1852   */\n  tag_24\n  jump\t// in\ntag_53:\n    /* \"#utility.yul\":1800:1853   */\n  tag_23\n  jump\t// in\ntag_52:\n    /* \"#utility.yul\":1787:1853   */\n  swap1\n  pop\n    /* \"#utility.yul\":1717:1859   */\n  swap2\n  swap1\n  pop\n  jump\t// out\n    /* \"#utility.yul\":1865:1940   */\ntag_26:\n    /* \"#utility.yul\":1908:1911   */\n  0x00\n    /* \"#utility.yul\":1929:1934   */\n  dup2\n    /* \"#utility.yul\":1922:1934   */\n  swap1\n  pop\n    /* \"#utility.yul\":1865:1940   */\n  swap2\n  swap1\n  pop\n  jump\t// out\n    /* \"#utility.yul\":1946:2215   */\ntag_27:\n    /* \"#utility.yul\":2056:2095   */\n  tag_57\n    /* \"#utility.yul\":2087:2094   */\n  dup4\n    /* \"#utility.yul\":2056:2095   */\n  tag_25\n  jump\t// in\ntag_57:\n    /* \"#utility.yul\":2117:2208   */\n  tag_58\n    /* \"#utility.yul\":2166:2207   */\n  tag_59\n    /* \"#utility.yul\":2190:2206   */\n  dup3\n    /* \"#utility.yul\":2166:2207   */\n  tag_26\n  jump\t// in\ntag_59:\n    /* \"#utility.yul\":2158:2164   */\n  dup5\n    /* \"#utility.yul\":2151:2155   */\n  dup5\n    /* \"#utility.yul\":2145:2156   */\n  sload\n    /* \"#utility.yul\":2117:2208   */\n  tag_22\n  jump\t// in\ntag_58:\n    /* \"#utility.yul\":2111:2115   */\n  dup3\n    /* \"#utility.yul\":2104:2209   */\n  sstore\n    /* \"#utility.yul\":2022:2215   */\n  pop\n    /* \"#utility.yul\":1946:2215   */\n  pop\n  pop\n  pop\n  jump\t// out\n    /* \"#utility.yul\":2221:2294   */\ntag_28:\n    /* \"#utility.yul\":2266:2269   */\n  0x00\n    /* \"#utility.yul\":2221:2294   */\n  swap1\n  jump\t// out\n    /* \"#utility.yul\":2300:2489   */\ntag_29:\n    /* \"#utility.yul\":2377:2409   */\n  tag_62\n  tag_28\n  jump\t// in\ntag_62:\n    /* \"#utility.yul\":2418:2483   */\n  tag_63\n    /* \"#utility.yul\":2476:2482   */\n  dup2\n    /* \"#utility.yul\":2468:2474   */\n  dup5\n    /* \"#utility.yul\":2462:2466   */\n  dup5\n    /* \"#utility.yul\":2418:2483   */\n  tag_27\n  jump\t// in\ntag_63:\n    /* \"#utility.yul\":2353:2489   */\n  pop\n    /* \"#utility.yul\":2300:2489   */\n  pop\n  pop\n  jump\t// out\n    /* \"#utility.yul\":2495:2681   */\ntag_30:\n    /* \"#utility.yul\":2555:2675   */\ntag_65:\n    /* \"#utility.yul\":2572:2575   */\n  dup2\n    /* \"#utility.yul\":2565:2570   */\n  dup2\n    /* \"#utility.yul\":2562:2576   */\n  lt\n    /* \"#utility.yul\":2555:2675   */\n  iszero\n  tag_67\n  jumpi\n    /* \"#utility.yul\":2626:2665   */\n  tag_68\n    /* \"#utility.yul\":2663:2664   */\n  0x00\n    /* \"#utility.yul\":2656:2661   */\n  dup3\n    /* \"#utility.yul\":2626:2665   */\n  tag_29\n  jump\t// in\ntag_68:\n    /* \"#utility.yul\":2599:2600   */\n  0x01\n    /* \"#utility.yul\":2592:2597   */\n  dup2\n    /* \"#utility.yul\":2588:2601   */\n  add\n    /* \"#utility.yul\":2579:2601   */\n  swap1\n  pop\n    /* \"#utility.yul\":2555:2675   */\n  jump(tag_65)\ntag_67:\n    /* \"#utility.yul\":2495:2681   */\n  pop\n  pop\n  jump\t// out\n    /* \"#utility.yul\":2687:3230   */\ntag_31:\n    /* \"#utility.yul\":2788:2790   */\n  0x1f\n    /* \"#utility.yul\":2783:2786   */\n  dup3\n    /* \"#utility.yul\":2780:2791   */\n  gt\n    /* \"#utility.yul\":2777:3223   */\n  iszero\n  tag_70\n  jumpi\n    /* \"#utility.yul\":2822:2860   */\n  tag_71\n    /* \"#utility.yul\":2854:2859   */\n  dup2\n    /* \"#utility.yul\":2822:2860   */\n  tag_19\n  jump\t// in\ntag_71:\n    /* \"#utility.yul\":2906:2935   */\n  tag_72\n    /* \"#utility.yul\":2924:2934   */\n  dup5\n    /* \"#utility.yul\":2906:2935   */\n  tag_20\n  jump\t// in\ntag_72:\n    /* \"#utility.yul\":2896:2904   */\n  dup2\n    /* \"#utility.yul\":2892:2936   */\n  add\n    /* \"#utility.yul\":3089:3091   */\n  0x20\n    /* \"#utility.yul\":3077:3087   */\n  dup6\n    /* \"#utility.yul\":3074:3092   */\n  lt\n    /* \"#utility.yul\":3071:3120   */\n  iszero\n  tag_73\n  jumpi\n    /* \"#utility.yul\":3110:3118   */\n  dup2\n    /* \"#utility.yul\":3095:3118   */\n  swap1\n  pop\n    /* \"#utility.yul\":3071:3120   */\ntag_73:\n    /* \"#utility.yul\":3133:3213   */\n  tag_74\n    /* \"#utility.yul\":3189:3211   */\n  tag_75\n    /* \"#utility.yul\":3207:3210   */\n  dup6\n    /* \"#utility.yul\":3189:3211   */\n  tag_20\n  jump\t// in\ntag_75:\n    /* \"#utility.yul\":3179:3187   */\n  dup4\n    /* \"#utility.yul\":3175:3212   */\n  add\n    /* \"#utility.yul\":3162:3173   */\n  dup3\n    /* \"#utility.yul\":3133:3213   */\n  tag_30\n  jump\t// in\ntag_74:\n    /* \"#utility.yul\":2792:3223   */\n  pop\n  pop\n    /* \"#utility.yul\":2777:3223   */\ntag_70:\n    /* \"#utility.yul\":2687:3230   */\n  pop\n  pop\n  pop\n  jump\t// out\n    /* \"#utility.yul\":3236:3353   */\ntag_32:\n    /* \"#utility.yul\":3290:3298   */\n  0x00\n    /* \"#utility.yul\":3340:3345   */\n  dup3\n    /* \"#utility.yul\":3334:3338   */\n  dup3\n    /* \"#utility.yul\":3330:3346   */\n  shr\n    /* \"#utility.yul\":3309:3346   */\n  swap1\n  pop\n    /* \"#utility.yul\":3236:3353   */\n  swap3\n  swap2\n  pop\n  pop\n  jump\t// out\n    /* \"#utility.yul\":3359:3528   */\ntag_33:\n    /* \"#utility.yul\":3403:3409   */\n  0x00\n    /* \"#utility.yul\":3436:3487   */\n  tag_78\n    /* \"#utility.yul\":3484:3485   */\n  0x00\n    /* \"#utility.yul\":3480:3486   */\n  not\n    /* \"#utility.yul\":3472:3477   */\n  dup5\n    /* \"#utility.yul\":3469:3470   */\n  0x08\n    /* \"#utility.yul\":3465:3478   */\n  mul\n    /* \"#utility.yul\":3436:3487   */\n  tag_32\n  jump\t// in\ntag_78:\n    /* \"#utility.yul\":3432:3488   */\n  not\n    /* \"#utility.yul\":3517:3521   */\n  dup1\n    /* \"#utility.yul\":3511:3515   */\n  dup4\n    /* \"#utility.yul\":3507:3522   */\n  and\n    /* \"#utility.yul\":3497:3522   */\n  swap2\n  pop\n    /* \"#utility.yul\":3410:3528   */\n  pop\n    /* \"#utility.yul\":3359:3528   */\n  swap3\n  swap2\n  pop\n  pop\n  jump\t// out\n    /* \"#utility.yul\":3533:3828   */\ntag_34:\n    /* \"#utility.yul\":3609:3613   */\n  0x00\n    /* \"#utility.yul\":3755:3784   */\n  tag_80\n    /* \"#utility.yul\":3780:3783   */\n  dup4\n    /* \"#utility.yul\":3774:3778   */\n  dup4\n    /* \"#utility.yul\":3755:3784   */\n  tag_33\n  jump\t// in\ntag_80:\n    /* \"#utility.yul\":3747:3784   */\n  swap2\n  pop\n    /* \"#utility.yul\":3817:3820   */\n  dup3\n    /* \"#utility.yul\":3814:3815   */\n  0x02\n    /* \"#utility.yul\":3810:3821   */\n  mul\n    /* \"#utility.yul\":3804:3808   */\n  dup3\n    /* \"#utility.yul\":3801:3822   */\n  or\n    /* \"#utility.yul\":3793:3822   */\n  swap1\n  pop\n    /* \"#utility.yul\":3533:3828   */\n  swap3\n  swap2\n  pop\n  pop\n  jump\t// out\n    /* \"#utility.yul\":3833:5228   */\ntag_2:\n    /* \"#utility.yul\":3950:3987   */\n  tag_82\n    /* \"#utility.yul\":3983:3986   */\n  dup3\n    /* \"#utility.yul\":3950:3987   */\n  tag_15\n  jump\t// in\ntag_82:\n    /* \"#utility.yul\":4052:4070   */\n  0xffffffffffffffff\n    /* \"#utility.yul\":4044:4050   */\n  dup2\n    /* \"#utility.yul\":4041:4071   */\n  gt\n    /* \"#utility.yul\":4038:4094   */\n  iszero\n  tag_83\n  jumpi\n    /* \"#utility.yul\":4074:4092   */\n  tag_84\n  tag_16\n  jump\t// in\ntag_84:\n    /* \"#utility.yul\":4038:4094   */\ntag_83:\n    /* \"#utility.yul\":4118:4156   */\n  tag_85\n    /* \"#utility.yul\":4150:4154   */\n  dup3\n    /* \"#utility.yul\":4144:4155   */\n  sload\n    /* \"#utility.yul\":4118:4156   */\n  tag_18\n  jump\t// in\ntag_85:\n    /* \"#utility.yul\":4203:4270   */\n  tag_86\n    /* \"#utility.yul\":4263:4269   */\n  dup3\n    /* \"#utility.yul\":4255:4261   */\n  dup3\n    /* \"#utility.yul\":4249:4253   */\n  dup6\n    /* \"#utility.yul\":4203:4270   */\n  tag_31\n  jump\t// in\ntag_86:\n    /* \"#utility.yul\":4297:4298   */\n  0x00\n    /* \"#utility.yul\":4321:4325   */\n  0x20\n    /* \"#utility.yul\":4308:4325   */\n  swap1\n  pop\n    /* \"#utility.yul\":4353:4355   */\n  0x1f\n    /* \"#utility.yul\":4345:4351   */\n  dup4\n    /* \"#utility.yul\":4342:4356   */\n  gt\n    /* \"#utility.yul\":4370:4371   */\n  0x01\n    /* \"#utility.yul\":4365:4983   */\n  dup2\n  eq\n  tag_88\n  jumpi\n    /* \"#utility.yul\":5027:5028   */\n  0x00\n    /* \"#utility.yul\":5044:5050   */\n  dup5\n    /* \"#utility.yul\":5041:5118   */\n  iszero\n  tag_89\n  jumpi\n    /* \"#utility.yul\":5093:5102   */\n  dup3\n    /* \"#utility.yul\":5088:5091   */\n  dup8\n    /* \"#utility.yul\":5084:5103   */\n  add\n    /* \"#utility.yul\":5078:5104   */\n  mload\n    /* \"#utility.yul\":5069:5104   */\n  swap1\n  pop\n    /* \"#utility.yul\":5041:5118   */\ntag_89:\n    /* \"#utility.yul\":5144:5211   */\n  tag_90\n    /* \"#utility.yul\":5204:5210   */\n  dup6\n    /* \"#utility.yul\":5197:5202   */\n  dup3\n    /* \"#utility.yul\":5144:5211   */\n  tag_34\n  jump\t// in\ntag_90:\n    /* \"#utility.yul\":5138:5142   */\n  dup7\n    /* \"#utility.yul\":5131:5212   */\n  sstore\n    /* \"#utility.yul\":5000:5222   */\n  pop\n    /* \"#utility.yul\":4335:5222   */\n  jump(tag_87)\n    /* \"#utility.yul\":4365:4983   */\ntag_88:\n    /* \"#utility.yul\":4417:4421   */\n  0x1f\n    /* \"#utility.yul\":4413:4422   */\n  not\n    /* \"#utility.yul\":4405:4411   */\n  dup5\n    /* \"#utility.yul\":4401:4423   */\n  and\n    /* \"#utility.yul\":4451:4488   */\n  tag_91\n    /* \"#utility.yul\":4483:4487   */\n  dup7\n    /* \"#utility.yul\":4451:4488   */\n  tag_19\n  jump\t// in\ntag_91:\n    /* \"#utility.yul\":4510:4511   */\n  0x00\n    /* \"#utility.yul\":4524:4732   */\ntag_92:\n    /* \"#utility.yul\":4538:4545   */\n  dup3\n    /* \"#utility.yul\":4535:4536   */\n  dup2\n    /* \"#utility.yul\":4532:4546   */\n  lt\n    /* \"#utility.yul\":4524:4732   */\n  iszero\n  tag_94\n  jumpi\n    /* \"#utility.yul\":4617:4626   */\n  dup5\n    /* \"#utility.yul\":4612:4615   */\n  dup10\n    /* \"#utility.yul\":4608:4627   */\n  add\n    /* \"#utility.yul\":4602:4628   */\n  mload\n    /* \"#utility.yul\":4594:4600   */\n  dup3\n    /* \"#utility.yul\":4587:4629   */\n  sstore\n    /* \"#utility.yul\":4668:4669   */\n  0x01\n    /* \"#utility.yul\":4660:4666   */\n  dup3\n    /* \"#utility.yul\":4656:4670   */\n  add\n    /* \"#utility.yul\":4646:4670   */\n  swap2\n  pop\n    /* \"#utility.yul\":4715:4717   */\n  0x20\n    /* \"#utility.yul\":4704:4713   */\n  dup6\n    /* \"#utility.yul\":4700:4718   */\n  add\n    /* \"#utility.yul\":4687:4718   */\n  swap5\n  pop\n    /* \"#utility.yul\":4561:4565   */\n  0x20\n    /* \"#utility.yul\":4558:4559   */\n  dup2\n    /* \"#utility.yul\":4554:4566   */\n  add\n    /* \"#utility.yul\":4549:4566   */\n  swap1\n  pop\n    /* \"#utility.yul\":4524:4732   */\n  jump(tag_92)\ntag_94:\n    /* \"#utility.yul\":4760:4766   */\n  dup7\n    /* \"#utility.yul\":4751:4758   */\n  dup4\n    /* \"#utility.yul\":4748:4767   */\n  lt\n    /* \"#utility.yul\":4745:4924   */\n  iszero\n  tag_95\n  jumpi\n    /* \"#utility.yul\":4818:4827   */\n  dup5\n    /* \"#utility.yul\":4813:4816   */\n  dup10\n    /* \"#utility.yul\":4809:4828   */\n  add\n    /* \"#utility.yul\":4803:4829   */\n  mload\n    /* \"#utility.yul\":4861:4909   */\n  tag_96\n    /* \"#utility.yul\":4903:4907   */\n  0x1f\n    /* \"#utility.yul\":4895:4901   */\n  dup10\n    /* \"#utility.yul\":4891:4908   */\n  and\n    /* \"#utility.yul\":4880:4889   */\n  dup3\n    /* \"#utility.yul\":4861:4909   */\n  tag_33\n  jump\t// in\ntag_96:\n    /* \"#utility.yul\":4853:4859   */\n  dup4\n    /* \"#utility.yul\":4846:4910   */\n  sstore\n    /* \"#utility.yul\":4768:4924   */\n  pop\n    /* \"#utility.yul\":4745:4924   */\ntag_95:\n    /* \"#utility.yul\":4970:4971   */\n  0x01\n    /* \"#utility.yul\":4966:4967   */\n  0x02\n    /* \"#utility.yul\":4958:4964   */\n  dup9\n    /* \"#utility.yul\":4954:4968   */\n  mul\n    /* \"#utility.yul\":4950:4972   */\n  add\n    /* \"#utility.yul\":4944:4948   */\n  dup9\n    /* \"#utility.yul\":4937:4973   */\n  sstore\n    /* \"#utility.yul\":4372:4983   */\n  pop\n  pop\n  pop\n    /* \"#utility.yul\":4335:5222   */\ntag_87:\n  pop\n    /* \"#utility.yul\":3925:5228   */\n  pop\n  pop\n  pop\n    /* \"#utility.yul\":3833:5228   */\n  pop\n  pop\n  jump\t// out\n    /* \"contracts/3_estructuras_de_datos.sol\":63:1526  contract data_structures {... */\ntag_7:\n  dataSize(sub_0)\n  dup1\n  dataOffset(sub_0)\n  0x00\n  codecopy\n  0x00\n  return\nstop\n\nsub_0: assembly {\n        /* \"contracts/3_estructuras_de_datos.sol\":63:1526  contract data_structures {... */\n      mstore(0x40, 0x80)\n      callvalue\n      dup1\n      iszero\n      tag_1\n      jumpi\n      0x00\n      dup1\n      revert\n    tag_1:\n      pop\n      jumpi(tag_2, lt(calldatasize, 0x04))\n      shr(0xe0, calldataload(0x00))\n      dup1\n      0x89553d46\n      gt\n      tag_12\n      jumpi\n      dup1\n      0x89553d46\n      eq\n      tag_7\n      jumpi\n      dup1\n      0x9efb5c23\n      eq\n      tag_8\n      jumpi\n      dup1\n      0xe52b008f\n      eq\n      tag_9\n      jumpi\n      dup1\n      0xe990585e\n      eq\n      tag_10\n      jumpi\n      dup1\n      0xeaaefa96\n      eq\n      tag_11\n      jumpi\n      jump(tag_2)\n    tag_12:\n      dup1\n      0x1c9fc6c0\n      eq\n      tag_3\n      jumpi\n      dup1\n      0x3ce5771d\n      eq\n      tag_4\n      jumpi\n      dup1\n      0x706bd608\n      eq\n      tag_5\n      jumpi\n      dup1\n      0x85ea1266\n      eq\n      tag_6\n      jumpi\n    tag_2:\n      0x00\n      dup1\n      revert\n        /* \"contracts/3_estructuras_de_datos.sol\":381:423  uint256 [5] public uints = [1, 2, 3, 4, 5] */\n    tag_3:\n      tag_13\n      0x04\n      dup1\n      calldatasize\n      sub\n      dup2\n      add\n      swap1\n      tag_14\n      swap2\n      swap1\n      tag_15\n      jump\t// in\n    tag_14:\n      tag_16\n      jump\t// in\n    tag_13:\n      mload(0x40)\n      tag_17\n      swap2\n      swap1\n      tag_18\n      jump\t// in\n    tag_17:\n      mload(0x40)\n      dup1\n      swap2\n      sub\n      swap1\n      return\n        /* \"contracts/3_estructuras_de_datos.sol\":831:885  mapping (string => uint256 []) public string_listUints */\n    tag_4:\n      tag_19\n      0x04\n      dup1\n      calldatasize\n      sub\n      dup2\n      add\n      swap1\n      tag_20\n      swap2\n      swap1\n      tag_21\n      jump\t// in\n    tag_20:\n      tag_22\n      jump\t// in\n    tag_19:\n      mload(0x40)\n      tag_23\n      swap2\n      swap1\n      tag_18\n      jump\t// in\n    tag_23:\n      mload(0x40)\n      dup1\n      swap2\n      sub\n      swap1\n      return\n        /* \"contracts/3_estructuras_de_datos.sol\":548:748  function setCustomer(uint256 _id, string memory _name, string memory _email) public{... */\n    tag_5:\n      tag_24\n      0x04\n      dup1\n      calldatasize\n      sub\n      dup2\n      add\n      swap1\n      tag_25\n      swap2\n      swap1\n      tag_26\n      jump\t// in\n    tag_25:\n      tag_27\n      jump\t// in\n    tag_24:\n      stop\n        /* \"contracts/3_estructuras_de_datos.sol\":773:824  mapping (address => uint256) public address_uint256 */\n    tag_6:\n      tag_28\n      0x04\n      dup1\n      calldatasize\n      sub\n      dup2\n      add\n      swap1\n      tag_29\n      swap2\n      swap1\n      tag_30\n      jump\t// in\n    tag_29:\n      tag_31\n      jump\t// in\n    tag_28:\n      mload(0x40)\n      tag_32\n      swap2\n      swap1\n      tag_18\n      jump\t// in\n    tag_32:\n      mload(0x40)\n      dup1\n      swap2\n      sub\n      swap1\n      return\n        /* \"contracts/3_estructuras_de_datos.sol\":1158:1279  function assignList(string memory _name, uint256 _number) public {... */\n    tag_7:\n      tag_33\n      0x04\n      dup1\n      calldatasize\n      sub\n      dup2\n      add\n      swap1\n      tag_34\n      swap2\n      swap1\n      tag_21\n      jump\t// in\n    tag_34:\n      tag_35\n      jump\t// in\n    tag_33:\n      stop\n        /* \"contracts/3_estructuras_de_datos.sol\":474:506  Customer [] public listCustomers */\n    tag_8:\n      tag_36\n      0x04\n      dup1\n      calldatasize\n      sub\n      dup2\n      add\n      swap1\n      tag_37\n      swap2\n      swap1\n      tag_15\n      jump\t// in\n    tag_37:\n      tag_38\n      jump\t// in\n    tag_36:\n      mload(0x40)\n      tag_39\n      swap4\n      swap3\n      swap2\n      swap1\n      tag_40\n      jump\t// in\n    tag_39:\n      mload(0x40)\n      dup1\n      swap2\n      sub\n      swap1\n      return\n        /* \"contracts/3_estructuras_de_datos.sol\":1001:1103  function assignNumber(uint256 _number) public {... */\n    tag_9:\n      tag_41\n      0x04\n      dup1\n      calldatasize\n      sub\n      dup2\n      add\n      swap1\n      tag_42\n      swap2\n      swap1\n      tag_15\n      jump\t// in\n    tag_42:\n      tag_43\n      jump\t// in\n    tag_41:\n      stop\n        /* \"contracts/3_estructuras_de_datos.sol\":1349:1521  function assignDataStructure(uint _id, string memory _name, string memory _email) public {... */\n    tag_10:\n      tag_44\n      0x04\n      dup1\n      calldatasize\n      sub\n      dup2\n      add\n      swap1\n      tag_45\n      swap2\n      swap1\n      tag_26\n      jump\t// in\n    tag_45:\n      tag_46\n      jump\t// in\n    tag_44:\n      stop\n        /* \"contracts/3_estructuras_de_datos.sol\":892:950  mapping (address => Customer) public address_dataStructure */\n    tag_11:\n      tag_47\n      0x04\n      dup1\n      calldatasize\n      sub\n      dup2\n      add\n      swap1\n      tag_48\n      swap2\n      swap1\n      tag_30\n      jump\t// in\n    tag_48:\n      tag_49\n      jump\t// in\n    tag_47:\n      mload(0x40)\n      tag_50\n      swap4\n      swap3\n      swap2\n      swap1\n      tag_40\n      jump\t// in\n    tag_50:\n      mload(0x40)\n      dup1\n      swap2\n      sub\n      swap1\n      return\n        /* \"contracts/3_estructuras_de_datos.sol\":381:423  uint256 [5] public uints = [1, 2, 3, 4, 5] */\n    tag_16:\n      0x03\n      dup2\n      0x05\n      dup2\n      lt\n      tag_51\n      jumpi\n      0x00\n      dup1\n      revert\n    tag_51:\n      add\n      0x00\n      swap2\n      pop\n      swap1\n      pop\n      sload\n      dup2\n      jump\t// out\n        /* \"contracts/3_estructuras_de_datos.sol\":831:885  mapping (string => uint256 []) public string_listUints */\n    tag_22:\n      0x0a\n      dup3\n      dup1\n      mload\n      0x20\n      dup2\n      add\n      dup3\n      add\n      dup1\n      mload\n      dup5\n      dup3\n      mstore\n      0x20\n      dup4\n      add\n      0x20\n      dup6\n      add\n      keccak256\n      dup2\n      dup4\n      mstore\n      dup1\n      swap6\n      pop\n      pop\n      pop\n      pop\n      pop\n      pop\n      dup2\n      dup2\n      sload\n      dup2\n      lt\n      tag_53\n      jumpi\n      0x00\n      dup1\n      revert\n    tag_53:\n      swap1\n      0x00\n      mstore\n      keccak256(0x00, 0x20)\n      add\n      0x00\n      swap2\n      pop\n      swap2\n      pop\n      pop\n      sload\n      dup2\n      jump\t// out\n        /* \"contracts/3_estructuras_de_datos.sol\":548:748  function setCustomer(uint256 _id, string memory _name, string memory _email) public{... */\n    tag_27:\n        /* \"contracts/3_estructuras_de_datos.sol\":644:668  Customer memory customer */\n      0x00\n        /* \"contracts/3_estructuras_de_datos.sol\":671:699  Customer(_id, _name, _email) */\n      mload(0x40)\n      dup1\n      0x60\n      add\n      0x40\n      mstore\n      dup1\n        /* \"contracts/3_estructuras_de_datos.sol\":680:683  _id */\n      dup6\n        /* \"contracts/3_estructuras_de_datos.sol\":671:699  Customer(_id, _name, _email) */\n      dup2\n      mstore\n      0x20\n      add\n        /* \"contracts/3_estructuras_de_datos.sol\":685:690  _name */\n      dup5\n        /* \"contracts/3_estructuras_de_datos.sol\":671:699  Customer(_id, _name, _email) */\n      dup2\n      mstore\n      0x20\n      add\n        /* \"contracts/3_estructuras_de_datos.sol\":692:698  _email */\n      dup4\n        /* \"contracts/3_estructuras_de_datos.sol\":671:699  Customer(_id, _name, _email) */\n      dup2\n      mstore\n      pop\n        /* \"contracts/3_estructuras_de_datos.sol\":644:699  Customer memory customer = Customer(_id, _name, _email) */\n      swap1\n      pop\n        /* \"contracts/3_estructuras_de_datos.sol\":710:723  listCustomers */\n      0x08\n        /* \"contracts/3_estructuras_de_datos.sol\":729:737  customer */\n      dup2\n        /* \"contracts/3_estructuras_de_datos.sol\":710:738  listCustomers.push(customer) */\n      swap1\n      dup1\n      0x01\n      dup2\n      sload\n      add\n      dup1\n      dup3\n      sstore\n      dup1\n      swap2\n      pop\n      pop\n      0x01\n      swap1\n      sub\n      swap1\n      0x00\n      mstore\n      keccak256(0x00, 0x20)\n      swap1\n      0x03\n      mul\n      add\n      0x00\n      swap1\n      swap2\n      swap1\n      swap2\n      swap1\n      swap2\n      pop\n      0x00\n      dup3\n      add\n      mload\n      dup2\n      0x00\n      add\n      sstore\n      0x20\n      dup3\n      add\n      mload\n      dup2\n      0x01\n      add\n      swap1\n      dup2\n      tag_57\n      swap2\n      swap1\n      tag_58\n      jump\t// in\n    tag_57:\n      pop\n      0x40\n      dup3\n      add\n      mload\n      dup2\n      0x02\n      add\n      swap1\n      dup2\n      tag_59\n      swap2\n      swap1\n      tag_58\n      jump\t// in\n    tag_59:\n      pop\n      pop\n      pop\n        /* \"contracts/3_estructuras_de_datos.sol\":631:748  {... */\n      pop\n        /* \"contracts/3_estructuras_de_datos.sol\":548:748  function setCustomer(uint256 _id, string memory _name, string memory _email) public{... */\n      pop\n      pop\n      pop\n      jump\t// out\n        /* \"contracts/3_estructuras_de_datos.sol\":773:824  mapping (address => uint256) public address_uint256 */\n    tag_31:\n      mstore(0x20, 0x09)\n      dup1\n      0x00\n      mstore\n      keccak256(0x00, 0x40)\n      0x00\n      swap2\n      pop\n      swap1\n      pop\n      sload\n      dup2\n      jump\t// out\n        /* \"contracts/3_estructuras_de_datos.sol\":1158:1279  function assignList(string memory _name, uint256 _number) public {... */\n    tag_35:\n        /* \"contracts/3_estructuras_de_datos.sol\":1234:1250  string_listUints */\n      0x0a\n        /* \"contracts/3_estructuras_de_datos.sol\":1251:1256  _name */\n      dup3\n        /* \"contracts/3_estructuras_de_datos.sol\":1234:1257  string_listUints[_name] */\n      mload(0x40)\n      tag_61\n      swap2\n      swap1\n      tag_62\n      jump\t// in\n    tag_61:\n      swap1\n      dup2\n      mstore\n      0x20\n      add\n      mload(0x40)\n      dup1\n      swap2\n      sub\n      swap1\n      keccak256\n        /* \"contracts/3_estructuras_de_datos.sol\":1263:1270  _number */\n      dup2\n        /* \"contracts/3_estructuras_de_datos.sol\":1234:1271  string_listUints[_name].push(_number) */\n      swap1\n      dup1\n      0x01\n      dup2\n      sload\n      add\n      dup1\n      dup3\n      sstore\n      dup1\n      swap2\n      pop\n      pop\n      0x01\n      swap1\n      sub\n      swap1\n      0x00\n      mstore\n      keccak256(0x00, 0x20)\n      add\n      0x00\n      swap1\n      swap2\n      swap1\n      swap2\n      swap1\n      swap2\n      pop\n      sstore\n        /* \"contracts/3_estructuras_de_datos.sol\":1158:1279  function assignList(string memory _name, uint256 _number) public {... */\n      pop\n      pop\n      jump\t// out\n        /* \"contracts/3_estructuras_de_datos.sol\":474:506  Customer [] public listCustomers */\n    tag_38:\n      0x08\n      dup2\n      dup2\n      sload\n      dup2\n      lt\n      tag_64\n      jumpi\n      0x00\n      dup1\n      revert\n    tag_64:\n      swap1\n      0x00\n      mstore\n      keccak256(0x00, 0x20)\n      swap1\n      0x03\n      mul\n      add\n      0x00\n      swap2\n      pop\n      swap1\n      pop\n      dup1\n      0x00\n      add\n      sload\n      swap1\n      dup1\n      0x01\n      add\n      dup1\n      sload\n      tag_66\n      swap1\n      tag_67\n      jump\t// in\n    tag_66:\n      dup1\n      0x1f\n      add\n      0x20\n      dup1\n      swap2\n      div\n      mul\n      0x20\n      add\n      mload(0x40)\n      swap1\n      dup2\n      add\n      0x40\n      mstore\n      dup1\n      swap3\n      swap2\n      swap1\n      dup2\n      dup2\n      mstore\n      0x20\n      add\n      dup3\n      dup1\n      sload\n      tag_68\n      swap1\n      tag_67\n      jump\t// in\n    tag_68:\n      dup1\n      iszero\n      tag_69\n      jumpi\n      dup1\n      0x1f\n      lt\n      tag_70\n      jumpi\n      0x0100\n      dup1\n      dup4\n      sload\n      div\n      mul\n      dup4\n      mstore\n      swap2\n      0x20\n      add\n      swap2\n      jump(tag_69)\n    tag_70:\n      dup3\n      add\n      swap2\n      swap1\n      0x00\n      mstore\n      keccak256(0x00, 0x20)\n      swap1\n    tag_71:\n      dup2\n      sload\n      dup2\n      mstore\n      swap1\n      0x01\n      add\n      swap1\n      0x20\n      add\n      dup1\n      dup4\n      gt\n      tag_71\n      jumpi\n      dup3\n      swap1\n      sub\n      0x1f\n      and\n      dup3\n      add\n      swap2\n    tag_69:\n      pop\n      pop\n      pop\n      pop\n      pop\n      swap1\n      dup1\n      0x02\n      add\n      dup1\n      sload\n      tag_72\n      swap1\n      tag_67\n      jump\t// in\n    tag_72:\n      dup1\n      0x1f\n      add\n      0x20\n      dup1\n      swap2\n      div\n      mul\n      0x20\n      add\n      mload(0x40)\n      swap1\n      dup2\n      add\n      0x40\n      mstore\n      dup1\n      swap3\n      swap2\n      swap1\n      dup2\n      dup2\n      mstore\n      0x20\n      add\n      dup3\n      dup1\n      sload\n      tag_73\n      swap1\n      tag_67\n      jump\t// in\n    tag_73:\n      dup1\n      iszero\n      tag_74\n      jumpi\n      dup1\n      0x1f\n      lt\n      tag_75\n      jumpi\n      0x0100\n      dup1\n      dup4\n      sload\n      div\n      mul\n      dup4\n      mstore\n      swap2\n      0x20\n      add\n      swap2\n      jump(tag_74)\n    tag_75:\n      dup3\n      add\n      swap2\n      swap1\n      0x00\n      mstore\n      keccak256(0x00, 0x20)\n      swap1\n    tag_76:\n      dup2\n      sload\n      dup2\n      mstore\n      swap1\n      0x01\n      add\n      swap1\n      0x20\n      add\n      dup1\n      dup4\n      gt\n      tag_76\n      jumpi\n      dup3\n      swap1\n      sub\n      0x1f\n      and\n      dup3\n      add\n      swap2\n    tag_74:\n      pop\n      pop\n      pop\n      pop\n      pop\n      swap1\n      pop\n      dup4\n      jump\t// out\n        /* \"contracts/3_estructuras_de_datos.sol\":1001:1103  function assignNumber(uint256 _number) public {... */\n    tag_43:\n        /* \"contracts/3_estructuras_de_datos.sol\":1088:1095  _number */\n      dup1\n        /* \"contracts/3_estructuras_de_datos.sol\":1058:1073  address_uint256 */\n      0x09\n        /* \"contracts/3_estructuras_de_datos.sol\":1058:1085  address_uint256[msg.sender] */\n      0x00\n        /* \"contracts/3_estructuras_de_datos.sol\":1074:1084  msg.sender */\n      caller\n        /* \"contracts/3_estructuras_de_datos.sol\":1058:1085  address_uint256[msg.sender] */\n      0xffffffffffffffffffffffffffffffffffffffff\n      and\n      0xffffffffffffffffffffffffffffffffffffffff\n      and\n      dup2\n      mstore\n      0x20\n      add\n      swap1\n      dup2\n      mstore\n      0x20\n      add\n      0x00\n      keccak256\n        /* \"contracts/3_estructuras_de_datos.sol\":1058:1095  address_uint256[msg.sender] = _number */\n      dup2\n      swap1\n      sstore\n      pop\n        /* \"contracts/3_estructuras_de_datos.sol\":1001:1103  function assignNumber(uint256 _number) public {... */\n      pop\n      jump\t// out\n        /* \"contracts/3_estructuras_de_datos.sol\":1349:1521  function assignDataStructure(uint _id, string memory _name, string memory _email) public {... */\n    tag_46:\n        /* \"contracts/3_estructuras_de_datos.sol\":1485:1513  Customer(_id, _name, _email) */\n      mload(0x40)\n      dup1\n      0x60\n      add\n      0x40\n      mstore\n      dup1\n        /* \"contracts/3_estructuras_de_datos.sol\":1494:1497  _id */\n      dup5\n        /* \"contracts/3_estructuras_de_datos.sol\":1485:1513  Customer(_id, _name, _email) */\n      dup2\n      mstore\n      0x20\n      add\n        /* \"contracts/3_estructuras_de_datos.sol\":1499:1504  _name */\n      dup4\n        /* \"contracts/3_estructuras_de_datos.sol\":1485:1513  Customer(_id, _name, _email) */\n      dup2\n      mstore\n      0x20\n      add\n        /* \"contracts/3_estructuras_de_datos.sol\":1506:1512  _email */\n      dup3\n        /* \"contracts/3_estructuras_de_datos.sol\":1485:1513  Customer(_id, _name, _email) */\n      dup2\n      mstore\n      pop\n        /* \"contracts/3_estructuras_de_datos.sol\":1449:1470  address_dataStructure */\n      0x0b\n        /* \"contracts/3_estructuras_de_datos.sol\":1449:1482  address_dataStructure[msg.sender] */\n      0x00\n        /* \"contracts/3_estructuras_de_datos.sol\":1471:1481  msg.sender */\n      caller\n        /* \"contracts/3_estructuras_de_datos.sol\":1449:1482  address_dataStructure[msg.sender] */\n      0xffffffffffffffffffffffffffffffffffffffff\n      and\n      0xffffffffffffffffffffffffffffffffffffffff\n      and\n      dup2\n      mstore\n      0x20\n      add\n      swap1\n      dup2\n      mstore\n      0x20\n      add\n      0x00\n      keccak256\n        /* \"contracts/3_estructuras_de_datos.sol\":1449:1513  address_dataStructure[msg.sender] = Customer(_id, _name, _email) */\n      0x00\n      dup3\n      add\n      mload\n      dup2\n      0x00\n      add\n      sstore\n      0x20\n      dup3\n      add\n      mload\n      dup2\n      0x01\n      add\n      swap1\n      dup2\n      tag_79\n      swap2\n      swap1\n      tag_58\n      jump\t// in\n    tag_79:\n      pop\n      0x40\n      dup3\n      add\n      mload\n      dup2\n      0x02\n      add\n      swap1\n      dup2\n      tag_80\n      swap2\n      swap1\n      tag_58\n      jump\t// in\n    tag_80:\n      pop\n      swap1\n      pop\n      pop\n        /* \"contracts/3_estructuras_de_datos.sol\":1349:1521  function assignDataStructure(uint _id, string memory _name, string memory _email) public {... */\n      pop\n      pop\n      pop\n      jump\t// out\n        /* \"contracts/3_estructuras_de_datos.sol\":892:950  mapping (address => Customer) public address_dataStructure */\n    tag_49:\n      mstore(0x20, 0x0b)\n      dup1\n      0x00\n      mstore\n      keccak256(0x00, 0x40)\n      0x00\n      swap2\n      pop\n      swap1\n      pop\n      dup1\n      0x00\n      add\n      sload\n      swap1\n      dup1\n      0x01\n      add\n      dup1\n      sload\n      tag_81\n      swap1\n      tag_67\n      jump\t// in\n    tag_81:\n      dup1\n      0x1f\n      add\n      0x20\n      dup1\n      swap2\n      div\n      mul\n      0x20\n      add\n      mload(0x40)\n      swap1\n      dup2\n      add\n      0x40\n      mstore\n      dup1\n      swap3\n      swap2\n      swap1\n      dup2\n      dup2\n      mstore\n      0x20\n      add\n      dup3\n      dup1\n      sload\n      tag_82\n      swap1\n      tag_67\n      jump\t// in\n    tag_82:\n      dup1\n      iszero\n      tag_83\n      jumpi\n      dup1\n      0x1f\n      lt\n      tag_84\n      jumpi\n      0x0100\n      dup1\n      dup4\n      sload\n      div\n      mul\n      dup4\n      mstore\n      swap2\n      0x20\n      add\n      swap2\n      jump(tag_83)\n    tag_84:\n      dup3\n      add\n      swap2\n      swap1\n      0x00\n      mstore\n      keccak256(0x00, 0x20)\n      swap1\n    tag_85:\n      dup2\n      sload\n      dup2\n      mstore\n      swap1\n      0x01\n      add\n      swap1\n      0x20\n      add\n      dup1\n      dup4\n      gt\n      tag_85\n      jumpi\n      dup3\n      swap1\n      sub\n      0x1f\n      and\n      dup3\n      add\n      swap2\n    tag_83:\n      pop\n      pop\n      pop\n      pop\n      pop\n      swap1\n      dup1\n      0x02\n      add\n      dup1\n      sload\n      tag_86\n      swap1\n      tag_67\n      jump\t// in\n    tag_86:\n      dup1\n      0x1f\n      add\n      0x20\n      dup1\n      swap2\n      div\n      mul\n      0x20\n      add\n      mload(0x40)\n      swap1\n      dup2\n      add\n      0x40\n      mstore\n      dup1\n      swap3\n      swap2\n      swap1\n      dup2\n      dup2\n      mstore\n      0x20\n      add\n      dup3\n      dup1\n      sload\n      tag_87\n      swap1\n      tag_67\n      jump\t// in\n    tag_87:\n      dup1\n      iszero\n      tag_88\n      jumpi\n      dup1\n      0x1f\n      lt\n      tag_89\n      jumpi\n      0x0100\n      dup1\n      dup4\n      sload\n      div\n      mul\n      dup4\n      mstore\n      swap2\n      0x20\n      add\n      swap2\n      jump(tag_88)\n    tag_89:\n      dup3\n      add\n      swap2\n      swap1\n      0x00\n      mstore\n      keccak256(0x00, 0x20)\n      swap1\n    tag_90:\n      dup2\n      sload\n      dup2\n      mstore\n      swap1\n      0x01\n      add\n      swap1\n      0x20\n      add\n      dup1\n      dup4\n      gt\n      tag_90\n      jumpi\n      dup3\n      swap1\n      sub\n      0x1f\n      and\n      dup3\n      add\n      swap2\n    tag_88:\n      pop\n      pop\n      pop\n      pop\n      pop\n      swap1\n      pop\n      dup4\n      jump\t// out\n        /* \"#utility.yul\":7:82   */\n    tag_91:\n        /* \"#utility.yul\":40:46   */\n      0x00\n        /* \"#utility.yul\":73:75   */\n      0x40\n        /* \"#utility.yul\":67:76   */\n      mload\n        /* \"#utility.yul\":57:76   */\n      swap1\n      pop\n        /* \"#utility.yul\":7:82   */\n      swap1\n      jump\t// out\n        /* \"#utility.yul\":88:205   */\n    tag_92:\n        /* \"#utility.yul\":197:198   */\n      0x00\n        /* \"#utility.yul\":194:195   */\n      dup1\n        /* \"#utility.yul\":187:199   */\n      revert\n        /* \"#utility.yul\":211:328   */\n    tag_93:\n        /* \"#utility.yul\":320:321   */\n      0x00\n        /* \"#utility.yul\":317:318   */\n      dup1\n        /* \"#utility.yul\":310:322   */\n      revert\n        /* \"#utility.yul\":334:411   */\n    tag_94:\n        /* \"#utility.yul\":371:378   */\n      0x00\n        /* \"#utility.yul\":400:405   */\n      dup2\n        /* \"#utility.yul\":389:405   */\n      swap1\n      pop\n        /* \"#utility.yul\":334:411   */\n      swap2\n      swap1\n      pop\n      jump\t// out\n        /* \"#utility.yul\":417:539   */\n    tag_95:\n        /* \"#utility.yul\":490:514   */\n      tag_140\n        /* \"#utility.yul\":508:513   */\n      dup2\n        /* \"#utility.yul\":490:514   */\n      tag_94\n      jump\t// in\n    tag_140:\n        /* \"#utility.yul\":483:488   */\n      dup2\n        /* \"#utility.yul\":480:515   */\n      eq\n        /* \"#utility.yul\":470:533   */\n      tag_141\n      jumpi\n        /* \"#utility.yul\":529:530   */\n      0x00\n        /* \"#utility.yul\":526:527   */\n      dup1\n        /* \"#utility.yul\":519:531   */\n      revert\n        /* \"#utility.yul\":470:533   */\n    tag_141:\n        /* \"#utility.yul\":417:539   */\n      pop\n      jump\t// out\n        /* \"#utility.yul\":545:684   */\n    tag_96:\n        /* \"#utility.yul\":591:596   */\n      0x00\n        /* \"#utility.yul\":629:635   */\n      dup2\n        /* \"#utility.yul\":616:636   */\n      calldataload\n        /* \"#utility.yul\":607:636   */\n      swap1\n      pop\n        /* \"#utility.yul\":645:678   */\n      tag_143\n        /* \"#utility.yul\":672:677   */\n      dup2\n        /* \"#utility.yul\":645:678   */\n      tag_95\n      jump\t// in\n    tag_143:\n        /* \"#utility.yul\":545:684   */\n      swap3\n      swap2\n      pop\n      pop\n      jump\t// out\n        /* \"#utility.yul\":690:1019   */\n    tag_15:\n        /* \"#utility.yul\":749:755   */\n      0x00\n        /* \"#utility.yul\":798:800   */\n      0x20\n        /* \"#utility.yul\":786:795   */\n      dup3\n        /* \"#utility.yul\":777:784   */\n      dup5\n        /* \"#utility.yul\":773:796   */\n      sub\n        /* \"#utility.yul\":769:801   */\n      slt\n        /* \"#utility.yul\":766:885   */\n      iszero\n      tag_145\n      jumpi\n        /* \"#utility.yul\":804:883   */\n      tag_146\n      tag_92\n      jump\t// in\n    tag_146:\n        /* \"#utility.yul\":766:885   */\n    tag_145:\n        /* \"#utility.yul\":924:925   */\n      0x00\n        /* \"#utility.yul\":949:1002   */\n      tag_147\n        /* \"#utility.yul\":994:1001   */\n      dup5\n        /* \"#utility.yul\":985:991   */\n      dup3\n        /* \"#utility.yul\":974:983   */\n      dup6\n        /* \"#utility.yul\":970:992   */\n      add\n        /* \"#utility.yul\":949:1002   */\n      tag_96\n      jump\t// in\n    tag_147:\n        /* \"#utility.yul\":939:1002   */\n      swap2\n      pop\n        /* \"#utility.yul\":895:1012   */\n      pop\n        /* \"#utility.yul\":690:1019   */\n      swap3\n      swap2\n      pop\n      pop\n      jump\t// out\n        /* \"#utility.yul\":1025:1143   */\n    tag_97:\n        /* \"#utility.yul\":1112:1136   */\n      tag_149\n        /* \"#utility.yul\":1130:1135   */\n      dup2\n        /* \"#utility.yul\":1112:1136   */\n      tag_94\n      jump\t// in\n    tag_149:\n        /* \"#utility.yul\":1107:1110   */\n      dup3\n        /* \"#utility.yul\":1100:1137   */\n      mstore\n        /* \"#utility.yul\":1025:1143   */\n      pop\n      pop\n      jump\t// out\n        /* \"#utility.yul\":1149:1371   */\n    tag_18:\n        /* \"#utility.yul\":1242:1246   */\n      0x00\n        /* \"#utility.yul\":1280:1282   */\n      0x20\n        /* \"#utility.yul\":1269:1278   */\n      dup3\n        /* \"#utility.yul\":1265:1283   */\n      add\n        /* \"#utility.yul\":1257:1283   */\n      swap1\n      pop\n        /* \"#utility.yul\":1293:1364   */\n      tag_151\n        /* \"#utility.yul\":1361:1362   */\n      0x00\n        /* \"#utility.yul\":1350:1359   */\n      dup4\n        /* \"#utility.yul\":1346:1363   */\n      add\n        /* \"#utility.yul\":1337:1343   */\n      dup5\n        /* \"#utility.yul\":1293:1364   */\n      tag_97\n      jump\t// in\n    tag_151:\n        /* \"#utility.yul\":1149:1371   */\n      swap3\n      swap2\n      pop\n      pop\n      jump\t// out\n        /* \"#utility.yul\":1377:1494   */\n    tag_98:\n        /* \"#utility.yul\":1486:1487   */\n      0x00\n        /* \"#utility.yul\":1483:1484   */\n      dup1\n        /* \"#utility.yul\":1476:1488   */\n      revert\n        /* \"#utility.yul\":1500:1617   */\n    tag_99:\n        /* \"#utility.yul\":1609:1610   */\n      0x00\n        /* \"#utility.yul\":1606:1607   */\n      dup1\n        /* \"#utility.yul\":1599:1611   */\n      revert\n        /* \"#utility.yul\":1623:1725   */\n    tag_100:\n        /* \"#utility.yul\":1664:1670   */\n      0x00\n        /* \"#utility.yul\":1715:1717   */\n      0x1f\n        /* \"#utility.yul\":1711:1718   */\n      not\n        /* \"#utility.yul\":1706:1708   */\n      0x1f\n        /* \"#utility.yul\":1699:1704   */\n      dup4\n        /* \"#utility.yul\":1695:1709   */\n      add\n        /* \"#utility.yul\":1691:1719   */\n      and\n        /* \"#utility.yul\":1681:1719   */\n      swap1\n      pop\n        /* \"#utility.yul\":1623:1725   */\n      swap2\n      swap1\n      pop\n      jump\t// out\n        /* \"#utility.yul\":1731:1911   */\n    tag_101:\n        /* \"#utility.yul\":1779:1856   */\n      0x4e487b7100000000000000000000000000000000000000000000000000000000\n        /* \"#utility.yul\":1776:1777   */\n      0x00\n        /* \"#utility.yul\":1769:1857   */\n      mstore\n        /* \"#utility.yul\":1876:1880   */\n      0x41\n        /* \"#utility.yul\":1873:1874   */\n      0x04\n        /* \"#utility.yul\":1866:1881   */\n      mstore\n        /* \"#utility.yul\":1900:1904   */\n      0x24\n        /* \"#utility.yul\":1897:1898   */\n      0x00\n        /* \"#utility.yul\":1890:1905   */\n      revert\n        /* \"#utility.yul\":1917:2198   */\n    tag_102:\n        /* \"#utility.yul\":2000:2027   */\n      tag_157\n        /* \"#utility.yul\":2022:2026   */\n      dup3\n        /* \"#utility.yul\":2000:2027   */\n      tag_100\n      jump\t// in\n    tag_157:\n        /* \"#utility.yul\":1992:1998   */\n      dup2\n        /* \"#utility.yul\":1988:2028   */\n      add\n        /* \"#utility.yul\":2130:2136   */\n      dup2\n        /* \"#utility.yul\":2118:2128   */\n      dup2\n        /* \"#utility.yul\":2115:2137   */\n      lt\n        /* \"#utility.yul\":2094:2112   */\n      0xffffffffffffffff\n        /* \"#utility.yul\":2082:2092   */\n      dup3\n        /* \"#utility.yul\":2079:2113   */\n      gt\n        /* \"#utility.yul\":2076:2138   */\n      or\n        /* \"#utility.yul\":2073:2161   */\n      iszero\n      tag_158\n      jumpi\n        /* \"#utility.yul\":2141:2159   */\n      tag_159\n      tag_101\n      jump\t// in\n    tag_159:\n        /* \"#utility.yul\":2073:2161   */\n    tag_158:\n        /* \"#utility.yul\":2181:2191   */\n      dup1\n        /* \"#utility.yul\":2177:2179   */\n      0x40\n        /* \"#utility.yul\":2170:2192   */\n      mstore\n        /* \"#utility.yul\":1960:2198   */\n      pop\n        /* \"#utility.yul\":1917:2198   */\n      pop\n      pop\n      jump\t// out\n        /* \"#utility.yul\":2204:2333   */\n    tag_103:\n        /* \"#utility.yul\":2238:2244   */\n      0x00\n        /* \"#utility.yul\":2265:2285   */\n      tag_161\n      tag_91\n      jump\t// in\n    tag_161:\n        /* \"#utility.yul\":2255:2285   */\n      swap1\n      pop\n        /* \"#utility.yul\":2294:2327   */\n      tag_162\n        /* \"#utility.yul\":2322:2326   */\n      dup3\n        /* \"#utility.yul\":2314:2320   */\n      dup3\n        /* \"#utility.yul\":2294:2327   */\n      tag_102\n      jump\t// in\n    tag_162:\n        /* \"#utility.yul\":2204:2333   */\n      swap2\n      swap1\n      pop\n      jump\t// out\n        /* \"#utility.yul\":2339:2647   */\n    tag_104:\n        /* \"#utility.yul\":2401:2405   */\n      0x00\n        /* \"#utility.yul\":2491:2509   */\n      0xffffffffffffffff\n        /* \"#utility.yul\":2483:2489   */\n      dup3\n        /* \"#utility.yul\":2480:2510   */\n      gt\n        /* \"#utility.yul\":2477:2533   */\n      iszero\n      tag_164\n      jumpi\n        /* \"#utility.yul\":2513:2531   */\n      tag_165\n      tag_101\n      jump\t// in\n    tag_165:\n        /* \"#utility.yul\":2477:2533   */\n    tag_164:\n        /* \"#utility.yul\":2551:2580   */\n      tag_166\n        /* \"#utility.yul\":2573:2579   */\n      dup3\n        /* \"#utility.yul\":2551:2580   */\n      tag_100\n      jump\t// in\n    tag_166:\n        /* \"#utility.yul\":2543:2580   */\n      swap1\n      pop\n        /* \"#utility.yul\":2635:2639   */\n      0x20\n        /* \"#utility.yul\":2629:2633   */\n      dup2\n        /* \"#utility.yul\":2625:2640   */\n      add\n        /* \"#utility.yul\":2617:2640   */\n      swap1\n      pop\n        /* \"#utility.yul\":2339:2647   */\n      swap2\n      swap1\n      pop\n      jump\t// out\n        /* \"#utility.yul\":2653:2801   */\n    tag_105:\n        /* \"#utility.yul\":2751:2757   */\n      dup3\n        /* \"#utility.yul\":2746:2749   */\n      dup2\n        /* \"#utility.yul\":2741:2744   */\n      dup4\n        /* \"#utility.yul\":2728:2758   */\n      calldatacopy\n        /* \"#utility.yul\":2792:2793   */\n      0x00\n        /* \"#utility.yul\":2783:2789   */\n      dup4\n        /* \"#utility.yul\":2778:2781   */\n      dup4\n        /* \"#utility.yul\":2774:2790   */\n      add\n        /* \"#utility.yul\":2767:2794   */\n      mstore\n        /* \"#utility.yul\":2653:2801   */\n      pop\n      pop\n      pop\n      jump\t// out\n        /* \"#utility.yul\":2807:3232   */\n    tag_106:\n        /* \"#utility.yul\":2885:2890   */\n      0x00\n        /* \"#utility.yul\":2910:2976   */\n      tag_169\n        /* \"#utility.yul\":2926:2975   */\n      tag_170\n        /* \"#utility.yul\":2968:2974   */\n      dup5\n        /* \"#utility.yul\":2926:2975   */\n      tag_104\n      jump\t// in\n    tag_170:\n        /* \"#utility.yul\":2910:2976   */\n      tag_103\n      jump\t// in\n    tag_169:\n        /* \"#utility.yul\":2901:2976   */\n      swap1\n      pop\n        /* \"#utility.yul\":2999:3005   */\n      dup3\n        /* \"#utility.yul\":2992:2997   */\n      dup2\n        /* \"#utility.yul\":2985:3006   */\n      mstore\n        /* \"#utility.yul\":3037:3041   */\n      0x20\n        /* \"#utility.yul\":3030:3035   */\n      dup2\n        /* \"#utility.yul\":3026:3042   */\n      add\n        /* \"#utility.yul\":3075:3078   */\n      dup5\n        /* \"#utility.yul\":3066:3072   */\n      dup5\n        /* \"#utility.yul\":3061:3064   */\n      dup5\n        /* \"#utility.yul\":3057:3073   */\n      add\n        /* \"#utility.yul\":3054:3079   */\n      gt\n        /* \"#utility.yul\":3051:3163   */\n      iszero\n      tag_171\n      jumpi\n        /* \"#utility.yul\":3082:3161   */\n      tag_172\n      tag_99\n      jump\t// in\n    tag_172:\n        /* \"#utility.yul\":3051:3163   */\n    tag_171:\n        /* \"#utility.yul\":3172:3226   */\n      tag_173\n        /* \"#utility.yul\":3219:3225   */\n      dup5\n        /* \"#utility.yul\":3214:3217   */\n      dup3\n        /* \"#utility.yul\":3209:3212   */\n      dup6\n        /* \"#utility.yul\":3172:3226   */\n      tag_105\n      jump\t// in\n    tag_173:\n        /* \"#utility.yul\":2891:3232   */\n      pop\n        /* \"#utility.yul\":2807:3232   */\n      swap4\n      swap3\n      pop\n      pop\n      pop\n      jump\t// out\n        /* \"#utility.yul\":3252:3592   */\n    tag_107:\n        /* \"#utility.yul\":3308:3313   */\n      0x00\n        /* \"#utility.yul\":3357:3360   */\n      dup3\n        /* \"#utility.yul\":3350:3354   */\n      0x1f\n        /* \"#utility.yul\":3342:3348   */\n      dup4\n        /* \"#utility.yul\":3338:3355   */\n      add\n        /* \"#utility.yul\":3334:3361   */\n      slt\n        /* \"#utility.yul\":3324:3446   */\n      tag_175\n      jumpi\n        /* \"#utility.yul\":3365:3444   */\n      tag_176\n      tag_98\n      jump\t// in\n    tag_176:\n        /* \"#utility.yul\":3324:3446   */\n    tag_175:\n        /* \"#utility.yul\":3482:3488   */\n      dup2\n        /* \"#utility.yul\":3469:3489   */\n      calldataload\n        /* \"#utility.yul\":3507:3586   */\n      tag_177\n        /* \"#utility.yul\":3582:3585   */\n      dup5\n        /* \"#utility.yul\":3574:3580   */\n      dup3\n        /* \"#utility.yul\":3567:3571   */\n      0x20\n        /* \"#utility.yul\":3559:3565   */\n      dup7\n        /* \"#utility.yul\":3555:3572   */\n      add\n        /* \"#utility.yul\":3507:3586   */\n      tag_106\n      jump\t// in\n    tag_177:\n        /* \"#utility.yul\":3498:3586   */\n      swap2\n      pop\n        /* \"#utility.yul\":3314:3592   */\n      pop\n        /* \"#utility.yul\":3252:3592   */\n      swap3\n      swap2\n      pop\n      pop\n      jump\t// out\n        /* \"#utility.yul\":3598:4252   */\n    tag_21:\n        /* \"#utility.yul\":3676:3682   */\n      0x00\n        /* \"#utility.yul\":3684:3690   */\n      dup1\n        /* \"#utility.yul\":3733:3735   */\n      0x40\n        /* \"#utility.yul\":3721:3730   */\n      dup4\n        /* \"#utility.yul\":3712:3719   */\n      dup6\n        /* \"#utility.yul\":3708:3731   */\n      sub\n        /* \"#utility.yul\":3704:3736   */\n      slt\n        /* \"#utility.yul\":3701:3820   */\n      iszero\n      tag_179\n      jumpi\n        /* \"#utility.yul\":3739:3818   */\n      tag_180\n      tag_92\n      jump\t// in\n    tag_180:\n        /* \"#utility.yul\":3701:3820   */\n    tag_179:\n        /* \"#utility.yul\":3887:3888   */\n      0x00\n        /* \"#utility.yul\":3876:3885   */\n      dup4\n        /* \"#utility.yul\":3872:3889   */\n      add\n        /* \"#utility.yul\":3859:3890   */\n      calldataload\n        /* \"#utility.yul\":3917:3935   */\n      0xffffffffffffffff\n        /* \"#utility.yul\":3909:3915   */\n      dup2\n        /* \"#utility.yul\":3906:3936   */\n      gt\n        /* \"#utility.yul\":3903:4020   */\n      iszero\n      tag_181\n      jumpi\n        /* \"#utility.yul\":3939:4018   */\n      tag_182\n      tag_93\n      jump\t// in\n    tag_182:\n        /* \"#utility.yul\":3903:4020   */\n    tag_181:\n        /* \"#utility.yul\":4044:4107   */\n      tag_183\n        /* \"#utility.yul\":4099:4106   */\n      dup6\n        /* \"#utility.yul\":4090:4096   */\n      dup3\n        /* \"#utility.yul\":4079:4088   */\n      dup7\n        /* \"#utility.yul\":4075:4097   */\n      add\n        /* \"#utility.yul\":4044:4107   */\n      tag_107\n      jump\t// in\n    tag_183:\n        /* \"#utility.yul\":4034:4107   */\n      swap3\n      pop\n        /* \"#utility.yul\":3830:4117   */\n      pop\n        /* \"#utility.yul\":4156:4158   */\n      0x20\n        /* \"#utility.yul\":4182:4235   */\n      tag_184\n        /* \"#utility.yul\":4227:4234   */\n      dup6\n        /* \"#utility.yul\":4218:4224   */\n      dup3\n        /* \"#utility.yul\":4207:4216   */\n      dup7\n        /* \"#utility.yul\":4203:4225   */\n      add\n        /* \"#utility.yul\":4182:4235   */\n      tag_96\n      jump\t// in\n    tag_184:\n        /* \"#utility.yul\":4172:4235   */\n      swap2\n      pop\n        /* \"#utility.yul\":4127:4245   */\n      pop\n        /* \"#utility.yul\":3598:4252   */\n      swap3\n      pop\n      swap3\n      swap1\n      pop\n      jump\t// out\n        /* \"#utility.yul\":4258:5237   */\n    tag_26:\n        /* \"#utility.yul\":4355:4361   */\n      0x00\n        /* \"#utility.yul\":4363:4369   */\n      dup1\n        /* \"#utility.yul\":4371:4377   */\n      0x00\n        /* \"#utility.yul\":4420:4422   */\n      0x60\n        /* \"#utility.yul\":4408:4417   */\n      dup5\n        /* \"#utility.yul\":4399:4406   */\n      dup7\n        /* \"#utility.yul\":4395:4418   */\n      sub\n        /* \"#utility.yul\":4391:4423   */\n      slt\n        /* \"#utility.yul\":4388:4507   */\n      iszero\n      tag_186\n      jumpi\n        /* \"#utility.yul\":4426:4505   */\n      tag_187\n      tag_92\n      jump\t// in\n    tag_187:\n        /* \"#utility.yul\":4388:4507   */\n    tag_186:\n        /* \"#utility.yul\":4546:4547   */\n      0x00\n        /* \"#utility.yul\":4571:4624   */\n      tag_188\n        /* \"#utility.yul\":4616:4623   */\n      dup7\n        /* \"#utility.yul\":4607:4613   */\n      dup3\n        /* \"#utility.yul\":4596:4605   */\n      dup8\n        /* \"#utility.yul\":4592:4614   */\n      add\n        /* \"#utility.yul\":4571:4624   */\n      tag_96\n      jump\t// in\n    tag_188:\n        /* \"#utility.yul\":4561:4624   */\n      swap4\n      pop\n        /* \"#utility.yul\":4517:4634   */\n      pop\n        /* \"#utility.yul\":4701:4703   */\n      0x20\n        /* \"#utility.yul\":4690:4699   */\n      dup5\n        /* \"#utility.yul\":4686:4704   */\n      add\n        /* \"#utility.yul\":4673:4705   */\n      calldataload\n        /* \"#utility.yul\":4732:4750   */\n      0xffffffffffffffff\n        /* \"#utility.yul\":4724:4730   */\n      dup2\n        /* \"#utility.yul\":4721:4751   */\n      gt\n        /* \"#utility.yul\":4718:4835   */\n      iszero\n      tag_189\n      jumpi\n        /* \"#utility.yul\":4754:4833   */\n      tag_190\n      tag_93\n      jump\t// in\n    tag_190:\n        /* \"#utility.yul\":4718:4835   */\n    tag_189:\n        /* \"#utility.yul\":4859:4922   */\n      tag_191\n        /* \"#utility.yul\":4914:4921   */\n      dup7\n        /* \"#utility.yul\":4905:4911   */\n      dup3\n        /* \"#utility.yul\":4894:4903   */\n      dup8\n        /* \"#utility.yul\":4890:4912   */\n      add\n        /* \"#utility.yul\":4859:4922   */\n      tag_107\n      jump\t// in\n    tag_191:\n        /* \"#utility.yul\":4849:4922   */\n      swap3\n      pop\n        /* \"#utility.yul\":4644:4932   */\n      pop\n        /* \"#utility.yul\":4999:5001   */\n      0x40\n        /* \"#utility.yul\":4988:4997   */\n      dup5\n        /* \"#utility.yul\":4984:5002   */\n      add\n        /* \"#utility.yul\":4971:5003   */\n      calldataload\n        /* \"#utility.yul\":5030:5048   */\n      0xffffffffffffffff\n        /* \"#utility.yul\":5022:5028   */\n      dup2\n        /* \"#utility.yul\":5019:5049   */\n      gt\n        /* \"#utility.yul\":5016:5133   */\n      iszero\n      tag_192\n      jumpi\n        /* \"#utility.yul\":5052:5131   */\n      tag_193\n      tag_93\n      jump\t// in\n    tag_193:\n        /* \"#utility.yul\":5016:5133   */\n    tag_192:\n        /* \"#utility.yul\":5157:5220   */\n      tag_194\n        /* \"#utility.yul\":5212:5219   */\n      dup7\n        /* \"#utility.yul\":5203:5209   */\n      dup3\n        /* \"#utility.yul\":5192:5201   */\n      dup8\n        /* \"#utility.yul\":5188:5210   */\n      add\n        /* \"#utility.yul\":5157:5220   */\n      tag_107\n      jump\t// in\n    tag_194:\n        /* \"#utility.yul\":5147:5220   */\n      swap2\n      pop\n        /* \"#utility.yul\":4942:5230   */\n      pop\n        /* \"#utility.yul\":4258:5237   */\n      swap3\n      pop\n      swap3\n      pop\n      swap3\n      jump\t// out\n        /* \"#utility.yul\":5243:5369   */\n    tag_108:\n        /* \"#utility.yul\":5280:5287   */\n      0x00\n        /* \"#utility.yul\":5320:5362   */\n      0xffffffffffffffffffffffffffffffffffffffff\n        /* \"#utility.yul\":5313:5318   */\n      dup3\n        /* \"#utility.yul\":5309:5363   */\n      and\n        /* \"#utility.yul\":5298:5363   */\n      swap1\n      pop\n        /* \"#utility.yul\":5243:5369   */\n      swap2\n      swap1\n      pop\n      jump\t// out\n        /* \"#utility.yul\":5375:5471   */\n    tag_109:\n        /* \"#utility.yul\":5412:5419   */\n      0x00\n        /* \"#utility.yul\":5441:5465   */\n      tag_197\n        /* \"#utility.yul\":5459:5464   */\n      dup3\n        /* \"#utility.yul\":5441:5465   */\n      tag_108\n      jump\t// in\n    tag_197:\n        /* \"#utility.yul\":5430:5465   */\n      swap1\n      pop\n        /* \"#utility.yul\":5375:5471   */\n      swap2\n      swap1\n      pop\n      jump\t// out\n        /* \"#utility.yul\":5477:5599   */\n    tag_110:\n        /* \"#utility.yul\":5550:5574   */\n      tag_199\n        /* \"#utility.yul\":5568:5573   */\n      dup2\n        /* \"#utility.yul\":5550:5574   */\n      tag_109\n      jump\t// in\n    tag_199:\n        /* \"#utility.yul\":5543:5548   */\n      dup2\n        /* \"#utility.yul\":5540:5575   */\n      eq\n        /* \"#utility.yul\":5530:5593   */\n      tag_200\n      jumpi\n        /* \"#utility.yul\":5589:5590   */\n      0x00\n        /* \"#utility.yul\":5586:5587   */\n      dup1\n        /* \"#utility.yul\":5579:5591   */\n      revert\n        /* \"#utility.yul\":5530:5593   */\n    tag_200:\n        /* \"#utility.yul\":5477:5599   */\n      pop\n      jump\t// out\n        /* \"#utility.yul\":5605:5744   */\n    tag_111:\n        /* \"#utility.yul\":5651:5656   */\n      0x00\n        /* \"#utility.yul\":5689:5695   */\n      dup2\n        /* \"#utility.yul\":5676:5696   */\n      calldataload\n        /* \"#utility.yul\":5667:5696   */\n      swap1\n      pop\n        /* \"#utility.yul\":5705:5738   */\n      tag_202\n        /* \"#utility.yul\":5732:5737   */\n      dup2\n        /* \"#utility.yul\":5705:5738   */\n      tag_110\n      jump\t// in\n    tag_202:\n        /* \"#utility.yul\":5605:5744   */\n      swap3\n      swap2\n      pop\n      pop\n      jump\t// out\n        /* \"#utility.yul\":5750:6079   */\n    tag_30:\n        /* \"#utility.yul\":5809:5815   */\n      0x00\n        /* \"#utility.yul\":5858:5860   */\n      0x20\n        /* \"#utility.yul\":5846:5855   */\n      dup3\n        /* \"#utility.yul\":5837:5844   */\n      dup5\n        /* \"#utility.yul\":5833:5856   */\n      sub\n        /* \"#utility.yul\":5829:5861   */\n      slt\n        /* \"#utility.yul\":5826:5945   */\n      iszero\n      tag_204\n      jumpi\n        /* \"#utility.yul\":5864:5943   */\n      tag_205\n      tag_92\n      jump\t// in\n    tag_205:\n        /* \"#utility.yul\":5826:5945   */\n    tag_204:\n        /* \"#utility.yul\":5984:5985   */\n      0x00\n        /* \"#utility.yul\":6009:6062   */\n      tag_206\n        /* \"#utility.yul\":6054:6061   */\n      dup5\n        /* \"#utility.yul\":6045:6051   */\n      dup3\n        /* \"#utility.yul\":6034:6043   */\n      dup6\n        /* \"#utility.yul\":6030:6052   */\n      add\n        /* \"#utility.yul\":6009:6062   */\n      tag_111\n      jump\t// in\n    tag_206:\n        /* \"#utility.yul\":5999:6062   */\n      swap2\n      pop\n        /* \"#utility.yul\":5955:6072   */\n      pop\n        /* \"#utility.yul\":5750:6079   */\n      swap3\n      swap2\n      pop\n      pop\n      jump\t// out\n        /* \"#utility.yul\":6085:6184   */\n    tag_112:\n        /* \"#utility.yul\":6137:6143   */\n      0x00\n        /* \"#utility.yul\":6171:6176   */\n      dup2\n        /* \"#utility.yul\":6165:6177   */\n      mload\n        /* \"#utility.yul\":6155:6177   */\n      swap1\n      pop\n        /* \"#utility.yul\":6085:6184   */\n      swap2\n      swap1\n      pop\n      jump\t// out\n        /* \"#utility.yul\":6190:6359   */\n    tag_113:\n        /* \"#utility.yul\":6274:6285   */\n      0x00\n        /* \"#utility.yul\":6308:6314   */\n      dup3\n        /* \"#utility.yul\":6303:6306   */\n      dup3\n        /* \"#utility.yul\":6296:6315   */\n      mstore\n        /* \"#utility.yul\":6348:6352   */\n      0x20\n        /* \"#utility.yul\":6343:6346   */\n      dup3\n        /* \"#utility.yul\":6339:6353   */\n      add\n        /* \"#utility.yul\":6324:6353   */\n      swap1\n      pop\n        /* \"#utility.yul\":6190:6359   */\n      swap3\n      swap2\n      pop\n      pop\n      jump\t// out\n        /* \"#utility.yul\":6365:6504   */\n    tag_114:\n        /* \"#utility.yul\":6454:6460   */\n      dup3\n        /* \"#utility.yul\":6449:6452   */\n      dup2\n        /* \"#utility.yul\":6444:6447   */\n      dup4\n        /* \"#utility.yul\":6438:6461   */\n      mcopy\n        /* \"#utility.yul\":6495:6496   */\n      0x00\n        /* \"#utility.yul\":6486:6492   */\n      dup4\n        /* \"#utility.yul\":6481:6484   */\n      dup4\n        /* \"#utility.yul\":6477:6493   */\n      add\n        /* \"#utility.yul\":6470:6497   */\n      mstore\n        /* \"#utility.yul\":6365:6504   */\n      pop\n      pop\n      pop\n      jump\t// out\n        /* \"#utility.yul\":6510:6887   */\n    tag_115:\n        /* \"#utility.yul\":6598:6601   */\n      0x00\n        /* \"#utility.yul\":6626:6665   */\n      tag_211\n        /* \"#utility.yul\":6659:6664   */\n      dup3\n        /* \"#utility.yul\":6626:6665   */\n      tag_112\n      jump\t// in\n    tag_211:\n        /* \"#utility.yul\":6681:6752   */\n      tag_212\n        /* \"#utility.yul\":6745:6751   */\n      dup2\n        /* \"#utility.yul\":6740:6743   */\n      dup6\n        /* \"#utility.yul\":6681:6752   */\n      tag_113\n      jump\t// in\n    tag_212:\n        /* \"#utility.yul\":6674:6752   */\n      swap4\n      pop\n        /* \"#utility.yul\":6761:6826   */\n      tag_213\n        /* \"#utility.yul\":6819:6825   */\n      dup2\n        /* \"#utility.yul\":6814:6817   */\n      dup6\n        /* \"#utility.yul\":6807:6811   */\n      0x20\n        /* \"#utility.yul\":6800:6805   */\n      dup7\n        /* \"#utility.yul\":6796:6812   */\n      add\n        /* \"#utility.yul\":6761:6826   */\n      tag_114\n      jump\t// in\n    tag_213:\n        /* \"#utility.yul\":6851:6880   */\n      tag_214\n        /* \"#utility.yul\":6873:6879   */\n      dup2\n        /* \"#utility.yul\":6851:6880   */\n      tag_100\n      jump\t// in\n    tag_214:\n        /* \"#utility.yul\":6846:6849   */\n      dup5\n        /* \"#utility.yul\":6842:6881   */\n      add\n        /* \"#utility.yul\":6835:6881   */\n      swap2\n      pop\n        /* \"#utility.yul\":6602:6887   */\n      pop\n        /* \"#utility.yul\":6510:6887   */\n      swap3\n      swap2\n      pop\n      pop\n      jump\t// out\n        /* \"#utility.yul\":6893:7517   */\n    tag_40:\n        /* \"#utility.yul\":7082:7086   */\n      0x00\n        /* \"#utility.yul\":7120:7122   */\n      0x60\n        /* \"#utility.yul\":7109:7118   */\n      dup3\n        /* \"#utility.yul\":7105:7123   */\n      add\n        /* \"#utility.yul\":7097:7123   */\n      swap1\n      pop\n        /* \"#utility.yul\":7133:7204   */\n      tag_216\n        /* \"#utility.yul\":7201:7202   */\n      0x00\n        /* \"#utility.yul\":7190:7199   */\n      dup4\n        /* \"#utility.yul\":7186:7203   */\n      add\n        /* \"#utility.yul\":7177:7183   */\n      dup7\n        /* \"#utility.yul\":7133:7204   */\n      tag_97\n      jump\t// in\n    tag_216:\n        /* \"#utility.yul\":7251:7260   */\n      dup2\n        /* \"#utility.yul\":7245:7249   */\n      dup2\n        /* \"#utility.yul\":7241:7261   */\n      sub\n        /* \"#utility.yul\":7236:7238   */\n      0x20\n        /* \"#utility.yul\":7225:7234   */\n      dup4\n        /* \"#utility.yul\":7221:7239   */\n      add\n        /* \"#utility.yul\":7214:7262   */\n      mstore\n        /* \"#utility.yul\":7279:7357   */\n      tag_217\n        /* \"#utility.yul\":7352:7356   */\n      dup2\n        /* \"#utility.yul\":7343:7349   */\n      dup6\n        /* \"#utility.yul\":7279:7357   */\n      tag_115\n      jump\t// in\n    tag_217:\n        /* \"#utility.yul\":7271:7357   */\n      swap1\n      pop\n        /* \"#utility.yul\":7404:7413   */\n      dup2\n        /* \"#utility.yul\":7398:7402   */\n      dup2\n        /* \"#utility.yul\":7394:7414   */\n      sub\n        /* \"#utility.yul\":7389:7391   */\n      0x40\n        /* \"#utility.yul\":7378:7387   */\n      dup4\n        /* \"#utility.yul\":7374:7392   */\n      add\n        /* \"#utility.yul\":7367:7415   */\n      mstore\n        /* \"#utility.yul\":7432:7510   */\n      tag_218\n        /* \"#utility.yul\":7505:7509   */\n      dup2\n        /* \"#utility.yul\":7496:7502   */\n      dup5\n        /* \"#utility.yul\":7432:7510   */\n      tag_115\n      jump\t// in\n    tag_218:\n        /* \"#utility.yul\":7424:7510   */\n      swap1\n      pop\n        /* \"#utility.yul\":6893:7517   */\n      swap5\n      swap4\n      pop\n      pop\n      pop\n      pop\n      jump\t// out\n        /* \"#utility.yul\":7523:7703   */\n    tag_116:\n        /* \"#utility.yul\":7571:7648   */\n      0x4e487b7100000000000000000000000000000000000000000000000000000000\n        /* \"#utility.yul\":7568:7569   */\n      0x00\n        /* \"#utility.yul\":7561:7649   */\n      mstore\n        /* \"#utility.yul\":7668:7672   */\n      0x22\n        /* \"#utility.yul\":7665:7666   */\n      0x04\n        /* \"#utility.yul\":7658:7673   */\n      mstore\n        /* \"#utility.yul\":7692:7696   */\n      0x24\n        /* \"#utility.yul\":7689:7690   */\n      0x00\n        /* \"#utility.yul\":7682:7697   */\n      revert\n        /* \"#utility.yul\":7709:8029   */\n    tag_67:\n        /* \"#utility.yul\":7753:7759   */\n      0x00\n        /* \"#utility.yul\":7790:7791   */\n      0x02\n        /* \"#utility.yul\":7784:7788   */\n      dup3\n        /* \"#utility.yul\":7780:7792   */\n      div\n        /* \"#utility.yul\":7770:7792   */\n      swap1\n      pop\n        /* \"#utility.yul\":7837:7838   */\n      0x01\n        /* \"#utility.yul\":7831:7835   */\n      dup3\n        /* \"#utility.yul\":7827:7839   */\n      and\n        /* \"#utility.yul\":7858:7876   */\n      dup1\n        /* \"#utility.yul\":7848:7929   */\n      tag_221\n      jumpi\n        /* \"#utility.yul\":7914:7918   */\n      0x7f\n        /* \"#utility.yul\":7906:7912   */\n      dup3\n        /* \"#utility.yul\":7902:7919   */\n      and\n        /* \"#utility.yul\":7892:7919   */\n      swap2\n      pop\n        /* \"#utility.yul\":7848:7929   */\n    tag_221:\n        /* \"#utility.yul\":7976:7978   */\n      0x20\n        /* \"#utility.yul\":7968:7974   */\n      dup3\n        /* \"#utility.yul\":7965:7979   */\n      lt\n        /* \"#utility.yul\":7945:7963   */\n      dup2\n        /* \"#utility.yul\":7942:7980   */\n      sub\n        /* \"#utility.yul\":7939:8023   */\n      tag_222\n      jumpi\n        /* \"#utility.yul\":7995:8013   */\n      tag_223\n      tag_116\n      jump\t// in\n    tag_223:\n        /* \"#utility.yul\":7939:8023   */\n    tag_222:\n        /* \"#utility.yul\":7760:8029   */\n      pop\n        /* \"#utility.yul\":7709:8029   */\n      swap2\n      swap1\n      pop\n      jump\t// out\n        /* \"#utility.yul\":8035:8176   */\n    tag_117:\n        /* \"#utility.yul\":8084:8088   */\n      0x00\n        /* \"#utility.yul\":8107:8110   */\n      dup2\n        /* \"#utility.yul\":8099:8110   */\n      swap1\n      pop\n        /* \"#utility.yul\":8130:8133   */\n      dup2\n        /* \"#utility.yul\":8127:8128   */\n      0x00\n        /* \"#utility.yul\":8120:8134   */\n      mstore\n        /* \"#utility.yul\":8164:8168   */\n      0x20\n        /* \"#utility.yul\":8161:8162   */\n      0x00\n        /* \"#utility.yul\":8151:8169   */\n      keccak256\n        /* \"#utility.yul\":8143:8169   */\n      swap1\n      pop\n        /* \"#utility.yul\":8035:8176   */\n      swap2\n      swap1\n      pop\n      jump\t// out\n        /* \"#utility.yul\":8182:8275   */\n    tag_118:\n        /* \"#utility.yul\":8219:8225   */\n      0x00\n        /* \"#utility.yul\":8266:8268   */\n      0x20\n        /* \"#utility.yul\":8261:8263   */\n      0x1f\n        /* \"#utility.yul\":8254:8259   */\n      dup4\n        /* \"#utility.yul\":8250:8264   */\n      add\n        /* \"#utility.yul\":8246:8269   */\n      div\n        /* \"#utility.yul\":8236:8269   */\n      swap1\n      pop\n        /* \"#utility.yul\":8182:8275   */\n      swap2\n      swap1\n      pop\n      jump\t// out\n        /* \"#utility.yul\":8281:8388   */\n    tag_119:\n        /* \"#utility.yul\":8325:8333   */\n      0x00\n        /* \"#utility.yul\":8375:8380   */\n      dup3\n        /* \"#utility.yul\":8369:8373   */\n      dup3\n        /* \"#utility.yul\":8365:8381   */\n      shl\n        /* \"#utility.yul\":8344:8381   */\n      swap1\n      pop\n        /* \"#utility.yul\":8281:8388   */\n      swap3\n      swap2\n      pop\n      pop\n      jump\t// out\n        /* \"#utility.yul\":8394:8787   */\n    tag_120:\n        /* \"#utility.yul\":8463:8469   */\n      0x00\n        /* \"#utility.yul\":8513:8514   */\n      0x08\n        /* \"#utility.yul\":8501:8511   */\n      dup4\n        /* \"#utility.yul\":8497:8515   */\n      mul\n        /* \"#utility.yul\":8536:8633   */\n      tag_228\n        /* \"#utility.yul\":8566:8632   */\n      0xffffffffffffffffffffffffffffffffffffffffffffffffffffffffffffffff\n        /* \"#utility.yul\":8555:8564   */\n      dup3\n        /* \"#utility.yul\":8536:8633   */\n      tag_119\n      jump\t// in\n    tag_228:\n        /* \"#utility.yul\":8654:8693   */\n      tag_229\n        /* \"#utility.yul\":8684:8692   */\n      dup7\n        /* \"#utility.yul\":8673:8682   */\n      dup4\n        /* \"#utility.yul\":8654:8693   */\n      tag_119\n      jump\t// in\n    tag_229:\n        /* \"#utility.yul\":8642:8693   */\n      swap6\n      pop\n        /* \"#utility.yul\":8726:8730   */\n      dup1\n        /* \"#utility.yul\":8722:8731   */\n      not\n        /* \"#utility.yul\":8715:8720   */\n      dup5\n        /* \"#utility.yul\":8711:8732   */\n      and\n        /* \"#utility.yul\":8702:8732   */\n      swap4\n      pop\n        /* \"#utility.yul\":8775:8779   */\n      dup1\n        /* \"#utility.yul\":8765:8773   */\n      dup7\n        /* \"#utility.yul\":8761:8780   */\n      and\n        /* \"#utility.yul\":8754:8759   */\n      dup5\n        /* \"#utility.yul\":8751:8781   */\n      or\n        /* \"#utility.yul\":8741:8781   */\n      swap3\n      pop\n        /* \"#utility.yul\":8470:8787   */\n      pop\n      pop\n        /* \"#utility.yul\":8394:8787   */\n      swap4\n      swap3\n      pop\n      pop\n      pop\n      jump\t// out\n        /* \"#utility.yul\":8793:8853   */\n    tag_121:\n        /* \"#utility.yul\":8821:8824   */\n      0x00\n        /* \"#utility.yul\":8842:8847   */\n      dup2\n        /* \"#utility.yul\":8835:8847   */\n      swap1\n      pop\n        /* \"#utility.yul\":8793:8853   */\n      swap2\n      swap1\n      pop\n      jump\t// out\n        /* \"#utility.yul\":8859:9001   */\n    tag_122:\n        /* \"#utility.yul\":8909:8918   */\n      0x00\n        /* \"#utility.yul\":8942:8995   */\n      tag_232\n        /* \"#utility.yul\":8960:8994   */\n      tag_233\n        /* \"#utility.yul\":8969:8993   */\n      tag_234\n        /* \"#utility.yul\":8987:8992   */\n      dup5\n        /* \"#utility.yul\":8969:8993   */\n      tag_94\n      jump\t// in\n    tag_234:\n        /* \"#utility.yul\":8960:8994   */\n      tag_121\n      jump\t// in\n    tag_233:\n        /* \"#utility.yul\":8942:8995   */\n      tag_94\n      jump\t// in\n    tag_232:\n        /* \"#utility.yul\":8929:8995   */\n      swap1\n      pop\n        /* \"#utility.yul\":8859:9001   */\n      swap2\n      swap1\n      pop\n      jump\t// out\n        /* \"#utility.yul\":9007:9082   */\n    tag_123:\n        /* \"#utility.yul\":9050:9053   */\n      0x00\n        /* \"#utility.yul\":9071:9076   */\n      dup2\n        /* \"#utility.yul\":9064:9076   */\n      swap1\n      pop\n        /* \"#utility.yul\":9007:9082   */\n      swap2\n      swap1\n      pop\n      jump\t// out\n        /* \"#utility.yul\":9088:9357   */\n    tag_124:\n        /* \"#utility.yul\":9198:9237   */\n      tag_237\n        /* \"#utility.yul\":9229:9236   */\n      dup4\n        /* \"#utility.yul\":9198:9237   */\n      tag_122\n      jump\t// in\n    tag_237:\n        /* \"#utility.yul\":9259:9350   */\n      tag_238\n        /* \"#utility.yul\":9308:9349   */\n      tag_239\n        /* \"#utility.yul\":9332:9348   */\n      dup3\n        /* \"#utility.yul\":9308:9349   */\n      tag_123\n      jump\t// in\n    tag_239:\n        /* \"#utility.yul\":9300:9306   */\n      dup5\n        /* \"#utility.yul\":9293:9297   */\n      dup5\n        /* \"#utility.yul\":9287:9298   */\n      sload\n        /* \"#utility.yul\":9259:9350   */\n      tag_120\n      jump\t// in\n    tag_238:\n        /* \"#utility.yul\":9253:9257   */\n      dup3\n        /* \"#utility.yul\":9246:9351   */\n      sstore\n        /* \"#utility.yul\":9164:9357   */\n      pop\n        /* \"#utility.yul\":9088:9357   */\n      pop\n      pop\n      pop\n      jump\t// out\n        /* \"#utility.yul\":9363:9436   */\n    tag_125:\n        /* \"#utility.yul\":9408:9411   */\n      0x00\n        /* \"#utility.yul\":9363:9436   */\n      swap1\n      jump\t// out\n        /* \"#utility.yul\":9442:9631   */\n    tag_126:\n        /* \"#utility.yul\":9519:9551   */\n      tag_242\n      tag_125\n      jump\t// in\n    tag_242:\n        /* \"#utility.yul\":9560:9625   */\n      tag_243\n        /* \"#utility.yul\":9618:9624   */\n      dup2\n        /* \"#utility.yul\":9610:9616   */\n      dup5\n        /* \"#utility.yul\":9604:9608   */\n      dup5\n        /* \"#utility.yul\":9560:9625   */\n      tag_124\n      jump\t// in\n    tag_243:\n        /* \"#utility.yul\":9495:9631   */\n      pop\n        /* \"#utility.yul\":9442:9631   */\n      pop\n      pop\n      jump\t// out\n        /* \"#utility.yul\":9637:9823   */\n    tag_127:\n        /* \"#utility.yul\":9697:9817   */\n    tag_245:\n        /* \"#utility.yul\":9714:9717   */\n      dup2\n        /* \"#utility.yul\":9707:9712   */\n      dup2\n        /* \"#utility.yul\":9704:9718   */\n      lt\n        /* \"#utility.yul\":9697:9817   */\n      iszero\n      tag_247\n      jumpi\n        /* \"#utility.yul\":9768:9807   */\n      tag_248\n        /* \"#utility.yul\":9805:9806   */\n      0x00\n        /* \"#utility.yul\":9798:9803   */\n      dup3\n        /* \"#utility.yul\":9768:9807   */\n      tag_126\n      jump\t// in\n    tag_248:\n        /* \"#utility.yul\":9741:9742   */\n      0x01\n        /* \"#utility.yul\":9734:9739   */\n      dup2\n        /* \"#utility.yul\":9730:9743   */\n      add\n        /* \"#utility.yul\":9721:9743   */\n      swap1\n      pop\n        /* \"#utility.yul\":9697:9817   */\n      jump(tag_245)\n    tag_247:\n        /* \"#utility.yul\":9637:9823   */\n      pop\n      pop\n      jump\t// out\n        /* \"#utility.yul\":9829:10372   */\n    tag_128:\n        /* \"#utility.yul\":9930:9932   */\n      0x1f\n        /* \"#utility.yul\":9925:9928   */\n      dup3\n        /* \"#utility.yul\":9922:9933   */\n      gt\n        /* \"#utility.yul\":9919:10365   */\n      iszero\n      tag_250\n      jumpi\n        /* \"#utility.yul\":9964:10002   */\n      tag_251\n        /* \"#utility.yul\":9996:10001   */\n      dup2\n        /* \"#utility.yul\":9964:10002   */\n      tag_117\n      jump\t// in\n    tag_251:\n        /* \"#utility.yul\":10048:10077   */\n      tag_252\n        /* \"#utility.yul\":10066:10076   */\n      dup5\n        /* \"#utility.yul\":10048:10077   */\n      tag_118\n      jump\t// in\n    tag_252:\n        /* \"#utility.yul\":10038:10046   */\n      dup2\n        /* \"#utility.yul\":10034:10078   */\n      add\n        /* \"#utility.yul\":10231:10233   */\n      0x20\n        /* \"#utility.yul\":10219:10229   */\n      dup6\n        /* \"#utility.yul\":10216:10234   */\n      lt\n        /* \"#utility.yul\":10213:10262   */\n      iszero\n      tag_253\n      jumpi\n        /* \"#utility.yul\":10252:10260   */\n      dup2\n        /* \"#utility.yul\":10237:10260   */\n      swap1\n      pop\n        /* \"#utility.yul\":10213:10262   */\n    tag_253:\n        /* \"#utility.yul\":10275:10355   */\n      tag_254\n        /* \"#utility.yul\":10331:10353   */\n      tag_255\n        /* \"#utility.yul\":10349:10352   */\n      dup6\n        /* \"#utility.yul\":10331:10353   */\n      tag_118\n      jump\t// in\n    tag_255:\n        /* \"#utility.yul\":10321:10329   */\n      dup4\n        /* \"#utility.yul\":10317:10354   */\n      add\n        /* \"#utility.yul\":10304:10315   */\n      dup3\n        /* \"#utility.yul\":10275:10355   */\n      tag_127\n      jump\t// in\n    tag_254:\n        /* \"#utility.yul\":9934:10365   */\n      pop\n      pop\n        /* \"#utility.yul\":9919:10365   */\n    tag_250:\n        /* \"#utility.yul\":9829:10372   */\n      pop\n      pop\n      pop\n      jump\t// out\n        /* \"#utility.yul\":10378:10495   */\n    tag_129:\n        /* \"#utility.yul\":10432:10440   */\n      0x00\n        /* \"#utility.yul\":10482:10487   */\n      dup3\n        /* \"#utility.yul\":10476:10480   */\n      dup3\n        /* \"#utility.yul\":10472:10488   */\n      shr\n        /* \"#utility.yul\":10451:10488   */\n      swap1\n      pop\n        /* \"#utility.yul\":10378:10495   */\n      swap3\n      swap2\n      pop\n      pop\n      jump\t// out\n        /* \"#utility.yul\":10501:10670   */\n    tag_130:\n        /* \"#utility.yul\":10545:10551   */\n      0x00\n        /* \"#utility.yul\":10578:10629   */\n      tag_258\n        /* \"#utility.yul\":10626:10627   */\n      0x00\n        /* \"#utility.yul\":10622:10628   */\n      not\n        /* \"#utility.yul\":10614:10619   */\n      dup5\n        /* \"#utility.yul\":10611:10612   */\n      0x08\n        /* \"#utility.yul\":10607:10620   */\n      mul\n        /* \"#utility.yul\":10578:10629   */\n      tag_129\n      jump\t// in\n    tag_258:\n        /* \"#utility.yul\":10574:10630   */\n      not\n        /* \"#utility.yul\":10659:10663   */\n      dup1\n        /* \"#utility.yul\":10653:10657   */\n      dup4\n        /* \"#utility.yul\":10649:10664   */\n      and\n        /* \"#utility.yul\":10639:10664   */\n      swap2\n      pop\n        /* \"#utility.yul\":10552:10670   */\n      pop\n        /* \"#utility.yul\":10501:10670   */\n      swap3\n      swap2\n      pop\n      pop\n      jump\t// out\n        /* \"#utility.yul\":10675:10970   */\n    tag_131:\n        /* \"#utility.yul\":10751:10755   */\n      0x00\n        /* \"#utility.yul\":10897:10926   */\n      tag_260\n        /* \"#utility.yul\":10922:10925   */\n      dup4\n        /* \"#utility.yul\":10916:10920   */\n      dup4\n        /* \"#utility.yul\":10897:10926   */\n      tag_130\n      jump\t// in\n    tag_260:\n        /* \"#utility.yul\":10889:10926   */\n      swap2\n      pop\n        /* \"#utility.yul\":10959:10962   */\n      dup3\n        /* \"#utility.yul\":10956:10957   */\n      0x02\n        /* \"#utility.yul\":10952:10963   */\n      mul\n        /* \"#utility.yul\":10946:10950   */\n      dup3\n        /* \"#utility.yul\":10943:10964   */\n      or\n        /* \"#utility.yul\":10935:10964   */\n      swap1\n      pop\n        /* \"#utility.yul\":10675:10970   */\n      swap3\n      swap2\n      pop\n      pop\n      jump\t// out\n        /* \"#utility.yul\":10975:12370   */\n    tag_58:\n        /* \"#utility.yul\":11092:11129   */\n      tag_262\n        /* \"#utility.yul\":11125:11128   */\n      dup3\n        /* \"#utility.yul\":11092:11129   */\n      tag_112\n      jump\t// in\n    tag_262:\n        /* \"#utility.yul\":11194:11212   */\n      0xffffffffffffffff\n        /* \"#utility.yul\":11186:11192   */\n      dup2\n        /* \"#utility.yul\":11183:11213   */\n      gt\n        /* \"#utility.yul\":11180:11236   */\n      iszero\n      tag_263\n      jumpi\n        /* \"#utility.yul\":11216:11234   */\n      tag_264\n      tag_101\n      jump\t// in\n    tag_264:\n        /* \"#utility.yul\":11180:11236   */\n    tag_263:\n        /* \"#utility.yul\":11260:11298   */\n      tag_265\n        /* \"#utility.yul\":11292:11296   */\n      dup3\n        /* \"#utility.yul\":11286:11297   */\n      sload\n        /* \"#utility.yul\":11260:11298   */\n      tag_67\n      jump\t// in\n    tag_265:\n        /* \"#utility.yul\":11345:11412   */\n      tag_266\n        /* \"#utility.yul\":11405:11411   */\n      dup3\n        /* \"#utility.yul\":11397:11403   */\n      dup3\n        /* \"#utility.yul\":11391:11395   */\n      dup6\n        /* \"#utility.yul\":11345:11412   */\n      tag_128\n      jump\t// in\n    tag_266:\n        /* \"#utility.yul\":11439:11440   */\n      0x00\n        /* \"#utility.yul\":11463:11467   */\n      0x20\n        /* \"#utility.yul\":11450:11467   */\n      swap1\n      pop\n        /* \"#utility.yul\":11495:11497   */\n      0x1f\n        /* \"#utility.yul\":11487:11493   */\n      dup4\n        /* \"#utility.yul\":11484:11498   */\n      gt\n        /* \"#utility.yul\":11512:11513   */\n      0x01\n        /* \"#utility.yul\":11507:12125   */\n      dup2\n      eq\n      tag_268\n      jumpi\n        /* \"#utility.yul\":12169:12170   */\n      0x00\n        /* \"#utility.yul\":12186:12192   */\n      dup5\n        /* \"#utility.yul\":12183:12260   */\n      iszero\n      tag_269\n      jumpi\n        /* \"#utility.yul\":12235:12244   */\n      dup3\n        /* \"#utility.yul\":12230:12233   */\n      dup8\n        /* \"#utility.yul\":12226:12245   */\n      add\n        /* \"#utility.yul\":12220:12246   */\n      mload\n        /* \"#utility.yul\":12211:12246   */\n      swap1\n      pop\n        /* \"#utility.yul\":12183:12260   */\n    tag_269:\n        /* \"#utility.yul\":12286:12353   */\n      tag_270\n        /* \"#utility.yul\":12346:12352   */\n      dup6\n        /* \"#utility.yul\":12339:12344   */\n      dup3\n        /* \"#utility.yul\":12286:12353   */\n      tag_131\n      jump\t// in\n    tag_270:\n        /* \"#utility.yul\":12280:12284   */\n      dup7\n        /* \"#utility.yul\":12273:12354   */\n      sstore\n        /* \"#utility.yul\":12142:12364   */\n      pop\n        /* \"#utility.yul\":11477:12364   */\n      jump(tag_267)\n        /* \"#utility.yul\":11507:12125   */\n    tag_268:\n        /* \"#utility.yul\":11559:11563   */\n      0x1f\n        /* \"#utility.yul\":11555:11564   */\n      not\n        /* \"#utility.yul\":11547:11553   */\n      dup5\n        /* \"#utility.yul\":11543:11565   */\n      and\n        /* \"#utility.yul\":11593:11630   */\n      tag_271\n        /* \"#utility.yul\":11625:11629   */\n      dup7\n        /* \"#utility.yul\":11593:11630   */\n      tag_117\n      jump\t// in\n    tag_271:\n        /* \"#utility.yul\":11652:11653   */\n      0x00\n        /* \"#utility.yul\":11666:11874   */\n    tag_272:\n        /* \"#utility.yul\":11680:11687   */\n      dup3\n        /* \"#utility.yul\":11677:11678   */\n      dup2\n        /* \"#utility.yul\":11674:11688   */\n      lt\n        /* \"#utility.yul\":11666:11874   */\n      iszero\n      tag_274\n      jumpi\n        /* \"#utility.yul\":11759:11768   */\n      dup5\n        /* \"#utility.yul\":11754:11757   */\n      dup10\n        /* \"#utility.yul\":11750:11769   */\n      add\n        /* \"#utility.yul\":11744:11770   */\n      mload\n        /* \"#utility.yul\":11736:11742   */\n      dup3\n        /* \"#utility.yul\":11729:11771   */\n      sstore\n        /* \"#utility.yul\":11810:11811   */\n      0x01\n        /* \"#utility.yul\":11802:11808   */\n      dup3\n        /* \"#utility.yul\":11798:11812   */\n      add\n        /* \"#utility.yul\":11788:11812   */\n      swap2\n      pop\n        /* \"#utility.yul\":11857:11859   */\n      0x20\n        /* \"#utility.yul\":11846:11855   */\n      dup6\n        /* \"#utility.yul\":11842:11860   */\n      add\n        /* \"#utility.yul\":11829:11860   */\n      swap5\n      pop\n        /* \"#utility.yul\":11703:11707   */\n      0x20\n        /* \"#utility.yul\":11700:11701   */\n      dup2\n        /* \"#utility.yul\":11696:11708   */\n      add\n        /* \"#utility.yul\":11691:11708   */\n      swap1\n      pop\n        /* \"#utility.yul\":11666:11874   */\n      jump(tag_272)\n    tag_274:\n        /* \"#utility.yul\":11902:11908   */\n      dup7\n        /* \"#utility.yul\":11893:11900   */\n      dup4\n        /* \"#utility.yul\":11890:11909   */\n      lt\n        /* \"#utility.yul\":11887:12066   */\n      iszero\n      tag_275\n      jumpi\n        /* \"#utility.yul\":11960:11969   */\n      dup5\n        /* \"#utility.yul\":11955:11958   */\n      dup10\n        /* \"#utility.yul\":11951:11970   */\n      add\n        /* \"#utility.yul\":11945:11971   */\n      mload\n        /* \"#utility.yul\":12003:12051   */\n      tag_276\n        /* \"#utility.yul\":12045:12049   */\n      0x1f\n        /* \"#utility.yul\":12037:12043   */\n      dup10\n        /* \"#utility.yul\":12033:12050   */\n      and\n        /* \"#utility.yul\":12022:12031   */\n      dup3\n        /* \"#utility.yul\":12003:12051   */\n      tag_130\n      jump\t// in\n    tag_276:\n        /* \"#utility.yul\":11995:12001   */\n      dup4\n        /* \"#utility.yul\":11988:12052   */\n      sstore\n        /* \"#utility.yul\":11910:12066   */\n      pop\n        /* \"#utility.yul\":11887:12066   */\n    tag_275:\n        /* \"#utility.yul\":12112:12113   */\n      0x01\n        /* \"#utility.yul\":12108:12109   */\n      0x02\n        /* \"#utility.yul\":12100:12106   */\n      dup9\n        /* \"#utility.yul\":12096:12110   */\n      mul\n        /* \"#utility.yul\":12092:12114   */\n      add\n        /* \"#utility.yul\":12086:12090   */\n      dup9\n        /* \"#utility.yul\":12079:12115   */\n      sstore\n        /* \"#utility.yul\":11514:12125   */\n      pop\n      pop\n      pop\n        /* \"#utility.yul\":11477:12364   */\n    tag_267:\n      pop\n        /* \"#utility.yul\":11067:12370   */\n      pop\n      pop\n      pop\n        /* \"#utility.yul\":10975:12370   */\n      pop\n      pop\n      jump\t// out\n        /* \"#utility.yul\":12376:12524   */\n    tag_132:\n        /* \"#utility.yul\":12478:12489   */\n      0x00\n        /* \"#utility.yul\":12515:12518   */\n      dup2\n        /* \"#utility.yul\":12500:12518   */\n      swap1\n      pop\n        /* \"#utility.yul\":12376:12524   */\n      swap3\n      swap2\n      pop\n      pop\n      jump\t// out\n        /* \"#utility.yul\":12530:12920   */\n    tag_133:\n        /* \"#utility.yul\":12636:12639   */\n      0x00\n        /* \"#utility.yul\":12664:12703   */\n      tag_279\n        /* \"#utility.yul\":12697:12702   */\n      dup3\n        /* \"#utility.yul\":12664:12703   */\n      tag_112\n      jump\t// in\n    tag_279:\n        /* \"#utility.yul\":12719:12808   */\n      tag_280\n        /* \"#utility.yul\":12801:12807   */\n      dup2\n        /* \"#utility.yul\":12796:12799   */\n      dup6\n        /* \"#utility.yul\":12719:12808   */\n      tag_132\n      jump\t// in\n    tag_280:\n        /* \"#utility.yul\":12712:12808   */\n      swap4\n      pop\n        /* \"#utility.yul\":12817:12882   */\n      tag_281\n        /* \"#utility.yul\":12875:12881   */\n      dup2\n        /* \"#utility.yul\":12870:12873   */\n      dup6\n        /* \"#utility.yul\":12863:12867   */\n      0x20\n        /* \"#utility.yul\":12856:12861   */\n      dup7\n        /* \"#utility.yul\":12852:12868   */\n      add\n        /* \"#utility.yul\":12817:12882   */\n      tag_114\n      jump\t// in\n    tag_281:\n        /* \"#utility.yul\":12907:12913   */\n      dup1\n        /* \"#utility.yul\":12902:12905   */\n      dup5\n        /* \"#utility.yul\":12898:12914   */\n      add\n        /* \"#utility.yul\":12891:12914   */\n      swap2\n      pop\n        /* \"#utility.yul\":12640:12920   */\n      pop\n        /* \"#utility.yul\":12530:12920   */\n      swap3\n      swap2\n      pop\n      pop\n      jump\t// out\n        /* \"#utility.yul\":12926:13201   */\n    tag_62:\n        /* \"#utility.yul\":13058:13061   */\n      0x00\n        /* \"#utility.yul\":13080:13175   */\n      tag_283\n        /* \"#utility.yul\":13171:13174   */\n      dup3\n        /* \"#utility.yul\":13162:13168   */\n      dup5\n        /* \"#utility.yul\":13080:13175   */\n      tag_133\n      jump\t// in\n    tag_283:\n        /* \"#utility.yul\":13073:13175   */\n      swap2\n      pop\n        /* \"#utility.yul\":13192:13195   */\n      dup2\n        /* \"#utility.yul\":13185:13195   */\n      swap1\n      pop\n        /* \"#utility.yul\":12926:13201   */\n      swap3\n      swap2\n      pop\n      pop\n      jump\t// out\n\n    auxdata: 0xa2646970667358221220d5c6d52da2a6f43112c4ada62c4f1448d78c7712f0505246603c52ea3ae94f2d64736f6c634300081a0033\n}\n",
				"bytecode": {
					"linkReferences": {},
					"object": "60806040526040518060600160405280600181526020016040518060400160405280600681526020017f4d616e6f6c6f000000000000000000000000000000000000000000000000000081525081526020016040518060400160405280601081526020017f6d616e6f6c6f40676d61696c2e636f6d000000000000000000000000000000008152508152505f80820151815f015560208201518160010190816100a891906103b8565b5060408201518160020190816100be91906103b8565b5050506040518060a00160405280600160ff168152602001600260ff168152602001600360ff168152602001600460ff168152602001600560ff16815250600390600561010c92919061011e565b50348015610118575f80fd5b50610487565b8260058101928215610152579160200282015b82811115610151578251829060ff16905591602001919060010190610131565b5b50905061015f9190610163565b5090565b5b8082111561017a575f815f905550600101610164565b5090565b5f81519050919050565b7f4e487b71000000000000000000000000000000000000000000000000000000005f52604160045260245ffd5b7f4e487b71000000000000000000000000000000000000000000000000000000005f52602260045260245ffd5b5f60028204905060018216806101f957607f821691505b60208210810361020c5761020b6101b5565b5b50919050565b5f819050815f5260205f209050919050565b5f6020601f8301049050919050565b5f82821b905092915050565b5f6008830261026e7fffffffffffffffffffffffffffffffffffffffffffffffffffffffffffffffff82610233565b6102788683610233565b95508019841693508086168417925050509392505050565b5f819050919050565b5f819050919050565b5f6102bc6102b76102b284610290565b610299565b610290565b9050919050565b5f819050919050565b6102d5836102a2565b6102e96102e1826102c3565b84845461023f565b825550505050565b5f90565b6102fd6102f1565b6103088184846102cc565b505050565b5b8181101561032b576103205f826102f5565b60018101905061030e565b5050565b601f8211156103705761034181610212565b61034a84610224565b81016020851015610359578190505b61036d61036585610224565b83018261030d565b50505b505050565b5f82821c905092915050565b5f6103905f1984600802610375565b1980831691505092915050565b5f6103a88383610381565b9150826002028217905092915050565b6103c18261017e565b67ffffffffffffffff8111156103da576103d9610188565b5b6103e482546101e2565b6103ef82828561032f565b5f60209050601f831160018114610420575f841561040e578287015190505b610418858261039d565b86555061047f565b601f19841661042e86610212565b5f5b8281101561045557848901518255600182019150602085019450602081019050610430565b86831015610472578489015161046e601f891682610381565b8355505b6001600288020188555050505b505050505050565b610dab806104945f395ff3fe608060405234801561000f575f80fd5b5060043610610091575f3560e01c806389553d461161006457806389553d46146101415780639efb5c231461015d578063e52b008f1461018f578063e990585e146101ab578063eaaefa96146101c757610091565b80631c9fc6c0146100955780633ce5771d146100c5578063706bd608146100f557806385ea126614610111575b5f80fd5b6100af60048036038101906100aa91906106c3565b6101f9565b6040516100bc91906106fd565b60405180910390f35b6100df60048036038101906100da9190610852565b610212565b6040516100ec91906106fd565b60405180910390f35b61010f600480360381019061010a91906108ac565b610255565b005b61012b6004803603810190610126919061098e565b6102d8565b60405161013891906106fd565b60405180910390f35b61015b60048036038101906101569190610852565b6102ed565b005b610177600480360381019061017291906106c3565b610333565b60405161018693929190610a19565b60405180910390f35b6101a960048036038101906101a491906106c3565b610474565b005b6101c560048036038101906101c091906108ac565b6104b9565b005b6101e160048036038101906101dc919061098e565b61054d565b6040516101f093929190610a19565b60405180910390f35b60038160058110610208575f80fd5b015f915090505481565b600a828051602081018201805184825260208301602085012081835280955050505050508181548110610243575f80fd5b905f5260205f20015f91509150505481565b5f6040518060600160405280858152602001848152602001838152509050600881908060018154018082558091505060019003905f5260205f2090600302015f909190919091505f820151815f015560208201518160010190816102b99190610c56565b5060408201518160020190816102cf9190610c56565b50505050505050565b6009602052805f5260405f205f915090505481565b600a826040516102fd9190610d5f565b908152602001604051809103902081908060018154018082558091505060019003905f5260205f20015f90919091909150555050565b60088181548110610342575f80fd5b905f5260205f2090600302015f91509050805f01549080600101805461036790610a89565b80601f016020809104026020016040519081016040528092919081815260200182805461039390610a89565b80156103de5780601f106103b5576101008083540402835291602001916103de565b820191905f5260205f20905b8154815290600101906020018083116103c157829003601f168201915b5050505050908060020180546103f390610a89565b80601f016020809104026020016040519081016040528092919081815260200182805461041f90610a89565b801561046a5780601f106104415761010080835404028352916020019161046a565b820191905f5260205f20905b81548152906001019060200180831161044d57829003601f168201915b5050505050905083565b8060095f3373ffffffffffffffffffffffffffffffffffffffff1673ffffffffffffffffffffffffffffffffffffffff1681526020019081526020015f208190555050565b604051806060016040528084815260200183815260200182815250600b5f3373ffffffffffffffffffffffffffffffffffffffff1673ffffffffffffffffffffffffffffffffffffffff1681526020019081526020015f205f820151815f0155602082015181600101908161052e9190610c56565b5060408201518160020190816105449190610c56565b50905050505050565b600b602052805f5260405f205f91509050805f01549080600101805461057290610a89565b80601f016020809104026020016040519081016040528092919081815260200182805461059e90610a89565b80156105e95780601f106105c0576101008083540402835291602001916105e9565b820191905f5260205f20905b8154815290600101906020018083116105cc57829003601f168201915b5050505050908060020180546105fe90610a89565b80601f016020809104026020016040519081016040528092919081815260200182805461062a90610a89565b80156106755780601f1061064c57610100808354040283529160200191610675565b820191905f5260205f20905b81548152906001019060200180831161065857829003601f168201915b5050505050905083565b5f604051905090565b5f80fd5b5f80fd5b5f819050919050565b6106a281610690565b81146106ac575f80fd5b50565b5f813590506106bd81610699565b92915050565b5f602082840312156106d8576106d7610688565b5b5f6106e5848285016106af565b91505092915050565b6106f781610690565b82525050565b5f6020820190506107105f8301846106ee565b92915050565b5f80fd5b5f80fd5b5f601f19601f8301169050919050565b7f4e487b71000000000000000000000000000000000000000000000000000000005f52604160045260245ffd5b6107648261071e565b810181811067ffffffffffffffff821117156107835761078261072e565b5b80604052505050565b5f61079561067f565b90506107a1828261075b565b919050565b5f67ffffffffffffffff8211156107c0576107bf61072e565b5b6107c98261071e565b9050602081019050919050565b828183375f83830152505050565b5f6107f66107f1846107a6565b61078c565b9050828152602081018484840111156108125761081161071a565b5b61081d8482856107d6565b509392505050565b5f82601f83011261083957610838610716565b5b81356108498482602086016107e4565b91505092915050565b5f806040838503121561086857610867610688565b5b5f83013567ffffffffffffffff8111156108855761088461068c565b5b61089185828601610825565b92505060206108a2858286016106af565b9150509250929050565b5f805f606084860312156108c3576108c2610688565b5b5f6108d0868287016106af565b935050602084013567ffffffffffffffff8111156108f1576108f061068c565b5b6108fd86828701610825565b925050604084013567ffffffffffffffff81111561091e5761091d61068c565b5b61092a86828701610825565b9150509250925092565b5f73ffffffffffffffffffffffffffffffffffffffff82169050919050565b5f61095d82610934565b9050919050565b61096d81610953565b8114610977575f80fd5b50565b5f8135905061098881610964565b92915050565b5f602082840312156109a3576109a2610688565b5b5f6109b08482850161097a565b91505092915050565b5f81519050919050565b5f82825260208201905092915050565b8281835e5f83830152505050565b5f6109eb826109b9565b6109f581856109c3565b9350610a058185602086016109d3565b610a0e8161071e565b840191505092915050565b5f606082019050610a2c5f8301866106ee565b8181036020830152610a3e81856109e1565b90508181036040830152610a5281846109e1565b9050949350505050565b7f4e487b71000000000000000000000000000000000000000000000000000000005f52602260045260245ffd5b5f6002820490506001821680610aa057607f821691505b602082108103610ab357610ab2610a5c565b5b50919050565b5f819050815f5260205f209050919050565b5f6020601f8301049050919050565b5f82821b905092915050565b5f60088302610b157fffffffffffffffffffffffffffffffffffffffffffffffffffffffffffffffff82610ada565b610b1f8683610ada565b95508019841693508086168417925050509392505050565b5f819050919050565b5f610b5a610b55610b5084610690565b610b37565b610690565b9050919050565b5f819050919050565b610b7383610b40565b610b87610b7f82610b61565b848454610ae6565b825550505050565b5f90565b610b9b610b8f565b610ba6818484610b6a565b505050565b5b81811015610bc957610bbe5f82610b93565b600181019050610bac565b5050565b601f821115610c0e57610bdf81610ab9565b610be884610acb565b81016020851015610bf7578190505b610c0b610c0385610acb565b830182610bab565b50505b505050565b5f82821c905092915050565b5f610c2e5f1984600802610c13565b1980831691505092915050565b5f610c468383610c1f565b9150826002028217905092915050565b610c5f826109b9565b67ffffffffffffffff811115610c7857610c7761072e565b5b610c828254610a89565b610c8d828285610bcd565b5f60209050601f831160018114610cbe575f8415610cac578287015190505b610cb68582610c3b565b865550610d1d565b601f198416610ccc86610ab9565b5f5b82811015610cf357848901518255600182019150602085019450602081019050610cce565b86831015610d105784890151610d0c601f891682610c1f565b8355505b6001600288020188555050505b505050505050565b5f81905092915050565b5f610d39826109b9565b610d438185610d25565b9350610d538185602086016109d3565b80840191505092915050565b5f610d6a8284610d2f565b91508190509291505056fea2646970667358221220d5c6d52da2a6f43112c4ada62c4f1448d78c7712f0505246603c52ea3ae94f2d64736f6c634300081a0033",
					"opcodes": "PUSH1 0x80 PUSH1 0x40 MSTORE PUSH1 0x40 MLOAD DUP1 PUSH1 0x60 ADD PUSH1 0x40 MSTORE DUP1 PUSH1 0x1 DUP2 MSTORE PUSH1 0x20 ADD PUSH1 0x40 MLOAD DUP1 PUSH1 0x40 ADD PUSH1 0x40 MSTORE DUP1 PUSH1 0x6 DUP2 MSTORE PUSH1 0x20 ADD PUSH32 0x4D616E6F6C6F0000000000000000000000000000000000000000000000000000 DUP2 MSTORE POP DUP2 MSTORE PUSH1 0x20 ADD PUSH1 0x40 MLOAD DUP1 PUSH1 0x40 ADD PUSH1 0x40 MSTORE DUP1 PUSH1 0x10 DUP2 MSTORE PUSH1 0x20 ADD PUSH32 0x6D616E6F6C6F40676D61696C2E636F6D00000000000000000000000000000000 DUP2 MSTORE POP DUP2 MSTORE POP PUSH0 DUP1 DUP3 ADD MLOAD DUP2 PUSH0 ADD SSTORE PUSH1 0x20 DUP3 ADD MLOAD DUP2 PUSH1 0x1 ADD SWAP1 DUP2 PUSH2 0xA8 SWAP2 SWAP1 PUSH2 0x3B8 JUMP JUMPDEST POP PUSH1 0x40 DUP3 ADD MLOAD DUP2 PUSH1 0x2 ADD SWAP1 DUP2 PUSH2 0xBE SWAP2 SWAP1 PUSH2 0x3B8 JUMP JUMPDEST POP POP POP PUSH1 0x40 MLOAD DUP1 PUSH1 0xA0 ADD PUSH1 0x40 MSTORE DUP1 PUSH1 0x1 PUSH1 0xFF AND DUP2 MSTORE PUSH1 0x20 ADD PUSH1 0x2 PUSH1 0xFF AND DUP2 MSTORE PUSH1 0x20 ADD PUSH1 0x3 PUSH1 0xFF AND DUP2 MSTORE PUSH1 0x20 ADD PUSH1 0x4 PUSH1 0xFF AND DUP2 MSTORE PUSH1 0x20 ADD PUSH1 0x5 PUSH1 0xFF AND DUP2 MSTORE POP PUSH1 0x3 SWAP1 PUSH1 0x5 PUSH2 0x10C SWAP3 SWAP2 SWAP1 PUSH2 0x11E JUMP JUMPDEST POP CALLVALUE DUP1 ISZERO PUSH2 0x118 JUMPI PUSH0 DUP1 REVERT JUMPDEST POP PUSH2 0x487 JUMP JUMPDEST DUP3 PUSH1 0x5 DUP2 ADD SWAP3 DUP3 ISZERO PUSH2 0x152 JUMPI SWAP2 PUSH1 0x20 MUL DUP3 ADD JUMPDEST DUP3 DUP2 GT ISZERO PUSH2 0x151 JUMPI DUP3 MLOAD DUP3 SWAP1 PUSH1 0xFF AND SWAP1 SSTORE SWAP2 PUSH1 0x20 ADD SWAP2 SWAP1 PUSH1 0x1 ADD SWAP1 PUSH2 0x131 JUMP JUMPDEST JUMPDEST POP SWAP1 POP PUSH2 0x15F SWAP2 SWAP1 PUSH2 0x163 JUMP JUMPDEST POP SWAP1 JUMP JUMPDEST JUMPDEST DUP1 DUP3 GT ISZERO PUSH2 0x17A JUMPI PUSH0 DUP2 PUSH0 SWAP1 SSTORE POP PUSH1 0x1 ADD PUSH2 0x164 JUMP JUMPDEST POP SWAP1 JUMP JUMPDEST PUSH0 DUP2 MLOAD SWAP1 POP SWAP2 SWAP1 POP JUMP JUMPDEST PUSH32 0x4E487B7100000000000000000000000000000000000000000000000000000000 PUSH0 MSTORE PUSH1 0x41 PUSH1 0x4 MSTORE PUSH1 0x24 PUSH0 REVERT JUMPDEST PUSH32 0x4E487B7100000000000000000000000000000000000000000000000000000000 PUSH0 MSTORE PUSH1 0x22 PUSH1 0x4 MSTORE PUSH1 0x24 PUSH0 REVERT JUMPDEST PUSH0 PUSH1 0x2 DUP3 DIV SWAP1 POP PUSH1 0x1 DUP3 AND DUP1 PUSH2 0x1F9 JUMPI PUSH1 0x7F DUP3 AND SWAP2 POP JUMPDEST PUSH1 0x20 DUP3 LT DUP2 SUB PUSH2 0x20C JUMPI PUSH2 0x20B PUSH2 0x1B5 JUMP JUMPDEST JUMPDEST POP SWAP2 SWAP1 POP JUMP JUMPDEST PUSH0 DUP2 SWAP1 POP DUP2 PUSH0 MSTORE PUSH1 0x20 PUSH0 KECCAK256 SWAP1 POP SWAP2 SWAP1 POP JUMP JUMPDEST PUSH0 PUSH1 0x20 PUSH1 0x1F DUP4 ADD DIV SWAP1 POP SWAP2 SWAP1 POP JUMP JUMPDEST PUSH0 DUP3 DUP3 SHL SWAP1 POP SWAP3 SWAP2 POP POP JUMP JUMPDEST PUSH0 PUSH1 0x8 DUP4 MUL PUSH2 0x26E PUSH32 0xFFFFFFFFFFFFFFFFFFFFFFFFFFFFFFFFFFFFFFFFFFFFFFFFFFFFFFFFFFFFFFFF DUP3 PUSH2 0x233 JUMP JUMPDEST PUSH2 0x278 DUP7 DUP4 PUSH2 0x233 JUMP JUMPDEST SWAP6 POP DUP1 NOT DUP5 AND SWAP4 POP DUP1 DUP7 AND DUP5 OR SWAP3 POP POP POP SWAP4 SWAP3 POP POP POP JUMP JUMPDEST PUSH0 DUP2 SWAP1 POP SWAP2 SWAP1 POP JUMP JUMPDEST PUSH0 DUP2 SWAP1 POP SWAP2 SWAP1 POP JUMP JUMPDEST PUSH0 PUSH2 0x2BC PUSH2 0x2B7 PUSH2 0x2B2 DUP5 PUSH2 0x290 JUMP JUMPDEST PUSH2 0x299 JUMP JUMPDEST PUSH2 0x290 JUMP JUMPDEST SWAP1 POP SWAP2 SWAP1 POP JUMP JUMPDEST PUSH0 DUP2 SWAP1 POP SWAP2 SWAP1 POP JUMP JUMPDEST PUSH2 0x2D5 DUP4 PUSH2 0x2A2 JUMP JUMPDEST PUSH2 0x2E9 PUSH2 0x2E1 DUP3 PUSH2 0x2C3 JUMP JUMPDEST DUP5 DUP5 SLOAD PUSH2 0x23F JUMP JUMPDEST DUP3 SSTORE POP POP POP POP JUMP JUMPDEST PUSH0 SWAP1 JUMP JUMPDEST PUSH2 0x2FD PUSH2 0x2F1 JUMP JUMPDEST PUSH2 0x308 DUP2 DUP5 DUP5 PUSH2 0x2CC JUMP JUMPDEST POP POP POP JUMP JUMPDEST JUMPDEST DUP2 DUP2 LT ISZERO PUSH2 0x32B JUMPI PUSH2 0x320 PUSH0 DUP3 PUSH2 0x2F5 JUMP JUMPDEST PUSH1 0x1 DUP2 ADD SWAP1 POP PUSH2 0x30E JUMP JUMPDEST POP POP JUMP JUMPDEST PUSH1 0x1F DUP3 GT ISZERO PUSH2 0x370 JUMPI PUSH2 0x341 DUP2 PUSH2 0x212 JUMP JUMPDEST PUSH2 0x34A DUP5 PUSH2 0x224 JUMP JUMPDEST DUP2 ADD PUSH1 0x20 DUP6 LT ISZERO PUSH2 0x359 JUMPI DUP2 SWAP1 POP JUMPDEST PUSH2 0x36D PUSH2 0x365 DUP6 PUSH2 0x224 JUMP JUMPDEST DUP4 ADD DUP3 PUSH2 0x30D JUMP JUMPDEST POP POP JUMPDEST POP POP POP JUMP JUMPDEST PUSH0 DUP3 DUP3 SHR SWAP1 POP SWAP3 SWAP2 POP POP JUMP JUMPDEST PUSH0 PUSH2 0x390 PUSH0 NOT DUP5 PUSH1 0x8 MUL PUSH2 0x375 JUMP JUMPDEST NOT DUP1 DUP4 AND SWAP2 POP POP SWAP3 SWAP2 POP POP JUMP JUMPDEST PUSH0 PUSH2 0x3A8 DUP4 DUP4 PUSH2 0x381 JUMP JUMPDEST SWAP2 POP DUP3 PUSH1 0x2 MUL DUP3 OR SWAP1 POP SWAP3 SWAP2 POP POP JUMP JUMPDEST PUSH2 0x3C1 DUP3 PUSH2 0x17E JUMP JUMPDEST PUSH8 0xFFFFFFFFFFFFFFFF DUP2 GT ISZERO PUSH2 0x3DA JUMPI PUSH2 0x3D9 PUSH2 0x188 JUMP JUMPDEST JUMPDEST PUSH2 0x3E4 DUP3 SLOAD PUSH2 0x1E2 JUMP JUMPDEST PUSH2 0x3EF DUP3 DUP3 DUP6 PUSH2 0x32F JUMP JUMPDEST PUSH0 PUSH1 0x20 SWAP1 POP PUSH1 0x1F DUP4 GT PUSH1 0x1 DUP2 EQ PUSH2 0x420 JUMPI PUSH0 DUP5 ISZERO PUSH2 0x40E JUMPI DUP3 DUP8 ADD MLOAD SWAP1 POP JUMPDEST PUSH2 0x418 DUP6 DUP3 PUSH2 0x39D JUMP JUMPDEST DUP7 SSTORE POP PUSH2 0x47F JUMP JUMPDEST PUSH1 0x1F NOT DUP5 AND PUSH2 0x42E DUP7 PUSH2 0x212 JUMP JUMPDEST PUSH0 JUMPDEST DUP3 DUP2 LT ISZERO PUSH2 0x455 JUMPI DUP5 DUP10 ADD MLOAD DUP3 SSTORE PUSH1 0x1 DUP3 ADD SWAP2 POP PUSH1 0x20 DUP6 ADD SWAP5 POP PUSH1 0x20 DUP2 ADD SWAP1 POP PUSH2 0x430 JUMP JUMPDEST DUP7 DUP4 LT ISZERO PUSH2 0x472 JUMPI DUP5 DUP10 ADD MLOAD PUSH2 0x46E PUSH1 0x1F DUP10 AND DUP3 PUSH2 0x381 JUMP JUMPDEST DUP4 SSTORE POP JUMPDEST PUSH1 0x1 PUSH1 0x2 DUP9 MUL ADD DUP9 SSTORE POP POP POP JUMPDEST POP POP POP POP POP POP JUMP JUMPDEST PUSH2 0xDAB DUP1 PUSH2 0x494 PUSH0 CODECOPY PUSH0 RETURN INVALID PUSH1 0x80 PUSH1 0x40 MSTORE CALLVALUE DUP1 ISZERO PUSH2 0xF JUMPI PUSH0 DUP1 REVERT JUMPDEST POP PUSH1 0x4 CALLDATASIZE LT PUSH2 0x91 JUMPI PUSH0 CALLDATALOAD PUSH1 0xE0 SHR DUP1 PUSH4 0x89553D46 GT PUSH2 0x64 JUMPI DUP1 PUSH4 0x89553D46 EQ PUSH2 0x141 JUMPI DUP1 PUSH4 0x9EFB5C23 EQ PUSH2 0x15D JUMPI DUP1 PUSH4 0xE52B008F EQ PUSH2 0x18F JUMPI DUP1 PUSH4 0xE990585E EQ PUSH2 0x1AB JUMPI DUP1 PUSH4 0xEAAEFA96 EQ PUSH2 0x1C7 JUMPI PUSH2 0x91 JUMP JUMPDEST DUP1 PUSH4 0x1C9FC6C0 EQ PUSH2 0x95 JUMPI DUP1 PUSH4 0x3CE5771D EQ PUSH2 0xC5 JUMPI DUP1 PUSH4 0x706BD608 EQ PUSH2 0xF5 JUMPI DUP1 PUSH4 0x85EA1266 EQ PUSH2 0x111 JUMPI JUMPDEST PUSH0 DUP1 REVERT JUMPDEST PUSH2 0xAF PUSH1 0x4 DUP1 CALLDATASIZE SUB DUP2 ADD SWAP1 PUSH2 0xAA SWAP2 SWAP1 PUSH2 0x6C3 JUMP JUMPDEST PUSH2 0x1F9 JUMP JUMPDEST PUSH1 0x40 MLOAD PUSH2 0xBC SWAP2 SWAP1 PUSH2 0x6FD JUMP JUMPDEST PUSH1 0x40 MLOAD DUP1 SWAP2 SUB SWAP1 RETURN JUMPDEST PUSH2 0xDF PUSH1 0x4 DUP1 CALLDATASIZE SUB DUP2 ADD SWAP1 PUSH2 0xDA SWAP2 SWAP1 PUSH2 0x852 JUMP JUMPDEST PUSH2 0x212 JUMP JUMPDEST PUSH1 0x40 MLOAD PUSH2 0xEC SWAP2 SWAP1 PUSH2 0x6FD JUMP JUMPDEST PUSH1 0x40 MLOAD DUP1 SWAP2 SUB SWAP1 RETURN JUMPDEST PUSH2 0x10F PUSH1 0x4 DUP1 CALLDATASIZE SUB DUP2 ADD SWAP1 PUSH2 0x10A SWAP2 SWAP1 PUSH2 0x8AC JUMP JUMPDEST PUSH2 0x255 JUMP JUMPDEST STOP JUMPDEST PUSH2 0x12B PUSH1 0x4 DUP1 CALLDATASIZE SUB DUP2 ADD SWAP1 PUSH2 0x126 SWAP2 SWAP1 PUSH2 0x98E JUMP JUMPDEST PUSH2 0x2D8 JUMP JUMPDEST PUSH1 0x40 MLOAD PUSH2 0x138 SWAP2 SWAP1 PUSH2 0x6FD JUMP JUMPDEST PUSH1 0x40 MLOAD DUP1 SWAP2 SUB SWAP1 RETURN JUMPDEST PUSH2 0x15B PUSH1 0x4 DUP1 CALLDATASIZE SUB DUP2 ADD SWAP1 PUSH2 0x156 SWAP2 SWAP1 PUSH2 0x852 JUMP JUMPDEST PUSH2 0x2ED JUMP JUMPDEST STOP JUMPDEST PUSH2 0x177 PUSH1 0x4 DUP1 CALLDATASIZE SUB DUP2 ADD SWAP1 PUSH2 0x172 SWAP2 SWAP1 PUSH2 0x6C3 JUMP JUMPDEST PUSH2 0x333 JUMP JUMPDEST PUSH1 0x40 MLOAD PUSH2 0x186 SWAP4 SWAP3 SWAP2 SWAP1 PUSH2 0xA19 JUMP JUMPDEST PUSH1 0x40 MLOAD DUP1 SWAP2 SUB SWAP1 RETURN JUMPDEST PUSH2 0x1A9 PUSH1 0x4 DUP1 CALLDATASIZE SUB DUP2 ADD SWAP1 PUSH2 0x1A4 SWAP2 SWAP1 PUSH2 0x6C3 JUMP JUMPDEST PUSH2 0x474 JUMP JUMPDEST STOP JUMPDEST PUSH2 0x1C5 PUSH1 0x4 DUP1 CALLDATASIZE SUB DUP2 ADD SWAP1 PUSH2 0x1C0 SWAP2 SWAP1 PUSH2 0x8AC JUMP JUMPDEST PUSH2 0x4B9 JUMP JUMPDEST STOP JUMPDEST PUSH2 0x1E1 PUSH1 0x4 DUP1 CALLDATASIZE SUB DUP2 ADD SWAP1 PUSH2 0x1DC SWAP2 SWAP1 PUSH2 0x98E JUMP JUMPDEST PUSH2 0x54D JUMP JUMPDEST PUSH1 0x40 MLOAD PUSH2 0x1F0 SWAP4 SWAP3 SWAP2 SWAP1 PUSH2 0xA19 JUMP JUMPDEST PUSH1 0x40 MLOAD DUP1 SWAP2 SUB SWAP1 RETURN JUMPDEST PUSH1 0x3 DUP2 PUSH1 0x5 DUP2 LT PUSH2 0x208 JUMPI PUSH0 DUP1 REVERT JUMPDEST ADD PUSH0 SWAP2 POP SWAP1 POP SLOAD DUP2 JUMP JUMPDEST PUSH1 0xA DUP3 DUP1 MLOAD PUSH1 0x20 DUP2 ADD DUP3 ADD DUP1 MLOAD DUP5 DUP3 MSTORE PUSH1 0x20 DUP4 ADD PUSH1 0x20 DUP6 ADD KECCAK256 DUP2 DUP4 MSTORE DUP1 SWAP6 POP POP POP POP POP POP DUP2 DUP2 SLOAD DUP2 LT PUSH2 0x243 JUMPI PUSH0 DUP1 REVERT JUMPDEST SWAP1 PUSH0 MSTORE PUSH1 0x20 PUSH0 KECCAK256 ADD PUSH0 SWAP2 POP SWAP2 POP POP SLOAD DUP2 JUMP JUMPDEST PUSH0 PUSH1 0x40 MLOAD DUP1 PUSH1 0x60 ADD PUSH1 0x40 MSTORE DUP1 DUP6 DUP2 MSTORE PUSH1 0x20 ADD DUP5 DUP2 MSTORE PUSH1 0x20 ADD DUP4 DUP2 MSTORE POP SWAP1 POP PUSH1 0x8 DUP2 SWAP1 DUP1 PUSH1 0x1 DUP2 SLOAD ADD DUP1 DUP3 SSTORE DUP1 SWAP2 POP POP PUSH1 0x1 SWAP1 SUB SWAP1 PUSH0 MSTORE PUSH1 0x20 PUSH0 KECCAK256 SWAP1 PUSH1 0x3 MUL ADD PUSH0 SWAP1 SWAP2 SWAP1 SWAP2 SWAP1 SWAP2 POP PUSH0 DUP3 ADD MLOAD DUP2 PUSH0 ADD SSTORE PUSH1 0x20 DUP3 ADD MLOAD DUP2 PUSH1 0x1 ADD SWAP1 DUP2 PUSH2 0x2B9 SWAP2 SWAP1 PUSH2 0xC56 JUMP JUMPDEST POP PUSH1 0x40 DUP3 ADD MLOAD DUP2 PUSH1 0x2 ADD SWAP1 DUP2 PUSH2 0x2CF SWAP2 SWAP1 PUSH2 0xC56 JUMP JUMPDEST POP POP POP POP POP POP POP JUMP JUMPDEST PUSH1 0x9 PUSH1 0x20 MSTORE DUP1 PUSH0 MSTORE PUSH1 0x40 PUSH0 KECCAK256 PUSH0 SWAP2 POP SWAP1 POP SLOAD DUP2 JUMP JUMPDEST PUSH1 0xA DUP3 PUSH1 0x40 MLOAD PUSH2 0x2FD SWAP2 SWAP1 PUSH2 0xD5F JUMP JUMPDEST SWAP1 DUP2 MSTORE PUSH1 0x20 ADD PUSH1 0x40 MLOAD DUP1 SWAP2 SUB SWAP1 KECCAK256 DUP2 SWAP1 DUP1 PUSH1 0x1 DUP2 SLOAD ADD DUP1 DUP3 SSTORE DUP1 SWAP2 POP POP PUSH1 0x1 SWAP1 SUB SWAP1 PUSH0 MSTORE PUSH1 0x20 PUSH0 KECCAK256 ADD PUSH0 SWAP1 SWAP2 SWAP1 SWAP2 SWAP1 SWAP2 POP SSTORE POP POP JUMP JUMPDEST PUSH1 0x8 DUP2 DUP2 SLOAD DUP2 LT PUSH2 0x342 JUMPI PUSH0 DUP1 REVERT JUMPDEST SWAP1 PUSH0 MSTORE PUSH1 0x20 PUSH0 KECCAK256 SWAP1 PUSH1 0x3 MUL ADD PUSH0 SWAP2 POP SWAP1 POP DUP1 PUSH0 ADD SLOAD SWAP1 DUP1 PUSH1 0x1 ADD DUP1 SLOAD PUSH2 0x367 SWAP1 PUSH2 0xA89 JUMP JUMPDEST DUP1 PUSH1 0x1F ADD PUSH1 0x20 DUP1 SWAP2 DIV MUL PUSH1 0x20 ADD PUSH1 0x40 MLOAD SWAP1 DUP2 ADD PUSH1 0x40 MSTORE DUP1 SWAP3 SWAP2 SWAP1 DUP2 DUP2 MSTORE PUSH1 0x20 ADD DUP3 DUP1 SLOAD PUSH2 0x393 SWAP1 PUSH2 0xA89 JUMP JUMPDEST DUP1 ISZERO PUSH2 0x3DE JUMPI DUP1 PUSH1 0x1F LT PUSH2 0x3B5 JUMPI PUSH2 0x100 DUP1 DUP4 SLOAD DIV MUL DUP4 MSTORE SWAP2 PUSH1 0x20 ADD SWAP2 PUSH2 0x3DE JUMP JUMPDEST DUP3 ADD SWAP2 SWAP1 PUSH0 MSTORE PUSH1 0x20 PUSH0 KECCAK256 SWAP1 JUMPDEST DUP2 SLOAD DUP2 MSTORE SWAP1 PUSH1 0x1 ADD SWAP1 PUSH1 0x20 ADD DUP1 DUP4 GT PUSH2 0x3C1 JUMPI DUP3 SWAP1 SUB PUSH1 0x1F AND DUP3 ADD SWAP2 JUMPDEST POP POP POP POP POP SWAP1 DUP1 PUSH1 0x2 ADD DUP1 SLOAD PUSH2 0x3F3 SWAP1 PUSH2 0xA89 JUMP JUMPDEST DUP1 PUSH1 0x1F ADD PUSH1 0x20 DUP1 SWAP2 DIV MUL PUSH1 0x20 ADD PUSH1 0x40 MLOAD SWAP1 DUP2 ADD PUSH1 0x40 MSTORE DUP1 SWAP3 SWAP2 SWAP1 DUP2 DUP2 MSTORE PUSH1 0x20 ADD DUP3 DUP1 SLOAD PUSH2 0x41F SWAP1 PUSH2 0xA89 JUMP JUMPDEST DUP1 ISZERO PUSH2 0x46A JUMPI DUP1 PUSH1 0x1F LT PUSH2 0x441 JUMPI PUSH2 0x100 DUP1 DUP4 SLOAD DIV MUL DUP4 MSTORE SWAP2 PUSH1 0x20 ADD SWAP2 PUSH2 0x46A JUMP JUMPDEST DUP3 ADD SWAP2 SWAP1 PUSH0 MSTORE PUSH1 0x20 PUSH0 KECCAK256 SWAP1 JUMPDEST DUP2 SLOAD DUP2 MSTORE SWAP1 PUSH1 0x1 ADD SWAP1 PUSH1 0x20 ADD DUP1 DUP4 GT PUSH2 0x44D JUMPI DUP3 SWAP1 SUB PUSH1 0x1F AND DUP3 ADD SWAP2 JUMPDEST POP POP POP POP POP SWAP1 POP DUP4 JUMP JUMPDEST DUP1 PUSH1 0x9 PUSH0 CALLER PUSH20 0xFFFFFFFFFFFFFFFFFFFFFFFFFFFFFFFFFFFFFFFF AND PUSH20 0xFFFFFFFFFFFFFFFFFFFFFFFFFFFFFFFFFFFFFFFF AND DUP2 MSTORE PUSH1 0x20 ADD SWAP1 DUP2 MSTORE PUSH1 0x20 ADD PUSH0 KECCAK256 DUP2 SWAP1 SSTORE POP POP JUMP JUMPDEST PUSH1 0x40 MLOAD DUP1 PUSH1 0x60 ADD PUSH1 0x40 MSTORE DUP1 DUP5 DUP2 MSTORE PUSH1 0x20 ADD DUP4 DUP2 MSTORE PUSH1 0x20 ADD DUP3 DUP2 MSTORE POP PUSH1 0xB PUSH0 CALLER PUSH20 0xFFFFFFFFFFFFFFFFFFFFFFFFFFFFFFFFFFFFFFFF AND PUSH20 0xFFFFFFFFFFFFFFFFFFFFFFFFFFFFFFFFFFFFFFFF AND DUP2 MSTORE PUSH1 0x20 ADD SWAP1 DUP2 MSTORE PUSH1 0x20 ADD PUSH0 KECCAK256 PUSH0 DUP3 ADD MLOAD DUP2 PUSH0 ADD SSTORE PUSH1 0x20 DUP3 ADD MLOAD DUP2 PUSH1 0x1 ADD SWAP1 DUP2 PUSH2 0x52E SWAP2 SWAP1 PUSH2 0xC56 JUMP JUMPDEST POP PUSH1 0x40 DUP3 ADD MLOAD DUP2 PUSH1 0x2 ADD SWAP1 DUP2 PUSH2 0x544 SWAP2 SWAP1 PUSH2 0xC56 JUMP JUMPDEST POP SWAP1 POP POP POP POP POP JUMP JUMPDEST PUSH1 0xB PUSH1 0x20 MSTORE DUP1 PUSH0 MSTORE PUSH1 0x40 PUSH0 KECCAK256 PUSH0 SWAP2 POP SWAP1 POP DUP1 PUSH0 ADD SLOAD SWAP1 DUP1 PUSH1 0x1 ADD DUP1 SLOAD PUSH2 0x572 SWAP1 PUSH2 0xA89 JUMP JUMPDEST DUP1 PUSH1 0x1F ADD PUSH1 0x20 DUP1 SWAP2 DIV MUL PUSH1 0x20 ADD PUSH1 0x40 MLOAD SWAP1 DUP2 ADD PUSH1 0x40 MSTORE DUP1 SWAP3 SWAP2 SWAP1 DUP2 DUP2 MSTORE PUSH1 0x20 ADD DUP3 DUP1 SLOAD PUSH2 0x59E SWAP1 PUSH2 0xA89 JUMP JUMPDEST DUP1 ISZERO PUSH2 0x5E9 JUMPI DUP1 PUSH1 0x1F LT PUSH2 0x5C0 JUMPI PUSH2 0x100 DUP1 DUP4 SLOAD DIV MUL DUP4 MSTORE SWAP2 PUSH1 0x20 ADD SWAP2 PUSH2 0x5E9 JUMP JUMPDEST DUP3 ADD SWAP2 SWAP1 PUSH0 MSTORE PUSH1 0x20 PUSH0 KECCAK256 SWAP1 JUMPDEST DUP2 SLOAD DUP2 MSTORE SWAP1 PUSH1 0x1 ADD SWAP1 PUSH1 0x20 ADD DUP1 DUP4 GT PUSH2 0x5CC JUMPI DUP3 SWAP1 SUB PUSH1 0x1F AND DUP3 ADD SWAP2 JUMPDEST POP POP POP POP POP SWAP1 DUP1 PUSH1 0x2 ADD DUP1 SLOAD PUSH2 0x5FE SWAP1 PUSH2 0xA89 JUMP JUMPDEST DUP1 PUSH1 0x1F ADD PUSH1 0x20 DUP1 SWAP2 DIV MUL PUSH1 0x20 ADD PUSH1 0x40 MLOAD SWAP1 DUP2 ADD PUSH1 0x40 MSTORE DUP1 SWAP3 SWAP2 SWAP1 DUP2 DUP2 MSTORE PUSH1 0x20 ADD DUP3 DUP1 SLOAD PUSH2 0x62A SWAP1 PUSH2 0xA89 JUMP JUMPDEST DUP1 ISZERO PUSH2 0x675 JUMPI DUP1 PUSH1 0x1F LT PUSH2 0x64C JUMPI PUSH2 0x100 DUP1 DUP4 SLOAD DIV MUL DUP4 MSTORE SWAP2 PUSH1 0x20 ADD SWAP2 PUSH2 0x675 JUMP JUMPDEST DUP3 ADD SWAP2 SWAP1 PUSH0 MSTORE PUSH1 0x20 PUSH0 KECCAK256 SWAP1 JUMPDEST DUP2 SLOAD DUP2 MSTORE SWAP1 PUSH1 0x1 ADD SWAP1 PUSH1 0x20 ADD DUP1 DUP4 GT PUSH2 0x658 JUMPI DUP3 SWAP1 SUB PUSH1 0x1F AND DUP3 ADD SWAP2 JUMPDEST POP POP POP POP POP SWAP1 POP DUP4 JUMP JUMPDEST PUSH0 PUSH1 0x40 MLOAD SWAP1 POP SWAP1 JUMP JUMPDEST PUSH0 DUP1 REVERT JUMPDEST PUSH0 DUP1 REVERT JUMPDEST PUSH0 DUP2 SWAP1 POP SWAP2 SWAP1 POP JUMP JUMPDEST PUSH2 0x6A2 DUP2 PUSH2 0x690 JUMP JUMPDEST DUP2 EQ PUSH2 0x6AC JUMPI PUSH0 DUP1 REVERT JUMPDEST POP JUMP JUMPDEST PUSH0 DUP2 CALLDATALOAD SWAP1 POP PUSH2 0x6BD DUP2 PUSH2 0x699 JUMP JUMPDEST SWAP3 SWAP2 POP POP JUMP JUMPDEST PUSH0 PUSH1 0x20 DUP3 DUP5 SUB SLT ISZERO PUSH2 0x6D8 JUMPI PUSH2 0x6D7 PUSH2 0x688 JUMP JUMPDEST JUMPDEST PUSH0 PUSH2 0x6E5 DUP5 DUP3 DUP6 ADD PUSH2 0x6AF JUMP JUMPDEST SWAP2 POP POP SWAP3 SWAP2 POP POP JUMP JUMPDEST PUSH2 0x6F7 DUP2 PUSH2 0x690 JUMP JUMPDEST DUP3 MSTORE POP POP JUMP JUMPDEST PUSH0 PUSH1 0x20 DUP3 ADD SWAP1 POP PUSH2 0x710 PUSH0 DUP4 ADD DUP5 PUSH2 0x6EE JUMP JUMPDEST SWAP3 SWAP2 POP POP JUMP JUMPDEST PUSH0 DUP1 REVERT JUMPDEST PUSH0 DUP1 REVERT JUMPDEST PUSH0 PUSH1 0x1F NOT PUSH1 0x1F DUP4 ADD AND SWAP1 POP SWAP2 SWAP1 POP JUMP JUMPDEST PUSH32 0x4E487B7100000000000000000000000000000000000000000000000000000000 PUSH0 MSTORE PUSH1 0x41 PUSH1 0x4 MSTORE PUSH1 0x24 PUSH0 REVERT JUMPDEST PUSH2 0x764 DUP3 PUSH2 0x71E JUMP JUMPDEST DUP2 ADD DUP2 DUP2 LT PUSH8 0xFFFFFFFFFFFFFFFF DUP3 GT OR ISZERO PUSH2 0x783 JUMPI PUSH2 0x782 PUSH2 0x72E JUMP JUMPDEST JUMPDEST DUP1 PUSH1 0x40 MSTORE POP POP POP JUMP JUMPDEST PUSH0 PUSH2 0x795 PUSH2 0x67F JUMP JUMPDEST SWAP1 POP PUSH2 0x7A1 DUP3 DUP3 PUSH2 0x75B JUMP JUMPDEST SWAP2 SWAP1 POP JUMP JUMPDEST PUSH0 PUSH8 0xFFFFFFFFFFFFFFFF DUP3 GT ISZERO PUSH2 0x7C0 JUMPI PUSH2 0x7BF PUSH2 0x72E JUMP JUMPDEST JUMPDEST PUSH2 0x7C9 DUP3 PUSH2 0x71E JUMP JUMPDEST SWAP1 POP PUSH1 0x20 DUP2 ADD SWAP1 POP SWAP2 SWAP1 POP JUMP JUMPDEST DUP3 DUP2 DUP4 CALLDATACOPY PUSH0 DUP4 DUP4 ADD MSTORE POP POP POP JUMP JUMPDEST PUSH0 PUSH2 0x7F6 PUSH2 0x7F1 DUP5 PUSH2 0x7A6 JUMP JUMPDEST PUSH2 0x78C JUMP JUMPDEST SWAP1 POP DUP3 DUP2 MSTORE PUSH1 0x20 DUP2 ADD DUP5 DUP5 DUP5 ADD GT ISZERO PUSH2 0x812 JUMPI PUSH2 0x811 PUSH2 0x71A JUMP JUMPDEST JUMPDEST PUSH2 0x81D DUP5 DUP3 DUP6 PUSH2 0x7D6 JUMP JUMPDEST POP SWAP4 SWAP3 POP POP POP JUMP JUMPDEST PUSH0 DUP3 PUSH1 0x1F DUP4 ADD SLT PUSH2 0x839 JUMPI PUSH2 0x838 PUSH2 0x716 JUMP JUMPDEST JUMPDEST DUP2 CALLDATALOAD PUSH2 0x849 DUP5 DUP3 PUSH1 0x20 DUP7 ADD PUSH2 0x7E4 JUMP JUMPDEST SWAP2 POP POP SWAP3 SWAP2 POP POP JUMP JUMPDEST PUSH0 DUP1 PUSH1 0x40 DUP4 DUP6 SUB SLT ISZERO PUSH2 0x868 JUMPI PUSH2 0x867 PUSH2 0x688 JUMP JUMPDEST JUMPDEST PUSH0 DUP4 ADD CALLDATALOAD PUSH8 0xFFFFFFFFFFFFFFFF DUP2 GT ISZERO PUSH2 0x885 JUMPI PUSH2 0x884 PUSH2 0x68C JUMP JUMPDEST JUMPDEST PUSH2 0x891 DUP6 DUP3 DUP7 ADD PUSH2 0x825 JUMP JUMPDEST SWAP3 POP POP PUSH1 0x20 PUSH2 0x8A2 DUP6 DUP3 DUP7 ADD PUSH2 0x6AF JUMP JUMPDEST SWAP2 POP POP SWAP3 POP SWAP3 SWAP1 POP JUMP JUMPDEST PUSH0 DUP1 PUSH0 PUSH1 0x60 DUP5 DUP7 SUB SLT ISZERO PUSH2 0x8C3 JUMPI PUSH2 0x8C2 PUSH2 0x688 JUMP JUMPDEST JUMPDEST PUSH0 PUSH2 0x8D0 DUP7 DUP3 DUP8 ADD PUSH2 0x6AF JUMP JUMPDEST SWAP4 POP POP PUSH1 0x20 DUP5 ADD CALLDATALOAD PUSH8 0xFFFFFFFFFFFFFFFF DUP2 GT ISZERO PUSH2 0x8F1 JUMPI PUSH2 0x8F0 PUSH2 0x68C JUMP JUMPDEST JUMPDEST PUSH2 0x8FD DUP7 DUP3 DUP8 ADD PUSH2 0x825 JUMP JUMPDEST SWAP3 POP POP PUSH1 0x40 DUP5 ADD CALLDATALOAD PUSH8 0xFFFFFFFFFFFFFFFF DUP2 GT ISZERO PUSH2 0x91E JUMPI PUSH2 0x91D PUSH2 0x68C JUMP JUMPDEST JUMPDEST PUSH2 0x92A DUP7 DUP3 DUP8 ADD PUSH2 0x825 JUMP JUMPDEST SWAP2 POP POP SWAP3 POP SWAP3 POP SWAP3 JUMP JUMPDEST PUSH0 PUSH20 0xFFFFFFFFFFFFFFFFFFFFFFFFFFFFFFFFFFFFFFFF DUP3 AND SWAP1 POP SWAP2 SWAP1 POP JUMP JUMPDEST PUSH0 PUSH2 0x95D DUP3 PUSH2 0x934 JUMP JUMPDEST SWAP1 POP SWAP2 SWAP1 POP JUMP JUMPDEST PUSH2 0x96D DUP2 PUSH2 0x953 JUMP JUMPDEST DUP2 EQ PUSH2 0x977 JUMPI PUSH0 DUP1 REVERT JUMPDEST POP JUMP JUMPDEST PUSH0 DUP2 CALLDATALOAD SWAP1 POP PUSH2 0x988 DUP2 PUSH2 0x964 JUMP JUMPDEST SWAP3 SWAP2 POP POP JUMP JUMPDEST PUSH0 PUSH1 0x20 DUP3 DUP5 SUB SLT ISZERO PUSH2 0x9A3 JUMPI PUSH2 0x9A2 PUSH2 0x688 JUMP JUMPDEST JUMPDEST PUSH0 PUSH2 0x9B0 DUP5 DUP3 DUP6 ADD PUSH2 0x97A JUMP JUMPDEST SWAP2 POP POP SWAP3 SWAP2 POP POP JUMP JUMPDEST PUSH0 DUP2 MLOAD SWAP1 POP SWAP2 SWAP1 POP JUMP JUMPDEST PUSH0 DUP3 DUP3 MSTORE PUSH1 0x20 DUP3 ADD SWAP1 POP SWAP3 SWAP2 POP POP JUMP JUMPDEST DUP3 DUP2 DUP4 MCOPY PUSH0 DUP4 DUP4 ADD MSTORE POP POP POP JUMP JUMPDEST PUSH0 PUSH2 0x9EB DUP3 PUSH2 0x9B9 JUMP JUMPDEST PUSH2 0x9F5 DUP2 DUP6 PUSH2 0x9C3 JUMP JUMPDEST SWAP4 POP PUSH2 0xA05 DUP2 DUP6 PUSH1 0x20 DUP7 ADD PUSH2 0x9D3 JUMP JUMPDEST PUSH2 0xA0E DUP2 PUSH2 0x71E JUMP JUMPDEST DUP5 ADD SWAP2 POP POP SWAP3 SWAP2 POP POP JUMP JUMPDEST PUSH0 PUSH1 0x60 DUP3 ADD SWAP1 POP PUSH2 0xA2C PUSH0 DUP4 ADD DUP7 PUSH2 0x6EE JUMP JUMPDEST DUP2 DUP2 SUB PUSH1 0x20 DUP4 ADD MSTORE PUSH2 0xA3E DUP2 DUP6 PUSH2 0x9E1 JUMP JUMPDEST SWAP1 POP DUP2 DUP2 SUB PUSH1 0x40 DUP4 ADD MSTORE PUSH2 0xA52 DUP2 DUP5 PUSH2 0x9E1 JUMP JUMPDEST SWAP1 POP SWAP5 SWAP4 POP POP POP POP JUMP JUMPDEST PUSH32 0x4E487B7100000000000000000000000000000000000000000000000000000000 PUSH0 MSTORE PUSH1 0x22 PUSH1 0x4 MSTORE PUSH1 0x24 PUSH0 REVERT JUMPDEST PUSH0 PUSH1 0x2 DUP3 DIV SWAP1 POP PUSH1 0x1 DUP3 AND DUP1 PUSH2 0xAA0 JUMPI PUSH1 0x7F DUP3 AND SWAP2 POP JUMPDEST PUSH1 0x20 DUP3 LT DUP2 SUB PUSH2 0xAB3 JUMPI PUSH2 0xAB2 PUSH2 0xA5C JUMP JUMPDEST JUMPDEST POP SWAP2 SWAP1 POP JUMP JUMPDEST PUSH0 DUP2 SWAP1 POP DUP2 PUSH0 MSTORE PUSH1 0x20 PUSH0 KECCAK256 SWAP1 POP SWAP2 SWAP1 POP JUMP JUMPDEST PUSH0 PUSH1 0x20 PUSH1 0x1F DUP4 ADD DIV SWAP1 POP SWAP2 SWAP1 POP JUMP JUMPDEST PUSH0 DUP3 DUP3 SHL SWAP1 POP SWAP3 SWAP2 POP POP JUMP JUMPDEST PUSH0 PUSH1 0x8 DUP4 MUL PUSH2 0xB15 PUSH32 0xFFFFFFFFFFFFFFFFFFFFFFFFFFFFFFFFFFFFFFFFFFFFFFFFFFFFFFFFFFFFFFFF DUP3 PUSH2 0xADA JUMP JUMPDEST PUSH2 0xB1F DUP7 DUP4 PUSH2 0xADA JUMP JUMPDEST SWAP6 POP DUP1 NOT DUP5 AND SWAP4 POP DUP1 DUP7 AND DUP5 OR SWAP3 POP POP POP SWAP4 SWAP3 POP POP POP JUMP JUMPDEST PUSH0 DUP2 SWAP1 POP SWAP2 SWAP1 POP JUMP JUMPDEST PUSH0 PUSH2 0xB5A PUSH2 0xB55 PUSH2 0xB50 DUP5 PUSH2 0x690 JUMP JUMPDEST PUSH2 0xB37 JUMP JUMPDEST PUSH2 0x690 JUMP JUMPDEST SWAP1 POP SWAP2 SWAP1 POP JUMP JUMPDEST PUSH0 DUP2 SWAP1 POP SWAP2 SWAP1 POP JUMP JUMPDEST PUSH2 0xB73 DUP4 PUSH2 0xB40 JUMP JUMPDEST PUSH2 0xB87 PUSH2 0xB7F DUP3 PUSH2 0xB61 JUMP JUMPDEST DUP5 DUP5 SLOAD PUSH2 0xAE6 JUMP JUMPDEST DUP3 SSTORE POP POP POP POP JUMP JUMPDEST PUSH0 SWAP1 JUMP JUMPDEST PUSH2 0xB9B PUSH2 0xB8F JUMP JUMPDEST PUSH2 0xBA6 DUP2 DUP5 DUP5 PUSH2 0xB6A JUMP JUMPDEST POP POP POP JUMP JUMPDEST JUMPDEST DUP2 DUP2 LT ISZERO PUSH2 0xBC9 JUMPI PUSH2 0xBBE PUSH0 DUP3 PUSH2 0xB93 JUMP JUMPDEST PUSH1 0x1 DUP2 ADD SWAP1 POP PUSH2 0xBAC JUMP JUMPDEST POP POP JUMP JUMPDEST PUSH1 0x1F DUP3 GT ISZERO PUSH2 0xC0E JUMPI PUSH2 0xBDF DUP2 PUSH2 0xAB9 JUMP JUMPDEST PUSH2 0xBE8 DUP5 PUSH2 0xACB JUMP JUMPDEST DUP2 ADD PUSH1 0x20 DUP6 LT ISZERO PUSH2 0xBF7 JUMPI DUP2 SWAP1 POP JUMPDEST PUSH2 0xC0B PUSH2 0xC03 DUP6 PUSH2 0xACB JUMP JUMPDEST DUP4 ADD DUP3 PUSH2 0xBAB JUMP JUMPDEST POP POP JUMPDEST POP POP POP JUMP JUMPDEST PUSH0 DUP3 DUP3 SHR SWAP1 POP SWAP3 SWAP2 POP POP JUMP JUMPDEST PUSH0 PUSH2 0xC2E PUSH0 NOT DUP5 PUSH1 0x8 MUL PUSH2 0xC13 JUMP JUMPDEST NOT DUP1 DUP4 AND SWAP2 POP POP SWAP3 SWAP2 POP POP JUMP JUMPDEST PUSH0 PUSH2 0xC46 DUP4 DUP4 PUSH2 0xC1F JUMP JUMPDEST SWAP2 POP DUP3 PUSH1 0x2 MUL DUP3 OR SWAP1 POP SWAP3 SWAP2 POP POP JUMP JUMPDEST PUSH2 0xC5F DUP3 PUSH2 0x9B9 JUMP JUMPDEST PUSH8 0xFFFFFFFFFFFFFFFF DUP2 GT ISZERO PUSH2 0xC78 JUMPI PUSH2 0xC77 PUSH2 0x72E JUMP JUMPDEST JUMPDEST PUSH2 0xC82 DUP3 SLOAD PUSH2 0xA89 JUMP JUMPDEST PUSH2 0xC8D DUP3 DUP3 DUP6 PUSH2 0xBCD JUMP JUMPDEST PUSH0 PUSH1 0x20 SWAP1 POP PUSH1 0x1F DUP4 GT PUSH1 0x1 DUP2 EQ PUSH2 0xCBE JUMPI PUSH0 DUP5 ISZERO PUSH2 0xCAC JUMPI DUP3 DUP8 ADD MLOAD SWAP1 POP JUMPDEST PUSH2 0xCB6 DUP6 DUP3 PUSH2 0xC3B JUMP JUMPDEST DUP7 SSTORE POP PUSH2 0xD1D JUMP JUMPDEST PUSH1 0x1F NOT DUP5 AND PUSH2 0xCCC DUP7 PUSH2 0xAB9 JUMP JUMPDEST PUSH0 JUMPDEST DUP3 DUP2 LT ISZERO PUSH2 0xCF3 JUMPI DUP5 DUP10 ADD MLOAD DUP3 SSTORE PUSH1 0x1 DUP3 ADD SWAP2 POP PUSH1 0x20 DUP6 ADD SWAP5 POP PUSH1 0x20 DUP2 ADD SWAP1 POP PUSH2 0xCCE JUMP JUMPDEST DUP7 DUP4 LT ISZERO PUSH2 0xD10 JUMPI DUP5 DUP10 ADD MLOAD PUSH2 0xD0C PUSH1 0x1F DUP10 AND DUP3 PUSH2 0xC1F JUMP JUMPDEST DUP4 SSTORE POP JUMPDEST PUSH1 0x1 PUSH1 0x2 DUP9 MUL ADD DUP9 SSTORE POP POP POP JUMPDEST POP POP POP POP POP POP JUMP JUMPDEST PUSH0 DUP2 SWAP1 POP SWAP3 SWAP2 POP POP JUMP JUMPDEST PUSH0 PUSH2 0xD39 DUP3 PUSH2 0x9B9 JUMP JUMPDEST PUSH2 0xD43 DUP2 DUP6 PUSH2 0xD25 JUMP JUMPDEST SWAP4 POP PUSH2 0xD53 DUP2 DUP6 PUSH1 0x20 DUP7 ADD PUSH2 0x9D3 JUMP JUMPDEST DUP1 DUP5 ADD SWAP2 POP POP SWAP3 SWAP2 POP POP JUMP JUMPDEST PUSH0 PUSH2 0xD6A DUP3 DUP5 PUSH2 0xD2F JUMP JUMPDEST SWAP2 POP DUP2 SWAP1 POP SWAP3 SWAP2 POP POP JUMP INVALID LOG2 PUSH5 0x6970667358 0x22 SLT KECCAK256 0xD5 0xC6 0xD5 0x2D LOG2 0xA6 DELEGATECALL BALANCE SLT 0xC4 0xAD 0xA6 0x2C 0x4F EQ BASEFEE 0xD7 DUP13 PUSH24 0x12F0505246603C52EA3AE94F2D64736F6C634300081A0033 "
				},
				"gasEstimates": {
					"creation": {
						"codeDepositCost": "699800",
						"executionCost": "infinite",
						"totalCost": "infinite"
					},
					"external": {
						"address_dataStructure(address)": "infinite",
						"address_uint256(address)": "2869",
						"assignDataStructure(uint256,string,string)": "infinite",
						"assignList(string,uint256)": "infinite",
						"assignNumber(uint256)": "22646",
						"listCustomers(uint256)": "infinite",
						"setCustomer(uint256,string,string)": "infinite",
						"string_listUints(string,uint256)": "infinite",
						"uints(uint256)": "infinite"
					}
				},
				"methodIdentifiers": {
					"address_dataStructure(address)": "eaaefa96",
					"address_uint256(address)": "85ea1266",
					"assignDataStructure(uint256,string,string)": "e990585e",
					"assignList(string,uint256)": "89553d46",
					"assignNumber(uint256)": "e52b008f",
					"listCustomers(uint256)": "9efb5c23",
					"setCustomer(uint256,string,string)": "706bd608",
					"string_listUints(string,uint256)": "3ce5771d",
					"uints(uint256)": "1c9fc6c0"
				}
			},
			"storageLayout": {
				"storage": [
					{
						"astId": 16,
						"contract": "contracts/3_estructuras_de_datos.sol:data_structures",
						"label": "customer1",
						"offset": 0,
						"slot": "0",
						"type": "t_struct(Customer)8_storage"
					},
					{
						"astId": 26,
						"contract": "contracts/3_estructuras_de_datos.sol:data_structures",
						"label": "uints",
						"offset": 0,
						"slot": "3",
						"type": "t_array(t_uint256)5_storage"
					},
					{
						"astId": 30,
						"contract": "contracts/3_estructuras_de_datos.sol:data_structures",
						"label": "listCustomers",
						"offset": 0,
						"slot": "8",
						"type": "t_array(t_struct(Customer)8_storage)dyn_storage"
					},
					{
						"astId": 59,
						"contract": "contracts/3_estructuras_de_datos.sol:data_structures",
						"label": "address_uint256",
						"offset": 0,
						"slot": "9",
						"type": "t_mapping(t_address,t_uint256)"
					},
					{
						"astId": 64,
						"contract": "contracts/3_estructuras_de_datos.sol:data_structures",
						"label": "string_listUints",
						"offset": 0,
						"slot": "10",
						"type": "t_mapping(t_string_memory_ptr,t_array(t_uint256)dyn_storage)"
					},
					{
						"astId": 69,
						"contract": "contracts/3_estructuras_de_datos.sol:data_structures",
						"label": "address_dataStructure",
						"offset": 0,
						"slot": "11",
						"type": "t_mapping(t_address,t_struct(Customer)8_storage)"
					}
				],
				"types": {
					"t_address": {
						"encoding": "inplace",
						"label": "address",
						"numberOfBytes": "20"
					},
					"t_array(t_struct(Customer)8_storage)dyn_storage": {
						"base": "t_struct(Customer)8_storage",
						"encoding": "dynamic_array",
						"label": "struct data_structures.Customer[]",
						"numberOfBytes": "32"
					},
					"t_array(t_uint256)5_storage": {
						"base": "t_uint256",
						"encoding": "inplace",
						"label": "uint256[5]",
						"numberOfBytes": "160"
					},
					"t_array(t_uint256)dyn_storage": {
						"base": "t_uint256",
						"encoding": "dynamic_array",
						"label": "uint256[]",
						"numberOfBytes": "32"
					},
					"t_mapping(t_address,t_struct(Customer)8_storage)": {
						"encoding": "mapping",
						"key": "t_address",
						"label": "mapping(address => struct data_structures.Customer)",
						"numberOfBytes": "32",
						"value": "t_struct(Customer)8_storage"
					},
					"t_mapping(t_address,t_uint256)": {
						"encoding": "mapping",
						"key": "t_address",
						"label": "mapping(address => uint256)",
						"numberOfBytes": "32",
						"value": "t_uint256"
					},
					"t_mapping(t_string_memory_ptr,t_array(t_uint256)dyn_storage)": {
						"encoding": "mapping",
						"key": "t_string_memory_ptr",
						"label": "mapping(string => uint256[])",
						"numberOfBytes": "32",
						"value": "t_array(t_uint256)dyn_storage"
					},
					"t_string_memory_ptr": {
						"encoding": "bytes",
						"label": "string",
						"numberOfBytes": "32"
					},
					"t_string_storage": {
						"encoding": "bytes",
						"label": "string",
						"numberOfBytes": "32"
					},
					"t_struct(Customer)8_storage": {
						"encoding": "inplace",
						"label": "struct data_structures.Customer",
						"members": [
							{
								"astId": 3,
								"contract": "contracts/3_estructuras_de_datos.sol:data_structures",
								"label": "id",
								"offset": 0,
								"slot": "0",
								"type": "t_uint256"
							},
							{
								"astId": 5,
								"contract": "contracts/3_estructuras_de_datos.sol:data_structures",
								"label": "name",
								"offset": 0,
								"slot": "1",
								"type": "t_string_storage"
							},
							{
								"astId": 7,
								"contract": "contracts/3_estructuras_de_datos.sol:data_structures",
								"label": "email",
								"offset": 0,
								"slot": "2",
								"type": "t_string_storage"
							}
						],
						"numberOfBytes": "96"
					},
					"t_uint256": {
						"encoding": "inplace",
						"label": "uint256",
						"numberOfBytes": "32"
					}
				}
			},
			"userdoc": {
				"kind": "user",
				"methods": {},
				"version": 1
			}
		}
	}
}